{
  "_format": "hh-sol-artifact-1",
  "contractName": "X402PaymentHandler",
  "sourceName": "contracts/X402PaymentHandler.sol",
  "abi": [
    {
      "inputs": [
        {
          "internalType": "address",
          "name": "_usdc",
          "type": "address"
        }
      ],
      "stateMutability": "nonpayable",
      "type": "constructor"
    },
    {
      "inputs": [],
      "name": "ECDSAInvalidSignature",
      "type": "error"
    },
    {
      "inputs": [
        {
          "internalType": "uint256",
          "name": "length",
          "type": "uint256"
        }
      ],
      "name": "ECDSAInvalidSignatureLength",
      "type": "error"
    },
    {
      "inputs": [
        {
          "internalType": "bytes32",
          "name": "s",
          "type": "bytes32"
        }
      ],
      "name": "ECDSAInvalidSignatureS",
      "type": "error"
    },
    {
      "anonymous": false,
      "inputs": [
        {
          "indexed": true,
          "internalType": "bytes32",
          "name": "escrowId",
          "type": "bytes32"
        },
        {
          "indexed": true,
          "internalType": "address",
          "name": "sender",
          "type": "address"
        },
        {
          "indexed": true,
          "internalType": "address",
          "name": "recipient",
          "type": "address"
        },
        {
          "indexed": false,
          "internalType": "uint256",
          "name": "amount",
          "type": "uint256"
        },
        {
          "indexed": false,
          "internalType": "uint256",
          "name": "nonce",
          "type": "uint256"
        }
      ],
      "name": "PaymentSettled",
      "type": "event"
    },
    {
      "inputs": [
        {
          "internalType": "address",
          "name": "_sender",
          "type": "address"
        }
      ],
      "name": "getNonce",
      "outputs": [
        {
          "internalType": "uint256",
          "name": "",
          "type": "uint256"
        }
      ],
      "stateMutability": "view",
      "type": "function"
    },
    {
      "inputs": [
        {
          "internalType": "address",
          "name": "_sender",
          "type": "address"
        },
        {
          "internalType": "uint256",
          "name": "_nonce",
          "type": "uint256"
        }
      ],
      "name": "isNonceUsed",
      "outputs": [
        {
          "internalType": "bool",
          "name": "",
          "type": "bool"
        }
      ],
      "stateMutability": "view",
      "type": "function"
    },
    {
      "inputs": [
        {
          "internalType": "address",
          "name": "",
          "type": "address"
        }
      ],
      "name": "nonces",
      "outputs": [
        {
          "internalType": "uint256",
          "name": "",
          "type": "uint256"
        }
      ],
      "stateMutability": "view",
      "type": "function"
    },
    {
      "inputs": [
        {
          "components": [
            {
              "internalType": "address",
              "name": "sender",
              "type": "address"
            },
            {
              "internalType": "address",
              "name": "recipient",
              "type": "address"
            },
            {
              "internalType": "uint256",
              "name": "amount",
              "type": "uint256"
            },
            {
              "internalType": "uint256",
              "name": "nonce",
              "type": "uint256"
            },
            {
              "internalType": "uint256",
              "name": "expiry",
              "type": "uint256"
            },
            {
              "internalType": "bytes32",
              "name": "escrowId",
              "type": "bytes32"
            },
            {
              "internalType": "bytes",
              "name": "signature",
              "type": "bytes"
            }
          ],
          "internalType": "struct X402PaymentHandler.PaymentPayload",
          "name": "_payload",
          "type": "tuple"
        }
      ],
      "name": "settlePayment",
      "outputs": [
        {
          "internalType": "bool",
          "name": "",
          "type": "bool"
        }
      ],
      "stateMutability": "nonpayable",
      "type": "function"
    },
    {
      "inputs": [],
      "name": "usdc",
      "outputs": [
        {
          "internalType": "contract IERC20",
          "name": "",
          "type": "address"
        }
      ],
      "stateMutability": "view",
      "type": "function"
    },
    {
      "inputs": [
        {
          "internalType": "bytes32",
          "name": "",
          "type": "bytes32"
        }
      ],
      "name": "usedNonces",
      "outputs": [
        {
          "internalType": "bool",
          "name": "",
          "type": "bool"
        }
      ],
      "stateMutability": "view",
      "type": "function"
    }
  ],
  "bytecode": "0x608034606f57601f61083b38819003918201601f19168301916001600160401b03831184841017607357808492602094604052833981010312606f57516001600160a01b03811690819003606f575f80546001600160a01b0319169190911790556040516107b390816100888239f35b5f80fd5b634e487b7160e01b5f52604160045260245ffdfe6080806040526004361015610012575f80fd5b5f3560e01c9081632d0335ab146105b9575080633e413bee146105925780634bdb123c1461013f5780637ecebe0014610107578063cab7e8eb146100915763feb617241461005e575f80fd5b3461008d57602036600319011261008d576004355f526001602052602060ff60405f2054166040519015158152f35b5f80fd5b3461008d57604036600319011261008d576100aa6105ed565b60405160609190911b6bffffffffffffffffffffffff1916602082019081526024356034830152906100e981605481015b03601f198101835282610617565b5190205f526001602052602060ff60405f2054166040519015158152f35b3461008d57602036600319011261008d576001600160a01b036101286105ed565b165f526002602052602060405f2054604051908152f35b3461008d57602036600319011261008d5760043567ffffffffffffffff811161008d5736819003906004810160e060031984011261008d5760848201359081421161055b5761018d81610603565b60405160609190911b6bffffffffffffffffffffffff19166020820190815260648501356034830181905292916101c781605481016100db565b519020805f52600160205260ff60405f205416610521576101e782610603565b9460248101966101f688610603565b9660448301359760a4840135976040519160208301936bffffffffffffffffffffffff199060601b1684526bffffffffffffffffffffffff199060601b16603483015289604883015287606883015260888201528760a882015260a8815261025f60c882610617565b51902060405160208101917f19457468657265756d205369676e6564204d6573736167653a0a3332000000008352603c820152603c81526102a1605c82610617565b5190209160c4810135916022190182121561008d57019060048201359167ffffffffffffffff831161008d576024810191833603831361008d57604051916102f3601f8601601f191660200184610617565b848352602060048636930101011161008d575f6020856103279661031e96838701378401015261064d565b90929192610687565b6001600160a01b0361033884610603565b166001600160a01b03909116036104e8575f52600160205260405f20600160ff1982541617905560018060a01b0361036f82610603565b165f52600260205260405f2080545f1981146104d45760010190555f546001600160a01b031660206103a083610603565b60646103ab89610603565b6040516323b872dd60e01b81526001600160a01b0393841660048201529216602483015260448201889052909283919082905f905af19081156104c9575f9161048e575b5015610452577f68ebe01b4f352b6188e551d6ff2b1636a7df4c2c84a6a9236ec0cc75cd2350569161042b610425604093610603565b96610603565b825195865260208601919091526001600160a01b03908116951693a4602060405160018152f35b60405162461bcd60e51b81526020600482015260146024820152731554d110c81d1c985b9cd9995c8819985a5b195960621b6044820152606490fd5b90506020813d6020116104c1575b816104a960209383610617565b8101031261008d5751801515810361008d57866103ef565b3d915061049c565b6040513d5f823e3d90fd5b634e487b7160e01b5f52601160045260245ffd5b60405162461bcd60e51b8152602060048201526011602482015270496e76616c6964207369676e617475726560781b6044820152606490fd5b60405162461bcd60e51b8152602060048201526012602482015271139bdb98d948185b1c9958591e481d5cd95960721b6044820152606490fd5b60405162461bcd60e51b815260206004820152600f60248201526e14185e5b595b9d08195e1c1a5c9959608a1b6044820152606490fd5b3461008d575f36600319011261008d575f546040516001600160a01b039091168152602090f35b3461008d57602036600319011261008d576020906001600160a01b036105dd6105ed565b165f526002825260405f20548152f35b600435906001600160a01b038216820361008d57565b356001600160a01b038116810361008d5790565b90601f8019910116810190811067ffffffffffffffff82111761063957604052565b634e487b7160e01b5f52604160045260245ffd5b815191906041830361067d576106769250602082015190606060408401519301515f1a906106fb565b9192909190565b50505f9160029190565b60048110156106e75780610699575050565b600181036106b05763f645eedf60e01b5f5260045ffd5b600281036106cb575063fce698f760e01b5f5260045260245ffd5b6003146106d55750565b6335e2f38360e21b5f5260045260245ffd5b634e487b7160e01b5f52602160045260245ffd5b91907f7fffffffffffffffffffffffffffffff5d576e7357a4501ddfe92f46681b20a08411610772579160209360809260ff5f9560405194855216868401526040830152606082015282805260015afa156104c9575f516001600160a01b0381161561076857905f905f90565b505f906001905f90565b5050505f916003919056fea2646970667358221220d3a397ebbfe9b6d3f99ba51e438096c19e1ba0ed68e8b8d78595afcade50a3cd64736f6c634300081c0033",
  "linkReferences": {},
  "deployedLinkReferences": {}
}