{
  "_format": "hh-sol-artifact-1",
  "contractName": "ERC8004ReputationRegistry",
  "sourceName": "contracts/ERC8004ReputationRegistry.sol",
  "abi": [
    {
      "inputs": [
        {
          "internalType": "address",
          "name": "_identityRegistry",
          "type": "address"
        }
      ],
      "stateMutability": "nonpayable",
      "type": "constructor"
    },
    {
      "anonymous": false,
      "inputs": [
        {
          "indexed": true,
          "internalType": "uint256",
          "name": "agentId",
          "type": "uint256"
        },
        {
          "indexed": true,
          "internalType": "address",
          "name": "reviewer",
          "type": "address"
        },
        {
          "indexed": false,
          "internalType": "int128",
          "name": "score",
          "type": "int128"
        },
        {
          "indexed": false,
          "internalType": "uint8",
          "name": "decimals",
          "type": "uint8"
        },
        {
          "indexed": false,
          "internalType": "string",
          "name": "tags",
          "type": "string"
        }
      ],
      "name": "NewFeedback",
      "type": "event"
    },
    {
      "inputs": [
        {
          "internalType": "uint256",
          "name": "",
          "type": "uint256"
        },
        {
          "internalType": "uint256",
          "name": "",
          "type": "uint256"
        }
      ],
      "name": "agentFeedback",
      "outputs": [
        {
          "internalType": "address",
          "name": "reviewer",
          "type": "address"
        },
        {
          "internalType": "int128",
          "name": "score",
          "type": "int128"
        },
        {
          "internalType": "uint8",
          "name": "decimals",
          "type": "uint8"
        },
        {
          "internalType": "string",
          "name": "tags",
          "type": "string"
        },
        {
          "internalType": "string",
          "name": "feedbackURI",
          "type": "string"
        },
        {
          "internalType": "bytes32",
          "name": "contentHash",
          "type": "bytes32"
        },
        {
          "internalType": "uint256",
          "name": "timestamp",
          "type": "uint256"
        }
      ],
      "stateMutability": "view",
      "type": "function"
    },
    {
      "inputs": [
        {
          "internalType": "uint256",
          "name": "",
          "type": "uint256"
        }
      ],
      "name": "agentFeedbackCount",
      "outputs": [
        {
          "internalType": "uint256",
          "name": "",
          "type": "uint256"
        }
      ],
      "stateMutability": "view",
      "type": "function"
    },
    {
      "inputs": [
        {
          "internalType": "uint256",
          "name": "",
          "type": "uint256"
        }
      ],
      "name": "agentTotalScore",
      "outputs": [
        {
          "internalType": "int256",
          "name": "",
          "type": "int256"
        }
      ],
      "stateMutability": "view",
      "type": "function"
    },
    {
      "inputs": [
        {
          "internalType": "uint256",
          "name": "_agentId",
          "type": "uint256"
        }
      ],
      "name": "getAllFeedback",
      "outputs": [
        {
          "components": [
            {
              "internalType": "address",
              "name": "reviewer",
              "type": "address"
            },
            {
              "internalType": "int128",
              "name": "score",
              "type": "int128"
            },
            {
              "internalType": "uint8",
              "name": "decimals",
              "type": "uint8"
            },
            {
              "internalType": "string",
              "name": "tags",
              "type": "string"
            },
            {
              "internalType": "string",
              "name": "feedbackURI",
              "type": "string"
            },
            {
              "internalType": "bytes32",
              "name": "contentHash",
              "type": "bytes32"
            },
            {
              "internalType": "uint256",
              "name": "timestamp",
              "type": "uint256"
            }
          ],
          "internalType": "struct ERC8004ReputationRegistry.Feedback[]",
          "name": "",
          "type": "tuple[]"
        }
      ],
      "stateMutability": "view",
      "type": "function"
    },
    {
      "inputs": [
        {
          "internalType": "uint256",
          "name": "_agentId",
          "type": "uint256"
        }
      ],
      "name": "getAverageScore",
      "outputs": [
        {
          "internalType": "int256",
          "name": "",
          "type": "int256"
        }
      ],
      "stateMutability": "view",
      "type": "function"
    },
    {
      "inputs": [
        {
          "internalType": "uint256",
          "name": "_agentId",
          "type": "uint256"
        },
        {
          "internalType": "uint256",
          "name": "_index",
          "type": "uint256"
        }
      ],
      "name": "getFeedback",
      "outputs": [
        {
          "components": [
            {
              "internalType": "address",
              "name": "reviewer",
              "type": "address"
            },
            {
              "internalType": "int128",
              "name": "score",
              "type": "int128"
            },
            {
              "internalType": "uint8",
              "name": "decimals",
              "type": "uint8"
            },
            {
              "internalType": "string",
              "name": "tags",
              "type": "string"
            },
            {
              "internalType": "string",
              "name": "feedbackURI",
              "type": "string"
            },
            {
              "internalType": "bytes32",
              "name": "contentHash",
              "type": "bytes32"
            },
            {
              "internalType": "uint256",
              "name": "timestamp",
              "type": "uint256"
            }
          ],
          "internalType": "struct ERC8004ReputationRegistry.Feedback",
          "name": "",
          "type": "tuple"
        }
      ],
      "stateMutability": "view",
      "type": "function"
    },
    {
      "inputs": [
        {
          "internalType": "uint256",
          "name": "_agentId",
          "type": "uint256"
        }
      ],
      "name": "getFeedbackCount",
      "outputs": [
        {
          "internalType": "uint256",
          "name": "",
          "type": "uint256"
        }
      ],
      "stateMutability": "view",
      "type": "function"
    },
    {
      "inputs": [
        {
          "internalType": "uint256",
          "name": "_agentId",
          "type": "uint256"
        },
        {
          "internalType": "int128",
          "name": "_score",
          "type": "int128"
        },
        {
          "internalType": "uint8",
          "name": "_decimals",
          "type": "uint8"
        },
        {
          "internalType": "string",
          "name": "_tags",
          "type": "string"
        },
        {
          "internalType": "string",
          "name": "_feedbackURI",
          "type": "string"
        },
        {
          "internalType": "bytes32",
          "name": "_contentHash",
          "type": "bytes32"
        }
      ],
      "name": "giveFeedback",
      "outputs": [],
      "stateMutability": "nonpayable",
      "type": "function"
    },
    {
      "inputs": [],
      "name": "identityRegistry",
      "outputs": [
        {
          "internalType": "contract IERC8004Identity",
          "name": "",
          "type": "address"
        }
      ],
      "stateMutability": "view",
      "type": "function"
    }
  ],
  "bytecode": "0x608034606f57601f610ca938819003918201601f19168301916001600160401b03831184841017607357808492602094604052833981010312606f57516001600160a01b03811690819003606f575f80546001600160a01b031916919091179055604051610c2190816100888239f35b5f80fd5b634e487b7160e01b5f52604160045260245ffdfe6080806040526004361015610012575f80fd5b5f3560e01c908163134e18f4146108c6575080632d150457146107fd57806330a6a1ff146107d357806336126d06146107225780633ffd4239146106405780634537b76414610616578063a41e58f314610616578063d8dc7661146100a95763de3a2b591461007f575f80fd5b346100a55760203660031901126100a557602061009d600435610baf565b604051908152f35b5f80fd5b346100a55760c03660031901126100a5576004356024359081600f0b8092036100a55760443560ff81168091036100a55760643567ffffffffffffffff81116100a5576100fa903690600401610ad0565b939060843567ffffffffffffffff81116100a55761011c903690600401610ad0565b906024602060018060a01b035f541660405192838092630af34d3160e31b82528b60048301525afa90811561060b575f916105d0575b5015610594575f841261055a576040519161016c836109f2565b338352602083019085825261019c604085019388855261018d368c89610b69565b92606087019384523691610b69565b906080850191825260a085019260a435845260c08601944286528a5f52600160205260405f20805468010000000000000000811015610475576101e49160018201815561098d565b9790976105475760018060a01b039051166bffffffffffffffffffffffff60a01b885416178755600187019151906fffffffffffffffffffffffffffffffff83549160ff60801b905160801b1692169070ffffffffffffffffffffffffffffffffff19161717905560028501905180519067ffffffffffffffff821161047557819061027084546109ba565b601f81116104f7575b50602090601f8311600114610494575f92610489575b50508160011b915f199060031b1c19161790555b518051600385019167ffffffffffffffff8211610475576102c483546109ba565b601f8111610430575b50602090601f83116001146103c857600595949392915f91836103bd575b50508160011b915f199060031b1c19161790555b51600484015551910155835f52600260205260405f2080545f1981146103a9576001019055835f52600360205260405f2090815493838501945f85871291129080158216911516176103a9577f842481add34dd10393b56cbce8f38758c82c6836148ed7f7330ed6f9319ca5919487935560405193845260208401526060604084015281606084015260808301375f608085830101526080813395601f80199101168101030190a3005b634e487b7160e01b5f52601160045260245ffd5b015190508c806102eb565b90601f19831691845f52815f20925f5b81811061041857509160019391856005999897969410610400575b505050811b0190556102ff565b01515f1960f88460031b161c191690558c80806103f3565b929360206001819287860151815501950193016103d8565b835f5260205f20601f840160051c8101916020851061046b575b601f0160051c01905b81811061046057506102cd565b5f8155600101610453565b909150819061044a565b634e487b7160e01b5f52604160045260245ffd5b015190508c8061028f565b5f8581528281209350601f198516905b8181106104df57509084600195949392106104c7575b505050811b0190556102a3565b01515f1960f88460031b161c191690558c80806104ba565b929360206001819287860151815501950193016104a4565b909150835f5260205f20601f840160051c8101916020851061053d575b90601f859493920160051c01905b81811061052f5750610279565b5f8155849350600101610522565b9091508190610514565b634e487b7160e01b5f525f60045260245ffd5b60405162461bcd60e51b8152602060048201526012602482015271053636f7265206d757374206265203e3d20360741b6044820152606490fd5b60405162461bcd60e51b81526020600482015260146024820152731059d95b9d081b9bdd081c9959da5cdd195c995960621b6044820152606490fd5b90506020813d602011610603575b816105eb60209383610a0e565b810103126100a5575180151581036100a55788610152565b3d91506105de565b6040513d5f823e3d90fd5b346100a55760203660031901126100a5576004355f526002602052602060405f2054604051908152f35b346100a55760203660031901126100a5576004355f52600160205260405f2080549067ffffffffffffffff8211610475576040519161068560208260051b0184610a0e565b8083526020830180925f5260205f205f915b83831061070457848660405191829160208301906020845251809152604083019060408160051b85010192915f905b8282106106d557505050500390f35b919360019193955060206106f48192603f198a82030186528851610922565b96019201920185949391926106c6565b6006602060019261071485610afe565b815201920192019190610697565b346100a557610730366108e8565b905f52600160205260405f209081548110156100a55761074f9161098d565b5060018060a01b0381541660018201549161076c60028201610a30565b6107c461077b60038401610a30565b6107b6600560048601549501549360ff604051988998895280600f0b60208a015260801c16604088015260e0606088015260e08701906108fe565b9085820360808701526108fe565b9160a084015260c08301520390f35b346100a55760203660031901126100a5576004355f526003602052602060405f2054604051908152f35b346100a55761080b366108e8565b5f60c060405161081a816109f2565b828152826020820152826040820152606080820152606060808201528260a08201520152815f52600160205260405f205481101561088b5761086d61087391610887935f52600160205260405f2061098d565b50610afe565b604051918291602083526020830190610922565b0390f35b60405162461bcd60e51b8152602060048201526013602482015272496e646578206f7574206f6620626f756e647360681b6044820152606490fd5b346100a5575f3660031901126100a5575f546001600160a01b03168152602090f35b60409060031901126100a5576004359060243590565b805180835260209291819084018484015e5f828201840152601f01601f1916010190565b9060018060a01b0382511681526020820151600f0b602082015260ff604083015116604082015260c08061097a610968606086015160e0606087015260e08601906108fe565b608086015185820360808701526108fe565b9360a081015160a0850152015191015290565b80548210156109a6575f52600660205f20910201905f90565b634e487b7160e01b5f52603260045260245ffd5b90600182811c921680156109e8575b60208310146109d457565b634e487b7160e01b5f52602260045260245ffd5b91607f16916109c9565b60e0810190811067ffffffffffffffff82111761047557604052565b90601f8019910116810190811067ffffffffffffffff82111761047557604052565b9060405191825f825492610a43846109ba565b8084529360018116908115610aae5750600114610a6a575b50610a6892500383610a0e565b565b90505f9291925260205f20905f915b818310610a92575050906020610a68928201015f610a5b565b6020919350806001915483858901015201910190918492610a79565b905060209250610a6894915060ff191682840152151560051b8201015f610a5b565b9181601f840112156100a55782359167ffffffffffffffff83116100a557602083818601950101116100a557565b90604051610b0b816109f2565b60c06005829460018060a01b03815416845260ff600182015480600f0b602087015260801c166040850152610b4260028201610a30565b6060850152610b5360038201610a30565b6080850152600481015460a08501520154910152565b92919267ffffffffffffffff82116104755760405191610b93601f8201601f191660200184610a0e565b8294818452818301116100a5578281602093845f960137010152565b805f52600260205260405f2054908115610be5575f90815260036020526040902054600160ff1b81145f198314166103a9570590565b50505f9056fea2646970667358221220a0c6527aebd656039492e5de4f45b01b36d7ca9fce78b93a458474f0801c1d2864736f6c634300081c0033",
  "linkReferences": {},
  "deployedLinkReferences": {}
}