{
  "_format": "hh-sol-artifact-1",
  "contractName": "PayAgentEscrow",
  "sourceName": "contracts/PayAgentEscrow.sol",
  "abi": [
    {
      "inputs": [
        {
          "internalType": "address",
          "name": "_usdc",
          "type": "address"
        },
        {
          "internalType": "address",
          "name": "_identityRegistry",
          "type": "address"
        },
        {
          "internalType": "address",
          "name": "_reputationRegistry",
          "type": "address"
        },
        {
          "internalType": "address",
          "name": "_treasury",
          "type": "address"
        },
        {
          "internalType": "address",
          "name": "_disputeResolver",
          "type": "address"
        }
      ],
      "stateMutability": "nonpayable",
      "type": "constructor"
    },
    {
      "inputs": [
        {
          "internalType": "address",
          "name": "owner",
          "type": "address"
        }
      ],
      "name": "OwnableInvalidOwner",
      "type": "error"
    },
    {
      "inputs": [
        {
          "internalType": "address",
          "name": "account",
          "type": "address"
        }
      ],
      "name": "OwnableUnauthorizedAccount",
      "type": "error"
    },
    {
      "inputs": [],
      "name": "ReentrancyGuardReentrantCall",
      "type": "error"
    },
    {
      "anonymous": false,
      "inputs": [
        {
          "indexed": true,
          "internalType": "uint256",
          "name": "escrowId",
          "type": "uint256"
        },
        {
          "indexed": true,
          "internalType": "uint256",
          "name": "agentId",
          "type": "uint256"
        },
        {
          "indexed": false,
          "internalType": "uint256",
          "name": "timestamp",
          "type": "uint256"
        }
      ],
      "name": "AgentStarted",
      "type": "event"
    },
    {
      "anonymous": false,
      "inputs": [
        {
          "indexed": true,
          "internalType": "uint256",
          "name": "escrowId",
          "type": "uint256"
        },
        {
          "indexed": false,
          "internalType": "string",
          "name": "deliveryURI",
          "type": "string"
        },
        {
          "indexed": false,
          "internalType": "uint256",
          "name": "timestamp",
          "type": "uint256"
        }
      ],
      "name": "DeliverySubmitted",
      "type": "event"
    },
    {
      "anonymous": false,
      "inputs": [
        {
          "indexed": true,
          "internalType": "uint256",
          "name": "escrowId",
          "type": "uint256"
        },
        {
          "indexed": true,
          "internalType": "address",
          "name": "by",
          "type": "address"
        },
        {
          "indexed": false,
          "internalType": "string",
          "name": "reason",
          "type": "string"
        }
      ],
      "name": "DisputeRaised",
      "type": "event"
    },
    {
      "anonymous": false,
      "inputs": [
        {
          "indexed": true,
          "internalType": "uint256",
          "name": "escrowId",
          "type": "uint256"
        },
        {
          "indexed": false,
          "internalType": "bool",
          "name": "userWins",
          "type": "bool"
        },
        {
          "indexed": false,
          "internalType": "uint256",
          "name": "refundAmount",
          "type": "uint256"
        }
      ],
      "name": "DisputeResolved",
      "type": "event"
    },
    {
      "anonymous": false,
      "inputs": [
        {
          "indexed": true,
          "internalType": "uint256",
          "name": "escrowId",
          "type": "uint256"
        },
        {
          "indexed": true,
          "internalType": "address",
          "name": "user",
          "type": "address"
        },
        {
          "indexed": true,
          "internalType": "uint256",
          "name": "agentId",
          "type": "uint256"
        },
        {
          "indexed": false,
          "internalType": "uint256",
          "name": "amount",
          "type": "uint256"
        },
        {
          "indexed": false,
          "internalType": "string",
          "name": "upiTransactionId",
          "type": "string"
        }
      ],
      "name": "EscrowCreated",
      "type": "event"
    },
    {
      "anonymous": false,
      "inputs": [
        {
          "indexed": true,
          "internalType": "uint256",
          "name": "escrowId",
          "type": "uint256"
        },
        {
          "indexed": true,
          "internalType": "uint256",
          "name": "agentId",
          "type": "uint256"
        },
        {
          "indexed": false,
          "internalType": "int128",
          "name": "score",
          "type": "int128"
        },
        {
          "indexed": false,
          "internalType": "string",
          "name": "tags",
          "type": "string"
        }
      ],
      "name": "FeedbackSubmitted",
      "type": "event"
    },
    {
      "anonymous": false,
      "inputs": [
        {
          "indexed": true,
          "internalType": "uint256",
          "name": "escrowId",
          "type": "uint256"
        },
        {
          "indexed": false,
          "internalType": "uint256",
          "name": "amount",
          "type": "uint256"
        },
        {
          "indexed": false,
          "internalType": "uint256",
          "name": "platformFee",
          "type": "uint256"
        }
      ],
      "name": "FundsEscrowed",
      "type": "event"
    },
    {
      "anonymous": false,
      "inputs": [
        {
          "indexed": true,
          "internalType": "address",
          "name": "previousOwner",
          "type": "address"
        },
        {
          "indexed": true,
          "internalType": "address",
          "name": "newOwner",
          "type": "address"
        }
      ],
      "name": "OwnershipTransferred",
      "type": "event"
    },
    {
      "anonymous": false,
      "inputs": [
        {
          "indexed": true,
          "internalType": "uint256",
          "name": "escrowId",
          "type": "uint256"
        },
        {
          "indexed": true,
          "internalType": "address",
          "name": "agentWallet",
          "type": "address"
        },
        {
          "indexed": false,
          "internalType": "uint256",
          "name": "agentAmount",
          "type": "uint256"
        },
        {
          "indexed": false,
          "internalType": "uint256",
          "name": "platformFee",
          "type": "uint256"
        }
      ],
      "name": "PaymentReleased",
      "type": "event"
    },
    {
      "anonymous": false,
      "inputs": [
        {
          "indexed": true,
          "internalType": "uint256",
          "name": "escrowId",
          "type": "uint256"
        },
        {
          "indexed": true,
          "internalType": "address",
          "name": "to",
          "type": "address"
        },
        {
          "indexed": false,
          "internalType": "uint256",
          "name": "amount",
          "type": "uint256"
        }
      ],
      "name": "RefundIssued",
      "type": "event"
    },
    {
      "inputs": [],
      "name": "DISPUTE_WINDOW",
      "outputs": [
        {
          "internalType": "uint256",
          "name": "",
          "type": "uint256"
        }
      ],
      "stateMutability": "view",
      "type": "function"
    },
    {
      "inputs": [],
      "name": "MAX_DEADLINE",
      "outputs": [
        {
          "internalType": "uint256",
          "name": "",
          "type": "uint256"
        }
      ],
      "stateMutability": "view",
      "type": "function"
    },
    {
      "inputs": [
        {
          "internalType": "uint256",
          "name": "",
          "type": "uint256"
        },
        {
          "internalType": "uint256",
          "name": "",
          "type": "uint256"
        }
      ],
      "name": "agentEscrows",
      "outputs": [
        {
          "internalType": "uint256",
          "name": "",
          "type": "uint256"
        }
      ],
      "stateMutability": "view",
      "type": "function"
    },
    {
      "inputs": [
        {
          "internalType": "address",
          "name": "",
          "type": "address"
        }
      ],
      "name": "authorizedPayAgents",
      "outputs": [
        {
          "internalType": "bool",
          "name": "",
          "type": "bool"
        }
      ],
      "stateMutability": "view",
      "type": "function"
    },
    {
      "inputs": [
        {
          "internalType": "uint256",
          "name": "_escrowId",
          "type": "uint256"
        }
      ],
      "name": "autoRefund",
      "outputs": [],
      "stateMutability": "nonpayable",
      "type": "function"
    },
    {
      "inputs": [
        {
          "internalType": "address",
          "name": "_user",
          "type": "address"
        },
        {
          "internalType": "uint256",
          "name": "_agentId",
          "type": "uint256"
        },
        {
          "internalType": "uint256",
          "name": "_amount",
          "type": "uint256"
        },
        {
          "internalType": "bytes32",
          "name": "_taskHash",
          "type": "bytes32"
        },
        {
          "internalType": "string",
          "name": "_taskURI",
          "type": "string"
        },
        {
          "internalType": "string",
          "name": "_upiTransactionId",
          "type": "string"
        },
        {
          "internalType": "uint256",
          "name": "_deadline",
          "type": "uint256"
        }
      ],
      "name": "createEscrow",
      "outputs": [
        {
          "internalType": "uint256",
          "name": "",
          "type": "uint256"
        }
      ],
      "stateMutability": "nonpayable",
      "type": "function"
    },
    {
      "inputs": [],
      "name": "disputeResolver",
      "outputs": [
        {
          "internalType": "address",
          "name": "",
          "type": "address"
        }
      ],
      "stateMutability": "view",
      "type": "function"
    },
    {
      "inputs": [
        {
          "internalType": "uint256",
          "name": "_escrowId",
          "type": "uint256"
        }
      ],
      "name": "escrowFunds",
      "outputs": [],
      "stateMutability": "nonpayable",
      "type": "function"
    },
    {
      "inputs": [
        {
          "internalType": "uint256",
          "name": "",
          "type": "uint256"
        }
      ],
      "name": "escrows",
      "outputs": [
        {
          "internalType": "uint256",
          "name": "id",
          "type": "uint256"
        },
        {
          "internalType": "address",
          "name": "user",
          "type": "address"
        },
        {
          "internalType": "uint256",
          "name": "agentId",
          "type": "uint256"
        },
        {
          "internalType": "address",
          "name": "agentWallet",
          "type": "address"
        },
        {
          "internalType": "uint256",
          "name": "amount",
          "type": "uint256"
        },
        {
          "internalType": "uint256",
          "name": "platformFee",
          "type": "uint256"
        },
        {
          "internalType": "uint256",
          "name": "agentAmount",
          "type": "uint256"
        },
        {
          "internalType": "bytes32",
          "name": "taskHash",
          "type": "bytes32"
        },
        {
          "internalType": "string",
          "name": "taskURI",
          "type": "string"
        },
        {
          "internalType": "uint256",
          "name": "createdAt",
          "type": "uint256"
        },
        {
          "internalType": "uint256",
          "name": "deadline",
          "type": "uint256"
        },
        {
          "internalType": "uint256",
          "name": "deliveredAt",
          "type": "uint256"
        },
        {
          "internalType": "enum PayAgentEscrow.EscrowStatus",
          "name": "status",
          "type": "uint8"
        },
        {
          "internalType": "string",
          "name": "upiTransactionId",
          "type": "string"
        },
        {
          "internalType": "string",
          "name": "deliveryURI",
          "type": "string"
        },
        {
          "internalType": "bool",
          "name": "userConfirmed",
          "type": "bool"
        },
        {
          "internalType": "bool",
          "name": "agentConfirmed",
          "type": "bool"
        }
      ],
      "stateMutability": "view",
      "type": "function"
    },
    {
      "inputs": [
        {
          "internalType": "uint256",
          "name": "_agentId",
          "type": "uint256"
        }
      ],
      "name": "getAgentEscrows",
      "outputs": [
        {
          "internalType": "uint256[]",
          "name": "",
          "type": "uint256[]"
        }
      ],
      "stateMutability": "view",
      "type": "function"
    },
    {
      "inputs": [
        {
          "internalType": "uint256",
          "name": "_escrowId",
          "type": "uint256"
        }
      ],
      "name": "getEscrow",
      "outputs": [
        {
          "components": [
            {
              "internalType": "uint256",
              "name": "id",
              "type": "uint256"
            },
            {
              "internalType": "address",
              "name": "user",
              "type": "address"
            },
            {
              "internalType": "uint256",
              "name": "agentId",
              "type": "uint256"
            },
            {
              "internalType": "address",
              "name": "agentWallet",
              "type": "address"
            },
            {
              "internalType": "uint256",
              "name": "amount",
              "type": "uint256"
            },
            {
              "internalType": "uint256",
              "name": "platformFee",
              "type": "uint256"
            },
            {
              "internalType": "uint256",
              "name": "agentAmount",
              "type": "uint256"
            },
            {
              "internalType": "bytes32",
              "name": "taskHash",
              "type": "bytes32"
            },
            {
              "internalType": "string",
              "name": "taskURI",
              "type": "string"
            },
            {
              "internalType": "uint256",
              "name": "createdAt",
              "type": "uint256"
            },
            {
              "internalType": "uint256",
              "name": "deadline",
              "type": "uint256"
            },
            {
              "internalType": "uint256",
              "name": "deliveredAt",
              "type": "uint256"
            },
            {
              "internalType": "enum PayAgentEscrow.EscrowStatus",
              "name": "status",
              "type": "uint8"
            },
            {
              "internalType": "string",
              "name": "upiTransactionId",
              "type": "string"
            },
            {
              "internalType": "string",
              "name": "deliveryURI",
              "type": "string"
            },
            {
              "internalType": "bool",
              "name": "userConfirmed",
              "type": "bool"
            },
            {
              "internalType": "bool",
              "name": "agentConfirmed",
              "type": "bool"
            }
          ],
          "internalType": "struct PayAgentEscrow.Escrow",
          "name": "",
          "type": "tuple"
        }
      ],
      "stateMutability": "view",
      "type": "function"
    },
    {
      "inputs": [
        {
          "internalType": "string",
          "name": "_upiId",
          "type": "string"
        }
      ],
      "name": "getEscrowIdByUpi",
      "outputs": [
        {
          "internalType": "uint256",
          "name": "",
          "type": "uint256"
        }
      ],
      "stateMutability": "view",
      "type": "function"
    },
    {
      "inputs": [],
      "name": "getTotalEscrows",
      "outputs": [
        {
          "internalType": "uint256",
          "name": "",
          "type": "uint256"
        }
      ],
      "stateMutability": "view",
      "type": "function"
    },
    {
      "inputs": [
        {
          "internalType": "address",
          "name": "_user",
          "type": "address"
        }
      ],
      "name": "getUserEscrows",
      "outputs": [
        {
          "internalType": "uint256[]",
          "name": "",
          "type": "uint256[]"
        }
      ],
      "stateMutability": "view",
      "type": "function"
    },
    {
      "inputs": [],
      "name": "identityRegistry",
      "outputs": [
        {
          "internalType": "contract IERC8004Identity",
          "name": "",
          "type": "address"
        }
      ],
      "stateMutability": "view",
      "type": "function"
    },
    {
      "inputs": [],
      "name": "owner",
      "outputs": [
        {
          "internalType": "address",
          "name": "",
          "type": "address"
        }
      ],
      "stateMutability": "view",
      "type": "function"
    },
    {
      "inputs": [],
      "name": "payAgentTreasury",
      "outputs": [
        {
          "internalType": "address",
          "name": "",
          "type": "address"
        }
      ],
      "stateMutability": "view",
      "type": "function"
    },
    {
      "inputs": [],
      "name": "platformFeeBps",
      "outputs": [
        {
          "internalType": "uint256",
          "name": "",
          "type": "uint256"
        }
      ],
      "stateMutability": "view",
      "type": "function"
    },
    {
      "inputs": [
        {
          "internalType": "uint256",
          "name": "_escrowId",
          "type": "uint256"
        },
        {
          "internalType": "string",
          "name": "_reason",
          "type": "string"
        }
      ],
      "name": "raiseDispute",
      "outputs": [],
      "stateMutability": "nonpayable",
      "type": "function"
    },
    {
      "inputs": [
        {
          "internalType": "uint256",
          "name": "_escrowId",
          "type": "uint256"
        }
      ],
      "name": "releasePayment",
      "outputs": [],
      "stateMutability": "nonpayable",
      "type": "function"
    },
    {
      "inputs": [],
      "name": "renounceOwnership",
      "outputs": [],
      "stateMutability": "nonpayable",
      "type": "function"
    },
    {
      "inputs": [],
      "name": "reputationRegistry",
      "outputs": [
        {
          "internalType": "contract IERC8004Reputation",
          "name": "",
          "type": "address"
        }
      ],
      "stateMutability": "view",
      "type": "function"
    },
    {
      "inputs": [
        {
          "internalType": "uint256",
          "name": "_escrowId",
          "type": "uint256"
        },
        {
          "internalType": "bool",
          "name": "_userWins",
          "type": "bool"
        },
        {
          "internalType": "uint256",
          "name": "_refundAmount",
          "type": "uint256"
        }
      ],
      "name": "resolveDispute",
      "outputs": [],
      "stateMutability": "nonpayable",
      "type": "function"
    },
    {
      "inputs": [
        {
          "internalType": "address",
          "name": "_agent",
          "type": "address"
        },
        {
          "internalType": "bool",
          "name": "_status",
          "type": "bool"
        }
      ],
      "name": "setAuthorizedPayAgent",
      "outputs": [],
      "stateMutability": "nonpayable",
      "type": "function"
    },
    {
      "inputs": [
        {
          "internalType": "uint256",
          "name": "_feeBps",
          "type": "uint256"
        }
      ],
      "name": "setPlatformFee",
      "outputs": [],
      "stateMutability": "nonpayable",
      "type": "function"
    },
    {
      "inputs": [
        {
          "internalType": "uint256",
          "name": "_escrowId",
          "type": "uint256"
        }
      ],
      "name": "startWork",
      "outputs": [],
      "stateMutability": "nonpayable",
      "type": "function"
    },
    {
      "inputs": [
        {
          "internalType": "uint256",
          "name": "_escrowId",
          "type": "uint256"
        },
        {
          "internalType": "string",
          "name": "_deliveryURI",
          "type": "string"
        }
      ],
      "name": "submitDelivery",
      "outputs": [],
      "stateMutability": "nonpayable",
      "type": "function"
    },
    {
      "inputs": [
        {
          "internalType": "uint256",
          "name": "_escrowId",
          "type": "uint256"
        },
        {
          "internalType": "int128",
          "name": "_score",
          "type": "int128"
        },
        {
          "internalType": "uint8",
          "name": "_decimals",
          "type": "uint8"
        },
        {
          "internalType": "string",
          "name": "_tags",
          "type": "string"
        },
        {
          "internalType": "string",
          "name": "_feedbackURI",
          "type": "string"
        }
      ],
      "name": "submitFeedback",
      "outputs": [],
      "stateMutability": "nonpayable",
      "type": "function"
    },
    {
      "inputs": [
        {
          "internalType": "address",
          "name": "newOwner",
          "type": "address"
        }
      ],
      "name": "transferOwnership",
      "outputs": [],
      "stateMutability": "nonpayable",
      "type": "function"
    },
    {
      "inputs": [
        {
          "internalType": "string",
          "name": "",
          "type": "string"
        }
      ],
      "name": "upiToEscrow",
      "outputs": [
        {
          "internalType": "uint256",
          "name": "",
          "type": "uint256"
        }
      ],
      "stateMutability": "view",
      "type": "function"
    },
    {
      "inputs": [],
      "name": "usdc",
      "outputs": [
        {
          "internalType": "contract IERC20",
          "name": "",
          "type": "address"
        }
      ],
      "stateMutability": "view",
      "type": "function"
    },
    {
      "inputs": [
        {
          "internalType": "address",
          "name": "",
          "type": "address"
        },
        {
          "internalType": "uint256",
          "name": "",
          "type": "uint256"
        }
      ],
      "name": "userEscrows",
      "outputs": [
        {
          "internalType": "uint256",
          "name": "",
          "type": "uint256"
        }
      ],
      "stateMutability": "view",
      "type": "function"
    }
  ],
  "bytecode": "0x60e0346101b757601f612e5c38819003918201601f19168301916001600160401b038311848410176101bb5780849260a0946040528339810103126101b757610047816101cf565b90610054602082016101cf565b90610061604082016101cf565b6100796080610072606085016101cf565b93016101cf565b9260017f9b779b17422d0df92223018b32b4d1fa46e071723d6817e2486d003becc55f005533156101a4575f8054336001600160a01b0319821681178355604051979290916001600160a01b0316907f8be0079c531659141344cd1fd0a4f28419497f9722a3daafe3b4186f6b6457e09080a360fa6003556001600160a01b0390811660805290811660a05290811660c052600180546001600160a01b0319908116938316938417825560028054909116949092169390931790555f908152600960205260409020805460ff19169091179055612c7890816101e4823960805181818161032e0152818161057d015281816114b901528181611f350152818161200e01526122a9015260a051818181610b9a0152612164015260c05181818161079001526108970152f35b631e4fbdf760e01b5f525f60045260245ffd5b5f80fd5b634e487b7160e01b5f52604160045260245ffd5b51906001600160a01b03821682036101b75756fe60a0806040526004361015610012575f80fd5b5f905f3560e01c908163010586d71461266557508063012f52ee146124e957806303a250f91461240a57806304348d48146123a65780630993cdbe146121f057806312e8e2c314612193578063134e18f41461214f57806322dcd13e1461213257806334013c4014611f645780633e413bee14611f205780633f4dbda214611f035780634292338c14611eb05780635aef573c14611d3d5780635ccea85e14611cbb578063618d1d4a14611a645780636f0e530f14611a47578063715018a6146119f05780637a7bc1ce1461199f5780637d19e596146117065780637f944dd0146116bd57806388685cd9146113fe5780638da5cb5b146113d7578063a0043db914610ace578063b528bb1514610a68578063c158bc3d14610a22578063c4704fd3146107bf578063c8db44e31461077a578063e6e946c214610276578063ec340c261461024d578063f2fde38b146101c7578063f585dc57146101a95763f5a3f4af1461017e575f80fd5b346101a657806003193601126101a6576002546040516001600160a01b039091168152602090f35b80fd5b50346101a657806003193601126101a65760206040516203f4808152f35b50346101a65760203660031901126101a6576101e161269e565b6101e9612bfc565b6001600160a01b031680156102395781546001600160a01b03198116821783556001600160a01b03167f8be0079c531659141344cd1fd0a4f28419497f9722a3daafe3b4186f6b6457e08380a380f35b631e4fbdf760e01b82526004829052602482fd5b50346101a657806003193601126101a6576001546040516001600160a01b039091168152602090f35b50346101a65760603660031901126101a657600435610293612833565b600254604435906001600160a01b0316330361073e5782151580610732575b6102bb90612910565b8083855260056020526040852090600c820160ff815416600881101561071e576005036106ea57841561053d57805460ff1916600617905515610531575b60048101805483116104fa5760015460405163a9059cbb60e01b81526001600160a01b039182166004820152602481018590527f000000000000000000000000000000000000000000000000000000000000000090911691906020816044818b875af180156104ef576103739189916104d0575b506129da565b548084106103ea575b5050507f5add0b1fc2a3dfd95be33d1d5feb6709087e50213b7a73c3c3b2c387001221e79160409160018060a01b0360015416857f7a482fdeb6bc9a1376f597068a214a7a39472bb2eff1b8cad21ba04f49ddca1b60208651858152a35b825191151582526020820152a280f35b6103f78461040292612b7e565b600584015490612b7e565b91821561037c576003015460405163a9059cbb60e01b81526001600160a01b03909116600482015260248101929092526020908290604490829089905af19081156104c5578591610496575b501561045c575f808061037c565b60405162461bcd60e51b81526020600482015260126024820152711059d95b9d081cda185c994819985a5b195960721b6044820152606490fd5b6104b8915060203d6020116104be575b6104b08183612708565b8101906129c2565b5f61044e565b503d6104a6565b6040513d87823e3d90fd5b6104e9915060203d6020116104be576104b08183612708565b5f61036d565b6040513d8a823e3d90fd5b60405162461bcd60e51b815260206004820152600f60248201526e0a4cacceadcc840e8dede40d0d2ced608b1b6044820152606490fd5b600481015491506102f9565b805460ff1916600490811790915560038301805460068501805460405163a9059cbb60e01b81526001600160a01b039384169581019590955260248501527f00000000000000000000000000000000000000000000000000000000000000009091169691959194919350918891602082604481868c5af19081156106df576105d26020926106129486916106c2575b50612af9565b600154600591909101805460405163a9059cbb60e01b81526001600160a01b03909316600484015260248301529890928391908290869082906044820190565b03925af19081156106b7577f5add0b1fc2a3dfd95be33d1d5feb6709087e50213b7a73c3c3b2c387001221e7976040976106777f8cdc8dc08e54a4e57f52077ecf1b4c508758513439cae2aa325dcc85b922fca8948a948d9791610698575b50612b3c565b5494549054825191825260208201526001600160a01b0390941693a36103da565b6106b1915060203d6020116104be576104b08183612708565b5f610671565b6040513d84823e3d90fd5b6106d99150843d86116104be576104b08183612708565b5f6105cc565b6040513d85823e3d90fd5b60405162461bcd60e51b815260206004820152600c60248201526b139bdd08191a5cdc1d5d195960a21b6044820152606490fd5b634e487b7160e01b88526021600452602488fd5b506004548311156102b2565b60405162461bcd60e51b81526020600482015260146024820152732737ba103234b9b83aba32903932b9b7b63b32b960611b6044820152606490fd5b50346101a657806003193601126101a6576040517f00000000000000000000000000000000000000000000000000000000000000006001600160a01b03168152602090f35b50346109bf5760a03660031901126109bf576004356024359081600f0b8092036109bf576044359160ff83168093036109bf576064356001600160401b0381116109bf57610811903690600401612842565b9190936084356001600160401b0381116109bf57610833903690600401612842565b85151580610a16575b61084590612910565b855f52600560205260405f209261086960018060a01b036001860154163314612a53565b60ff600c850154166008811015610a0257600481149081156109f7575b50156109c357600260018060a01b037f000000000000000000000000000000000000000000000000000000000000000016940193845492813b156109bf575f80946109188a978a946109068f6040519b8c9a8b998a9863d8dc766160e01b8a5260048a01526024890152604488015260c0606488015260c4870191612a8a565b84810360031901608486015291612a8a565b8260a483015203925af180156109b457610976575b50906109707fa5ccc2fc6ee90577472f2dadae332a7567af704ed9f01c290699d77f9c1ec3e3939254956040519384938452604060208501526040840191612a8a565b0390a380f35b7fa5ccc2fc6ee90577472f2dadae332a7567af704ed9f01c290699d77f9c1ec3e393929196505f6109a691612708565b6109705f969192935061092d565b6040513d5f823e3d90fd5b5f80fd5b60405162461bcd60e51b815260206004820152600c60248201526b139bdd08199a5b9a5cda195960a21b6044820152606490fd5b60069150145f610886565b634e487b7160e01b5f52602160045260245ffd5b5060045486111561083c565b346109bf5760403660031901126109bf576024356004355f52600760205260405f2080548210156109bf57602091610a59916128a2565b90549060031b1c604051908152f35b346109bf5760203660031901126109bf576004356001600160401b0381116109bf57366023820112156109bf57602080610aad819336906024816004013591016128cb565b604051928184925191829101835e8101600881520301902054604051908152f35b346109bf5760e03660031901126109bf57610ae761269e565b6084356001600160401b0381116109bf57610b06903690600401612842565b9160a4356001600160401b0381116109bf57610b26903690600401612842565b60c435335f526009602052610b4160ff60405f205416612a16565b6001600160a01b038416156113a3576044351561136957811561133257604051828482376020818481016008815203019020546112f75762093a8081116112be57604051630af34d3160e31b81526024803560048301527f00000000000000000000000000000000000000000000000000000000000000006001600160a01b03169190602090829081855afa9081156109b4575f9161129f575b5015611263576040516382afd23b60e01b81526024356004820152602081602481855afa9081156109b4575f91611244575b501561120c576020602491604051928380926233950960e01b8252823560048301525afa9081156109b4575f916111ca575b506001600160a01b031695861561118f57600454955f19871461117b57600187016004556003549182604435029260443584040361117b57610c876127108404604435612b7e565b9342019384421161117b57612710610cea946040519b610ca68d6126ec565b60018c018d526001600160a01b038b1660208e015260243560408e015260608d015260443560808d01520460a08b015260c08a015260643560e08a015236916128cb565b610100870152426101208701526101408601525f6101608601525f610180860152610d163682846128cb565b6101a0860152602094604051610d2c8782612708565b5f8082526101c08301919091526101e08201819052610200820181905260018681018252600580895260409283902084518155602085015192810180546001600160a01b039485166001600160a01b0319918216179091559385015160028201556060850151600382018054919094169416939093179091556080830151600483015560a08301519082015560c0820151600682015560e08201516007820155610100820151805160088301916001600160401b03821161109657610dfb82610df585546126b4565b85612aaa565b8990601f831160011461111857610e2992915f91836110aa575b50508160011b915f199060031b1c19161790565b90555b6101208201516009820155610140820151600a820155610160820151600b820155600c81016101808301516008811015610a025760ff80198354169116179055600d81016101a08301518051906001600160401b03821161109657610e9582610df585546126b4565b8990601f83116001146110b557610ec292915f91836110aa5750508160011b915f199060031b1c19161790565b90555b6101c08201518051906001600160401b03821161109657610ef682610eed600e8601546126b4565b600e8601612aaa565b8890601f83116001146110255782600f936102009593610f2a935f9261101a5750508160011b915f199060031b1c19161790565b600e8201555b0191610f4f6101e08201511515849060ff801983541691151516179055565b0151815461ff00191690151560081b61ff00161790556001600160a01b0383165f9081526006865260409020610f89906001860190612b8b565b6024355f5260078552610fa26001850160405f20612b8b565b6040518183823781810190600882528681600188019303019020557f3b9e55f0c57efee0e9b680065a19cbec3530fdfcf4b19bfa01e8d984d257408d60405160443581526040878201528061100c6024359660018060a01b03169560018901956040840191612a8a565b0390a4600160405191018152f35b015190508c80610e15565b90600e84015f52895f20915f5b8b601f1986168210611080575050926102009492600192600f9583601f19811610611068575b505050811b01600e820155610f30565b01515f1960f88460031b161c191690558b8080611058565b6001849582939585015181550194019201611032565b634e487b7160e01b5f52604160045260245ffd5b015190508b80610e15565b90601f19831691845f528b5f20925f5b8d8282106111025750509084600195949392106110ea575b505050811b019055610ec5565b01515f1960f88460031b161c191690558a80806110dd565b60018596829396860151815501950193016110c5565b90601f19831691845f528b5f20925f5b8d82821061116557505090846001959493921061114d575b505050811b019055610e2c565b01515f1960f88460031b161c191690558a8080611140565b6001859682939686015181550195019301611128565b634e487b7160e01b5f52601160045260245ffd5b60405162461bcd60e51b81526020600482015260136024820152721059d95b9d081a185cc81b9bc81dd85b1b195d606a1b6044820152606490fd5b90506020813d602011611204575b816111e560209383612708565b810103126109bf57516001600160a01b03811681036109bf5787610c3f565b3d91506111d8565b60405162461bcd60e51b815260206004820152601060248201526f4167656e74206e6f742061637469766560801b6044820152606490fd5b61125d915060203d6020116104be576104b08183612708565b88610c0d565b60405162461bcd60e51b81526020600482015260146024820152731059d95b9d081b9bdd081c9959da5cdd195c995960621b6044820152606490fd5b6112b8915060203d6020116104be576104b08183612708565b88610bdb565b60405162461bcd60e51b8152602060048201526011602482015270446561646c696e6520746f6f206c6f6e6760781b6044820152606490fd5b60405162461bcd60e51b815260206004820152601360248201527215541248125108185b1c9958591e481d5cd959606a1b6044820152606490fd5b60405162461bcd60e51b815260206004820152600f60248201526e155412481251081c995c5d5a5c9959608a1b6044820152606490fd5b60405162461bcd60e51b81526020600482015260126024820152710416d6f756e74206d757374206265203e20360741b6044820152606490fd5b60405162461bcd60e51b815260206004820152600c60248201526b24b73b30b634b2103ab9b2b960a11b6044820152606490fd5b346109bf575f3660031901126109bf575f546040516001600160a01b039091168152602090f35b346109bf5760203660031901126109bf5760043561141a612bc4565b801515806116b1575b61142c90612910565b805f52600560205260405f2090600c820160ff8154166008811015610a025760030361167c576001830154336001600160a01b03909116036115ed57600f8301805460ff191660011790555b805460ff1916600490811790915560038301805460068501805460405163a9059cbb60e01b81526001600160a01b03938416958101959095526024850152947f0000000000000000000000000000000000000000000000000000000000000000909116906020846044815f865af19081156109b457611503602092611543965f916115d05750612af9565b600154600591909101805460405163a9059cbb60e01b81526001600160a01b039093166004840152602483015290949092859182905f9082906044820190565b03925af19182156109b4576115826040937f8cdc8dc08e54a4e57f52077ecf1b4c508758513439cae2aa325dcc85b922fca8955f916115b15750612b3c565b5494549054825191825260208201526001600160a01b0390941693a360015f516020612c235f395f51905f5255005b6115ca915060203d6020116104be576104b08183612708565b88610671565b6115e79150843d86116104be576104b08183612708565b896105cc565b60038301546001600160a01b031633148015611664575b61160d90612a16565b600b83015462015180810180911161117b574210156114785760405162461bcd60e51b8152602060048201526016602482015275082eae8de5ac6dedcccd2e4da40c2cce8cae4406468d60531b6044820152606490fd5b50335f9081526009602052604090205460ff16611604565b60405162461bcd60e51b815260206004820152600d60248201526c139bdd0819195b1a5d995c9959609a1b6044820152606490fd5b50600454811115611423565b346109bf5760403660031901126109bf576116d661269e565b6001600160a01b03165f908152600660205260409020805460243591908210156109bf57602091610a59916128a2565b346109bf5760203660031901126109bf575f610200604051611727816126ec565b8281528260208201528260408201528260608201528260808201528260a08201528260c08201528260e082015260606101008201528261012082015282610140820152826101608201528261018082015260606101a082015260606101c0820152826101e082015201526004355f52600560205260405f20604051906117ac826126ec565b8054825260018101546001600160a01b03908116602084015260028201546040840152600382015416606083015260048101546080830152600581015460a0830152600681015460c0830152600781015460e083015261180e60088201612729565b6101008301526009810154610120830152600a810154610140830152600b81015461016083015260ff600c820154166008811015610a025760ff91600f9161018085015261185e600d8201612729565b6101a0850152611870600e8201612729565b6101c0850152015481811615156101e084015260081c1615156102008201526040518091602082528051602083015260018060a01b0360208201511660408301526040810151606083015260018060a01b036060820151166080830152608081015160a083015260a081015160c083015260c081015160e083015260e081015161010083015261020061198461196c61191c6101008501516102206101208801526102408701906127c9565b6101208501516101408701526101408501516101608701526101608501516101808701526119546101808601516101a08801906127ed565b6101a0850151868203601f19016101c08801526127c9565b6101c0840151858203601f19016101e08701526127c9565b916101e0810151151582850152015115156102208301520390f35b346109bf5760203660031901126109bf576004356001600160401b0381116109bf5760206119d281923690600401612842565b91908260405193849283378101600881520301902054604051908152f35b346109bf575f3660031901126109bf57611a08612bfc565b5f80546001600160a01b0319811682556001600160a01b03167f8be0079c531659141344cd1fd0a4f28419497f9722a3daafe3b4186f6b6457e08280a3005b346109bf575f3660031901126109bf57602060405162093a808152f35b346109bf57611a723661286f565b919081151580611caf575b611a8690612910565b815f52600560205260405f2092611aaa60018060a01b03600386015416331461294d565b600c840160ff8154166008811015610a0257806002611ad29214908115611ca4575b50612985565b600a8501544211611c6f578115611c3257600e8501946001600160401b03831161109657611b0a83611b0488546126b4565b88612aaa565b5f95601f8411600114611bab5790600f91611b5d85807ff2ef0c3b0b6472c1ab32d407336331b0a8f8521e3328e05f63c8835a9c8686cd999a5f91611ba0575b508160011b915f199060031b1c19161790565b90555b42600b82015501805461ff001916610100179055805460ff1916600317905560408051818152928392611b9592840191612a8a565b4260208301520390a2005b90508801358b611b4a565b601f198416815f5260205f20905f5b818110611c1a5750907ff2ef0c3b0b6472c1ab32d407336331b0a8f8521e3328e05f63c8835a9c8686cd979886600f95949310611c01575b5050600185811b019055611b60565b8701355f19600388901b60f8161c191690558880611bf2565b878a013583556020998a019960019093019201611bba565b60405162461bcd60e51b815260206004820152601560248201527411195b1a5d995c9e48155492481c995c5d5a5c9959605a1b6044820152606490fd5b60405162461bcd60e51b815260206004820152600d60248201526c5061737420646561646c696e6560981b6044820152606490fd5b600191501487611acc565b50600454821115611a7d565b346109bf5760203660031901126109bf576001600160a01b03611cdc61269e565b165f52600660205260405f206040519081602082549182815201915f5260205f20905f5b818110611d2757611d2385611d1781870382612708565b604051918291826127fa565b0390f35b8254845260209093019260019283019201611d00565b346109bf57611d4b3661286f565b919081151580611ea4575b611d5f90612910565b815f52600560205260405f20611d8260018060a01b036001830154163314612a53565b600c81019060ff82541660088110159081610a025760038114918215611e97575b8215611e86575b505015611e5057600a01546203f480810180911161117b574211611e1357805460ff19166005179055604051602080825233947f1b84372106d77c6daea0dda35bbc0229d10a83f58ec899092884925193682341938392611e0e9290840191612a8a565b0390a3005b60405162461bcd60e51b8152602060048201526015602482015274111a5cdc1d5d19481dda5b991bddc818db1bdcd959605a1b6044820152606490fd5b60405162461bcd60e51b815260206004820152600e60248201526d43616e6e6f74206469737075746560901b6044820152606490fd5b909150610a02576001148680611daa565b506002811491505f611da3565b50600454821115611d56565b346109bf5760403660031901126109bf57611f01611ecc61269e565b611ed4612833565b90611edd612bfc565b60018060a01b03165f52600960205260405f209060ff801983541691151516179055565b005b346109bf575f3660031901126109bf576020600454604051908152f35b346109bf575f3660031901126109bf576040517f00000000000000000000000000000000000000000000000000000000000000006001600160a01b03168152602090f35b346109bf5760203660031901126109bf57600435611f80612bc4565b335f526009602052611f9860ff60405f205416612a16565b80151580612126575b611faa90612910565b805f52600560205260405f20600c81019060ff8254166008811015610a02576120f3576004810190815460018060a01b036001541690604051916323b872dd60e01b8352600483015230602483015260448201526020816064815f60018060a01b037f0000000000000000000000000000000000000000000000000000000000000000165af19081156109b4575f916120d4575b50156120985760056040927ff5f2d2987d4c4c11bddfb7593b16a06a860c31d9ae61dd74a8250964dd6f77c394600160ff198254161790555491015482519182526020820152a260015f516020612c235f395f51905f5255005b60405162461bcd60e51b81526020600482015260146024820152731554d110c81d1c985b9cd9995c8819985a5b195960621b6044820152606490fd5b6120ed915060203d6020116104be576104b08183612708565b8561203e565b60405162461bcd60e51b815260206004820152600b60248201526a4e6f742070656e64696e6760a81b6044820152606490fd5b50600454811115611fa1565b346109bf575f3660031901126109bf576020600354604051908152f35b346109bf575f3660031901126109bf576040517f00000000000000000000000000000000000000000000000000000000000000006001600160a01b03168152602090f35b346109bf5760203660031901126109bf576004356121af612bfc565b6103e881116121bd57600355005b60405162461bcd60e51b815260206004820152600b60248201526a466565206d61782031302560a81b6044820152606490fd5b346109bf5760203660031901126109bf5760043561220c612bc4565b8015158061239a575b61221e90612910565b805f52600560205260405f20600c81019060ff8254166008811015610a0257806001612252921490811561238f5750612985565b600a81015442111561235457815460ff191660061790915560049081015460015460405163a9059cbb60e01b81526001600160a01b039190911692810192909252602482018190529190602081806044810103815f7f00000000000000000000000000000000000000000000000000000000000000006001600160a01b03165af180156109b4576122e9915f9161233557506129da565b6001546040519283526001600160a01b0316917f7a482fdeb6bc9a1376f597068a214a7a39472bb2eff1b8cad21ba04f49ddca1b90602090a360015f516020612c235f395f51905f5255005b61234e915060203d6020116104be576104b08183612708565b8461036d565b60405162461bcd60e51b8152602060048201526013602482015272111958591b1a5b99481b9bdd081c185cdcd959606a1b6044820152606490fd5b600291501485611acc565b50600454811115612215565b346109bf5760203660031901126109bf576004355f52600760205260405f206040519081602082549182815201915f5260205f20905f5b8181106123f457611d2385611d1781870382612708565b82548452602090930192600192830192016123dd565b346109bf5760203660031901126109bf57600435801515806124dd575b61243090612910565b805f52600560205260405f2061245360018060a01b03600383015416331461294d565b600c81019060ff8254166008811015610a02576001036124a9576002918260ff198254161790550154907ffaa1a93f143bbd33c074dc529145f5f8d5bb8bce1b67992ad0a181c8a83419926020604051428152a3005b60405162461bcd60e51b815260206004820152600c60248201526b139bdd08195cd8dc9bddd95960a21b6044820152606490fd5b50600454811115612427565b346109bf5760203660031901126109bf576004355f52600560205260405f2080549080600160a01b60019003600182015416600282015490600160a01b6001900360038401541691600484015492600585015460068601546007870154906008880161255490612729565b92600989015497600a8a015495600b8b015497600c8c015460ff1699600d8d0161257d90612729565b9c600e0161258a90612729565b9d600f01549e604051608052608051526080516020015260805160400152608051606001526080516080015260805160a0015260805160c0015260805160e00152608051610100016102209052608051610220016125e7916127c9565b9360805161012001526080516101400152608051610160015260805161018001612610916127ed565b60805181036080516101a00152612626916127c9565b60805181036080516101c0015261263c916127c9565b9060ff811615156080516101e0015260081c60ff16151560805161020001526080519003608051f35b346109bf5760203660031901126109bf576020906001600160a01b0361268961269e565b165f526009825260ff60405f20541615158152f35b600435906001600160a01b03821682036109bf57565b90600182811c921680156126e2575b60208310146126ce57565b634e487b7160e01b5f52602260045260245ffd5b91607f16916126c3565b61022081019081106001600160401b0382111761109657604052565b90601f801991011681019081106001600160401b0382111761109657604052565b9060405191825f82549261273c846126b4565b80845293600181169081156127a75750600114612763575b5061276192500383612708565b565b90505f9291925260205f20905f915b81831061278b575050906020612761928201015f612754565b6020919350806001915483858901015201910190918492612772565b90506020925061276194915060ff191682840152151560051b8201015f612754565b805180835260209291819084018484015e5f828201840152601f01601f1916010190565b906008821015610a025752565b60206040818301928281528451809452019201905f5b81811061281d5750505090565b8251845260209384019390920191600101612810565b6024359081151582036109bf57565b9181601f840112156109bf578235916001600160401b0383116109bf57602083818601950101116109bf57565b9060406003198301126109bf5760043591602435906001600160401b0382116109bf5761289e91600401612842565b9091565b80548210156128b7575f5260205f2001905f90565b634e487b7160e01b5f52603260045260245ffd5b9291926001600160401b03821161109657604051916128f4601f8201601f191660200184612708565b8294818452818301116109bf578281602093845f960137010152565b1561291757565b60405162461bcd60e51b815260206004820152600e60248201526d496e76616c696420657363726f7760901b6044820152606490fd5b1561295457565b60405162461bcd60e51b8152602060048201526009602482015268139bdd081859d95b9d60ba1b6044820152606490fd5b1561298c57565b60405162461bcd60e51b815260206004820152600e60248201526d496e76616c69642073746174757360901b6044820152606490fd5b908160209103126109bf575180151581036109bf5790565b156129e157565b60405162461bcd60e51b815260206004820152600d60248201526c1499599d5b990819985a5b1959609a1b6044820152606490fd5b15612a1d57565b60405162461bcd60e51b815260206004820152600e60248201526d139bdd08185d5d1a1bdc9a5e995960921b6044820152606490fd5b15612a5a57565b60405162461bcd60e51b81526020600482015260086024820152672737ba103ab9b2b960c11b6044820152606490fd5b908060209392818452848401375f828201840152601f01601f1916010190565b601f8211612ab757505050565b5f5260205f20906020601f840160051c83019310612aef575b601f0160051c01905b818110612ae4575050565b5f8155600101612ad9565b9091508190612ad0565b15612b0057565b60405162461bcd60e51b81526020600482015260146024820152731059d95b9d081c185e5b595b9d0819985a5b195960621b6044820152606490fd5b15612b4357565b60405162461bcd60e51b8152602060048201526013602482015272119959481d1c985b9cd9995c8819985a5b1959606a1b6044820152606490fd5b9190820391821161117b57565b80546801000000000000000081101561109657612bad916001820181556128a2565b819291549060031b91821b915f19901b1916179055565b60025f516020612c235f395f51905f525414612bed5760025f516020612c235f395f51905f5255565b633ee5aeb560e01b5f5260045ffd5b5f546001600160a01b03163303612c0f57565b63118cdaa760e01b5f523360045260245ffdfe9b779b17422d0df92223018b32b4d1fa46e071723d6817e2486d003becc55f00a26469706673582212205955798d7f389c13d6f23459ae92e7fc4c1d06dab9031a5fa2d618d04deb7e6c64736f6c634300081c0033",
  "linkReferences": {},
  "deployedLinkReferences": {}
}