{"contracts/PayAgentEscrow.sol":{"PayAgentEscrow":{"abi":[{"inputs":[{"internalType":"address","name":"_usdc","type":"address"},{"internalType":"address","name":"_identityRegistry","type":"address"},{"internalType":"address","name":"_reputationRegistry","type":"address"},{"internalType":"address","name":"_treasury","type":"address"},{"internalType":"address","name":"_disputeResolver","type":"address"}],"stateMutability":"nonpayable","type":"constructor"},{"inputs":[{"internalType":"address","name":"owner","type":"address"}],"name":"OwnableInvalidOwner","type":"error"},{"inputs":[{"internalType":"address","name":"account","type":"address"}],"name":"OwnableUnauthorizedAccount","type":"error"},{"inputs":[],"name":"ReentrancyGuardReentrantCall","type":"error"},{"anonymous":false,"inputs":[{"indexed":true,"internalType":"uint256","name":"escrowId","type":"uint256"},{"indexed":true,"internalType":"uint256","name":"agentId","type":"uint256"},{"indexed":false,"internalType":"uint256","name":"timestamp","type":"uint256"}],"name":"AgentStarted","type":"event"},{"anonymous":false,"inputs":[{"indexed":true,"internalType":"uint256","name":"escrowId","type":"uint256"},{"indexed":false,"internalType":"string","name":"deliveryURI","type":"string"},{"indexed":false,"internalType":"uint256","name":"timestamp","type":"uint256"}],"name":"DeliverySubmitted","type":"event"},{"anonymous":false,"inputs":[{"indexed":true,"internalType":"uint256","name":"escrowId","type":"uint256"},{"indexed":true,"internalType":"address","name":"by","type":"address"},{"indexed":false,"internalType":"string","name":"reason","type":"string"}],"name":"DisputeRaised","type":"event"},{"anonymous":false,"inputs":[{"indexed":true,"internalType":"uint256","name":"escrowId","type":"uint256"},{"indexed":false,"internalType":"bool","name":"userWins","type":"bool"},{"indexed":false,"internalType":"uint256","name":"refundAmount","type":"uint256"}],"name":"DisputeResolved","type":"event"},{"anonymous":false,"inputs":[{"indexed":true,"internalType":"uint256","name":"escrowId","type":"uint256"},{"indexed":true,"internalType":"address","name":"user","type":"address"},{"indexed":true,"internalType":"uint256","name":"agentId","type":"uint256"},{"indexed":false,"internalType":"uint256","name":"amount","type":"uint256"},{"indexed":false,"internalType":"string","name":"upiTransactionId","type":"string"}],"name":"EscrowCreated","type":"event"},{"anonymous":false,"inputs":[{"indexed":true,"internalType":"uint256","name":"escrowId","type":"uint256"},{"indexed":true,"internalType":"uint256","name":"agentId","type":"uint256"},{"indexed":false,"internalType":"int128","name":"score","type":"int128"},{"indexed":false,"internalType":"string","name":"tags","type":"string"}],"name":"FeedbackSubmitted","type":"event"},{"anonymous":false,"inputs":[{"indexed":true,"internalType":"uint256","name":"escrowId","type":"uint256"},{"indexed":false,"internalType":"uint256","name":"amount","type":"uint256"},{"indexed":false,"internalType":"uint256","name":"platformFee","type":"uint256"}],"name":"FundsEscrowed","type":"event"},{"anonymous":false,"inputs":[{"indexed":true,"internalType":"address","name":"previousOwner","type":"address"},{"indexed":true,"internalType":"address","name":"newOwner","type":"address"}],"name":"OwnershipTransferred","type":"event"},{"anonymous":false,"inputs":[{"indexed":true,"internalType":"uint256","name":"escrowId","type":"uint256"},{"indexed":true,"internalType":"address","name":"agentWallet","type":"address"},{"indexed":false,"internalType":"uint256","name":"agentAmount","type":"uint256"},{"indexed":false,"internalType":"uint256","name":"platformFee","type":"uint256"}],"name":"PaymentReleased","type":"event"},{"anonymous":false,"inputs":[{"indexed":true,"internalType":"uint256","name":"escrowId","type":"uint256"},{"indexed":true,"internalType":"address","name":"to","type":"address"},{"indexed":false,"internalType":"uint256","name":"amount","type":"uint256"}],"name":"RefundIssued","type":"event"},{"inputs":[],"name":"DISPUTE_WINDOW","outputs":[{"internalType":"uint256","name":"","type":"uint256"}],"stateMutability":"view","type":"function"},{"inputs":[],"name":"MAX_DEADLINE","outputs":[{"internalType":"uint256","name":"","type":"uint256"}],"stateMutability":"view","type":"function"},{"inputs":[{"internalType":"uint256","name":"","type":"uint256"},{"internalType":"uint256","name":"","type":"uint256"}],"name":"agentEscrows","outputs":[{"internalType":"uint256","name":"","type":"uint256"}],"stateMutability":"view","type":"function"},{"inputs":[{"internalType":"address","name":"","type":"address"}],"name":"authorizedPayAgents","outputs":[{"internalType":"bool","name":"","type":"bool"}],"stateMutability":"view","type":"function"},{"inputs":[{"internalType":"uint256","name":"_escrowId","type":"uint256"}],"name":"autoRefund","outputs":[],"stateMutability":"nonpayable","type":"function"},{"inputs":[{"internalType":"address","name":"_user","type":"address"},{"internalType":"uint256","name":"_agentId","type":"uint256"},{"internalType":"uint256","name":"_amount","type":"uint256"},{"internalType":"bytes32","name":"_taskHash","type":"bytes32"},{"internalType":"string","name":"_taskURI","type":"string"},{"internalType":"string","name":"_upiTransactionId","type":"string"},{"internalType":"uint256","name":"_deadline","type":"uint256"}],"name":"createEscrow","outputs":[{"internalType":"uint256","name":"","type":"uint256"}],"stateMutability":"nonpayable","type":"function"},{"inputs":[],"name":"disputeResolver","outputs":[{"internalType":"address","name":"","type":"address"}],"stateMutability":"view","type":"function"},{"inputs":[{"internalType":"uint256","name":"_escrowId","type":"uint256"}],"name":"escrowFunds","outputs":[],"stateMutability":"nonpayable","type":"function"},{"inputs":[{"internalType":"uint256","name":"","type":"uint256"}],"name":"escrows","outputs":[{"internalType":"uint256","name":"id","type":"uint256"},{"internalType":"address","name":"user","type":"address"},{"internalType":"uint256","name":"agentId","type":"uint256"},{"internalType":"address","name":"agentWallet","type":"address"},{"internalType":"uint256","name":"amount","type":"uint256"},{"internalType":"uint256","name":"platformFee","type":"uint256"},{"internalType":"uint256","name":"agentAmount","type":"uint256"},{"internalType":"bytes32","name":"taskHash","type":"bytes32"},{"internalType":"string","name":"taskURI","type":"string"},{"internalType":"uint256","name":"createdAt","type":"uint256"},{"internalType":"uint256","name":"deadline","type":"uint256"},{"internalType":"uint256","name":"deliveredAt","type":"uint256"},{"internalType":"enum PayAgentEscrow.EscrowStatus","name":"status","type":"uint8"},{"internalType":"string","name":"upiTransactionId","type":"string"},{"internalType":"string","name":"deliveryURI","type":"string"},{"internalType":"bool","name":"userConfirmed","type":"bool"},{"internalType":"bool","name":"agentConfirmed","type":"bool"}],"stateMutability":"view","type":"function"},{"inputs":[{"internalType":"uint256","name":"_agentId","type":"uint256"}],"name":"getAgentEscrows","outputs":[{"internalType":"uint256[]","name":"","type":"uint256[]"}],"stateMutability":"view","type":"function"},{"inputs":[{"internalType":"uint256","name":"_escrowId","type":"uint256"}],"name":"getEscrow","outputs":[{"components":[{"internalType":"uint256","name":"id","type":"uint256"},{"internalType":"address","name":"user","type":"address"},{"internalType":"uint256","name":"agentId","type":"uint256"},{"internalType":"address","name":"agentWallet","type":"address"},{"internalType":"uint256","name":"amount","type":"uint256"},{"internalType":"uint256","name":"platformFee","type":"uint256"},{"internalType":"uint256","name":"agentAmount","type":"uint256"},{"internalType":"bytes32","name":"taskHash","type":"bytes32"},{"internalType":"string","name":"taskURI","type":"string"},{"internalType":"uint256","name":"createdAt","type":"uint256"},{"internalType":"uint256","name":"deadline","type":"uint256"},{"internalType":"uint256","name":"deliveredAt","type":"uint256"},{"internalType":"enum PayAgentEscrow.EscrowStatus","name":"status","type":"uint8"},{"internalType":"string","name":"upiTransactionId","type":"string"},{"internalType":"string","name":"deliveryURI","type":"string"},{"internalType":"bool","name":"userConfirmed","type":"bool"},{"internalType":"bool","name":"agentConfirmed","type":"bool"}],"internalType":"struct PayAgentEscrow.Escrow","name":"","type":"tuple"}],"stateMutability":"view","type":"function"},{"inputs":[{"internalType":"string","name":"_upiId","type":"string"}],"name":"getEscrowIdByUpi","outputs":[{"internalType":"uint256","name":"","type":"uint256"}],"stateMutability":"view","type":"function"},{"inputs":[],"name":"getTotalEscrows","outputs":[{"internalType":"uint256","name":"","type":"uint256"}],"stateMutability":"view","type":"function"},{"inputs":[{"internalType":"address","name":"_user","type":"address"}],"name":"getUserEscrows","outputs":[{"internalType":"uint256[]","name":"","type":"uint256[]"}],"stateMutability":"view","type":"function"},{"inputs":[],"name":"identityRegistry","outputs":[{"internalType":"contract IERC8004Identity","name":"","type":"address"}],"stateMutability":"view","type":"function"},{"inputs":[],"name":"owner","outputs":[{"internalType":"address","name":"","type":"address"}],"stateMutability":"view","type":"function"},{"inputs":[],"name":"payAgentTreasury","outputs":[{"internalType":"address","name":"","type":"address"}],"stateMutability":"view","type":"function"},{"inputs":[],"name":"platformFeeBps","outputs":[{"internalType":"uint256","name":"","type":"uint256"}],"stateMutability":"view","type":"function"},{"inputs":[{"internalType":"uint256","name":"_escrowId","type":"uint256"},{"internalType":"string","name":"_reason","type":"string"}],"name":"raiseDispute","outputs":[],"stateMutability":"nonpayable","type":"function"},{"inputs":[{"internalType":"uint256","name":"_escrowId","type":"uint256"}],"name":"releasePayment","outputs":[],"stateMutability":"nonpayable","type":"function"},{"inputs":[],"name":"renounceOwnership","outputs":[],"stateMutability":"nonpayable","type":"function"},{"inputs":[],"name":"reputationRegistry","outputs":[{"internalType":"contract IERC8004Reputation","name":"","type":"address"}],"stateMutability":"view","type":"function"},{"inputs":[{"internalType":"uint256","name":"_escrowId","type":"uint256"},{"internalType":"bool","name":"_userWins","type":"bool"},{"internalType":"uint256","name":"_refundAmount","type":"uint256"}],"name":"resolveDispute","outputs":[],"stateMutability":"nonpayable","type":"function"},{"inputs":[{"internalType":"address","name":"_agent","type":"address"},{"internalType":"bool","name":"_status","type":"bool"}],"name":"setAuthorizedPayAgent","outputs":[],"stateMutability":"nonpayable","type":"function"},{"inputs":[{"internalType":"uint256","name":"_feeBps","type":"uint256"}],"name":"setPlatformFee","outputs":[],"stateMutability":"nonpayable","type":"function"},{"inputs":[{"internalType":"uint256","name":"_escrowId","type":"uint256"}],"name":"startWork","outputs":[],"stateMutability":"nonpayable","type":"function"},{"inputs":[{"internalType":"uint256","name":"_escrowId","type":"uint256"},{"internalType":"string","name":"_deliveryURI","type":"string"}],"name":"submitDelivery","outputs":[],"stateMutability":"nonpayable","type":"function"},{"inputs":[{"internalType":"uint256","name":"_escrowId","type":"uint256"},{"internalType":"int128","name":"_score","type":"int128"},{"internalType":"uint8","name":"_decimals","type":"uint8"},{"internalType":"string","name":"_tags","type":"string"},{"internalType":"string","name":"_feedbackURI","type":"string"}],"name":"submitFeedback","outputs":[],"stateMutability":"nonpayable","type":"function"},{"inputs":[{"internalType":"address","name":"newOwner","type":"address"}],"name":"transferOwnership","outputs":[],"stateMutability":"nonpayable","type":"function"},{"inputs":[{"internalType":"string","name":"","type":"string"}],"name":"upiToEscrow","outputs":[{"internalType":"uint256","name":"","type":"uint256"}],"stateMutability":"view","type":"function"},{"inputs":[],"name":"usdc","outputs":[{"internalType":"contract IERC20","name":"","type":"address"}],"stateMutability":"view","type":"function"},{"inputs":[{"internalType":"address","name":"","type":"address"},{"internalType":"uint256","name":"","type":"uint256"}],"name":"userEscrows","outputs":[{"internalType":"uint256","name":"","type":"uint256"}],"stateMutability":"view","type":"function"}],"evm":{"bytecode":{"linkReferences":{},"object":"60e0346101b757601f612e5c38819003918201601f19168301916001600160401b038311848410176101bb5780849260a0946040528339810103126101b757610047816101cf565b90610054602082016101cf565b90610061604082016101cf565b6100796080610072606085016101cf565b93016101cf565b9260017f9b779b17422d0df92223018b32b4d1fa46e071723d6817e2486d003becc55f005533156101a4575f8054336001600160a01b0319821681178355604051979290916001600160a01b0316907f8be0079c531659141344cd1fd0a4f28419497f9722a3daafe3b4186f6b6457e09080a360fa6003556001600160a01b0390811660805290811660a05290811660c052600180546001600160a01b0319908116938316938417825560028054909116949092169390931790555f908152600960205260409020805460ff19169091179055612c7890816101e4823960805181818161032e0152818161057d015281816114b901528181611f350152818161200e01526122a9015260a051818181610b9a0152612164015260c05181818161079001526108970152f35b631e4fbdf760e01b5f525f60045260245ffd5b5f80fd5b634e487b7160e01b5f52604160045260245ffd5b51906001600160a01b03821682036101b75756fe60a0806040526004361015610012575f80fd5b5f905f3560e01c908163010586d71461266557508063012f52ee146124e957806303a250f91461240a57806304348d48146123a65780630993cdbe146121f057806312e8e2c314612193578063134e18f41461214f57806322dcd13e1461213257806334013c4014611f645780633e413bee14611f205780633f4dbda214611f035780634292338c14611eb05780635aef573c14611d3d5780635ccea85e14611cbb578063618d1d4a14611a645780636f0e530f14611a47578063715018a6146119f05780637a7bc1ce1461199f5780637d19e596146117065780637f944dd0146116bd57806388685cd9146113fe5780638da5cb5b146113d7578063a0043db914610ace578063b528bb1514610a68578063c158bc3d14610a22578063c4704fd3146107bf578063c8db44e31461077a578063e6e946c214610276578063ec340c261461024d578063f2fde38b146101c7578063f585dc57146101a95763f5a3f4af1461017e575f80fd5b346101a657806003193601126101a6576002546040516001600160a01b039091168152602090f35b80fd5b50346101a657806003193601126101a65760206040516203f4808152f35b50346101a65760203660031901126101a6576101e161269e565b6101e9612bfc565b6001600160a01b031680156102395781546001600160a01b03198116821783556001600160a01b03167f8be0079c531659141344cd1fd0a4f28419497f9722a3daafe3b4186f6b6457e08380a380f35b631e4fbdf760e01b82526004829052602482fd5b50346101a657806003193601126101a6576001546040516001600160a01b039091168152602090f35b50346101a65760603660031901126101a657600435610293612833565b600254604435906001600160a01b0316330361073e5782151580610732575b6102bb90612910565b8083855260056020526040852090600c820160ff815416600881101561071e576005036106ea57841561053d57805460ff1916600617905515610531575b60048101805483116104fa5760015460405163a9059cbb60e01b81526001600160a01b039182166004820152602481018590527f000000000000000000000000000000000000000000000000000000000000000090911691906020816044818b875af180156104ef576103739189916104d0575b506129da565b548084106103ea575b5050507f5add0b1fc2a3dfd95be33d1d5feb6709087e50213b7a73c3c3b2c387001221e79160409160018060a01b0360015416857f7a482fdeb6bc9a1376f597068a214a7a39472bb2eff1b8cad21ba04f49ddca1b60208651858152a35b825191151582526020820152a280f35b6103f78461040292612b7e565b600584015490612b7e565b91821561037c576003015460405163a9059cbb60e01b81526001600160a01b03909116600482015260248101929092526020908290604490829089905af19081156104c5578591610496575b501561045c575f808061037c565b60405162461bcd60e51b81526020600482015260126024820152711059d95b9d081cda185c994819985a5b195960721b6044820152606490fd5b6104b8915060203d6020116104be575b6104b08183612708565b8101906129c2565b5f61044e565b503d6104a6565b6040513d87823e3d90fd5b6104e9915060203d6020116104be576104b08183612708565b5f61036d565b6040513d8a823e3d90fd5b60405162461bcd60e51b815260206004820152600f60248201526e0a4cacceadcc840e8dede40d0d2ced608b1b6044820152606490fd5b600481015491506102f9565b805460ff1916600490811790915560038301805460068501805460405163a9059cbb60e01b81526001600160a01b039384169581019590955260248501527f00000000000000000000000000000000000000000000000000000000000000009091169691959194919350918891602082604481868c5af19081156106df576105d26020926106129486916106c2575b50612af9565b600154600591909101805460405163a9059cbb60e01b81526001600160a01b03909316600484015260248301529890928391908290869082906044820190565b03925af19081156106b7577f5add0b1fc2a3dfd95be33d1d5feb6709087e50213b7a73c3c3b2c387001221e7976040976106777f8cdc8dc08e54a4e57f52077ecf1b4c508758513439cae2aa325dcc85b922fca8948a948d9791610698575b50612b3c565b5494549054825191825260208201526001600160a01b0390941693a36103da565b6106b1915060203d6020116104be576104b08183612708565b5f610671565b6040513d84823e3d90fd5b6106d99150843d86116104be576104b08183612708565b5f6105cc565b6040513d85823e3d90fd5b60405162461bcd60e51b815260206004820152600c60248201526b139bdd08191a5cdc1d5d195960a21b6044820152606490fd5b634e487b7160e01b88526021600452602488fd5b506004548311156102b2565b60405162461bcd60e51b81526020600482015260146024820152732737ba103234b9b83aba32903932b9b7b63b32b960611b6044820152606490fd5b50346101a657806003193601126101a6576040517f00000000000000000000000000000000000000000000000000000000000000006001600160a01b03168152602090f35b50346109bf5760a03660031901126109bf576004356024359081600f0b8092036109bf576044359160ff83168093036109bf576064356001600160401b0381116109bf57610811903690600401612842565b9190936084356001600160401b0381116109bf57610833903690600401612842565b85151580610a16575b61084590612910565b855f52600560205260405f209261086960018060a01b036001860154163314612a53565b60ff600c850154166008811015610a0257600481149081156109f7575b50156109c357600260018060a01b037f000000000000000000000000000000000000000000000000000000000000000016940193845492813b156109bf575f80946109188a978a946109068f6040519b8c9a8b998a9863d8dc766160e01b8a5260048a01526024890152604488015260c0606488015260c4870191612a8a565b84810360031901608486015291612a8a565b8260a483015203925af180156109b457610976575b50906109707fa5ccc2fc6ee90577472f2dadae332a7567af704ed9f01c290699d77f9c1ec3e3939254956040519384938452604060208501526040840191612a8a565b0390a380f35b7fa5ccc2fc6ee90577472f2dadae332a7567af704ed9f01c290699d77f9c1ec3e393929196505f6109a691612708565b6109705f969192935061092d565b6040513d5f823e3d90fd5b5f80fd5b60405162461bcd60e51b815260206004820152600c60248201526b139bdd08199a5b9a5cda195960a21b6044820152606490fd5b60069150145f610886565b634e487b7160e01b5f52602160045260245ffd5b5060045486111561083c565b346109bf5760403660031901126109bf576024356004355f52600760205260405f2080548210156109bf57602091610a59916128a2565b90549060031b1c604051908152f35b346109bf5760203660031901126109bf576004356001600160401b0381116109bf57366023820112156109bf57602080610aad819336906024816004013591016128cb565b604051928184925191829101835e8101600881520301902054604051908152f35b346109bf5760e03660031901126109bf57610ae761269e565b6084356001600160401b0381116109bf57610b06903690600401612842565b9160a4356001600160401b0381116109bf57610b26903690600401612842565b60c435335f526009602052610b4160ff60405f205416612a16565b6001600160a01b038416156113a3576044351561136957811561133257604051828482376020818481016008815203019020546112f75762093a8081116112be57604051630af34d3160e31b81526024803560048301527f00000000000000000000000000000000000000000000000000000000000000006001600160a01b03169190602090829081855afa9081156109b4575f9161129f575b5015611263576040516382afd23b60e01b81526024356004820152602081602481855afa9081156109b4575f91611244575b501561120c576020602491604051928380926233950960e01b8252823560048301525afa9081156109b4575f916111ca575b506001600160a01b031695861561118f57600454955f19871461117b57600187016004556003549182604435029260443584040361117b57610c876127108404604435612b7e565b9342019384421161117b57612710610cea946040519b610ca68d6126ec565b60018c018d526001600160a01b038b1660208e015260243560408e015260608d015260443560808d01520460a08b015260c08a015260643560e08a015236916128cb565b610100870152426101208701526101408601525f6101608601525f610180860152610d163682846128cb565b6101a0860152602094604051610d2c8782612708565b5f8082526101c08301919091526101e08201819052610200820181905260018681018252600580895260409283902084518155602085015192810180546001600160a01b039485166001600160a01b0319918216179091559385015160028201556060850151600382018054919094169416939093179091556080830151600483015560a08301519082015560c0820151600682015560e08201516007820155610100820151805160088301916001600160401b03821161109657610dfb82610df585546126b4565b85612aaa565b8990601f831160011461111857610e2992915f91836110aa575b50508160011b915f199060031b1c19161790565b90555b6101208201516009820155610140820151600a820155610160820151600b820155600c81016101808301516008811015610a025760ff80198354169116179055600d81016101a08301518051906001600160401b03821161109657610e9582610df585546126b4565b8990601f83116001146110b557610ec292915f91836110aa5750508160011b915f199060031b1c19161790565b90555b6101c08201518051906001600160401b03821161109657610ef682610eed600e8601546126b4565b600e8601612aaa565b8890601f83116001146110255782600f936102009593610f2a935f9261101a5750508160011b915f199060031b1c19161790565b600e8201555b0191610f4f6101e08201511515849060ff801983541691151516179055565b0151815461ff00191690151560081b61ff00161790556001600160a01b0383165f9081526006865260409020610f89906001860190612b8b565b6024355f5260078552610fa26001850160405f20612b8b565b6040518183823781810190600882528681600188019303019020557f3b9e55f0c57efee0e9b680065a19cbec3530fdfcf4b19bfa01e8d984d257408d60405160443581526040878201528061100c6024359660018060a01b03169560018901956040840191612a8a565b0390a4600160405191018152f35b015190508c80610e15565b90600e84015f52895f20915f5b8b601f1986168210611080575050926102009492600192600f9583601f19811610611068575b505050811b01600e820155610f30565b01515f1960f88460031b161c191690558b8080611058565b6001849582939585015181550194019201611032565b634e487b7160e01b5f52604160045260245ffd5b015190508b80610e15565b90601f19831691845f528b5f20925f5b8d8282106111025750509084600195949392106110ea575b505050811b019055610ec5565b01515f1960f88460031b161c191690558a80806110dd565b60018596829396860151815501950193016110c5565b90601f19831691845f528b5f20925f5b8d82821061116557505090846001959493921061114d575b505050811b019055610e2c565b01515f1960f88460031b161c191690558a8080611140565b6001859682939686015181550195019301611128565b634e487b7160e01b5f52601160045260245ffd5b60405162461bcd60e51b81526020600482015260136024820152721059d95b9d081a185cc81b9bc81dd85b1b195d606a1b6044820152606490fd5b90506020813d602011611204575b816111e560209383612708565b810103126109bf57516001600160a01b03811681036109bf5787610c3f565b3d91506111d8565b60405162461bcd60e51b815260206004820152601060248201526f4167656e74206e6f742061637469766560801b6044820152606490fd5b61125d915060203d6020116104be576104b08183612708565b88610c0d565b60405162461bcd60e51b81526020600482015260146024820152731059d95b9d081b9bdd081c9959da5cdd195c995960621b6044820152606490fd5b6112b8915060203d6020116104be576104b08183612708565b88610bdb565b60405162461bcd60e51b8152602060048201526011602482015270446561646c696e6520746f6f206c6f6e6760781b6044820152606490fd5b60405162461bcd60e51b815260206004820152601360248201527215541248125108185b1c9958591e481d5cd959606a1b6044820152606490fd5b60405162461bcd60e51b815260206004820152600f60248201526e155412481251081c995c5d5a5c9959608a1b6044820152606490fd5b60405162461bcd60e51b81526020600482015260126024820152710416d6f756e74206d757374206265203e20360741b6044820152606490fd5b60405162461bcd60e51b815260206004820152600c60248201526b24b73b30b634b2103ab9b2b960a11b6044820152606490fd5b346109bf575f3660031901126109bf575f546040516001600160a01b039091168152602090f35b346109bf5760203660031901126109bf5760043561141a612bc4565b801515806116b1575b61142c90612910565b805f52600560205260405f2090600c820160ff8154166008811015610a025760030361167c576001830154336001600160a01b03909116036115ed57600f8301805460ff191660011790555b805460ff1916600490811790915560038301805460068501805460405163a9059cbb60e01b81526001600160a01b03938416958101959095526024850152947f0000000000000000000000000000000000000000000000000000000000000000909116906020846044815f865af19081156109b457611503602092611543965f916115d05750612af9565b600154600591909101805460405163a9059cbb60e01b81526001600160a01b039093166004840152602483015290949092859182905f9082906044820190565b03925af19182156109b4576115826040937f8cdc8dc08e54a4e57f52077ecf1b4c508758513439cae2aa325dcc85b922fca8955f916115b15750612b3c565b5494549054825191825260208201526001600160a01b0390941693a360015f516020612c235f395f51905f5255005b6115ca915060203d6020116104be576104b08183612708565b88610671565b6115e79150843d86116104be576104b08183612708565b896105cc565b60038301546001600160a01b031633148015611664575b61160d90612a16565b600b83015462015180810180911161117b574210156114785760405162461bcd60e51b8152602060048201526016602482015275082eae8de5ac6dedcccd2e4da40c2cce8cae4406468d60531b6044820152606490fd5b50335f9081526009602052604090205460ff16611604565b60405162461bcd60e51b815260206004820152600d60248201526c139bdd0819195b1a5d995c9959609a1b6044820152606490fd5b50600454811115611423565b346109bf5760403660031901126109bf576116d661269e565b6001600160a01b03165f908152600660205260409020805460243591908210156109bf57602091610a59916128a2565b346109bf5760203660031901126109bf575f610200604051611727816126ec565b8281528260208201528260408201528260608201528260808201528260a08201528260c08201528260e082015260606101008201528261012082015282610140820152826101608201528261018082015260606101a082015260606101c0820152826101e082015201526004355f52600560205260405f20604051906117ac826126ec565b8054825260018101546001600160a01b03908116602084015260028201546040840152600382015416606083015260048101546080830152600581015460a0830152600681015460c0830152600781015460e083015261180e60088201612729565b6101008301526009810154610120830152600a810154610140830152600b81015461016083015260ff600c820154166008811015610a025760ff91600f9161018085015261185e600d8201612729565b6101a0850152611870600e8201612729565b6101c0850152015481811615156101e084015260081c1615156102008201526040518091602082528051602083015260018060a01b0360208201511660408301526040810151606083015260018060a01b036060820151166080830152608081015160a083015260a081015160c083015260c081015160e083015260e081015161010083015261020061198461196c61191c6101008501516102206101208801526102408701906127c9565b6101208501516101408701526101408501516101608701526101608501516101808701526119546101808601516101a08801906127ed565b6101a0850151868203601f19016101c08801526127c9565b6101c0840151858203601f19016101e08701526127c9565b916101e0810151151582850152015115156102208301520390f35b346109bf5760203660031901126109bf576004356001600160401b0381116109bf5760206119d281923690600401612842565b91908260405193849283378101600881520301902054604051908152f35b346109bf575f3660031901126109bf57611a08612bfc565b5f80546001600160a01b0319811682556001600160a01b03167f8be0079c531659141344cd1fd0a4f28419497f9722a3daafe3b4186f6b6457e08280a3005b346109bf575f3660031901126109bf57602060405162093a808152f35b346109bf57611a723661286f565b919081151580611caf575b611a8690612910565b815f52600560205260405f2092611aaa60018060a01b03600386015416331461294d565b600c840160ff8154166008811015610a0257806002611ad29214908115611ca4575b50612985565b600a8501544211611c6f578115611c3257600e8501946001600160401b03831161109657611b0a83611b0488546126b4565b88612aaa565b5f95601f8411600114611bab5790600f91611b5d85807ff2ef0c3b0b6472c1ab32d407336331b0a8f8521e3328e05f63c8835a9c8686cd999a5f91611ba0575b508160011b915f199060031b1c19161790565b90555b42600b82015501805461ff001916610100179055805460ff1916600317905560408051818152928392611b9592840191612a8a565b4260208301520390a2005b90508801358b611b4a565b601f198416815f5260205f20905f5b818110611c1a5750907ff2ef0c3b0b6472c1ab32d407336331b0a8f8521e3328e05f63c8835a9c8686cd979886600f95949310611c01575b5050600185811b019055611b60565b8701355f19600388901b60f8161c191690558880611bf2565b878a013583556020998a019960019093019201611bba565b60405162461bcd60e51b815260206004820152601560248201527411195b1a5d995c9e48155492481c995c5d5a5c9959605a1b6044820152606490fd5b60405162461bcd60e51b815260206004820152600d60248201526c5061737420646561646c696e6560981b6044820152606490fd5b600191501487611acc565b50600454821115611a7d565b346109bf5760203660031901126109bf576001600160a01b03611cdc61269e565b165f52600660205260405f206040519081602082549182815201915f5260205f20905f5b818110611d2757611d2385611d1781870382612708565b604051918291826127fa565b0390f35b8254845260209093019260019283019201611d00565b346109bf57611d4b3661286f565b919081151580611ea4575b611d5f90612910565b815f52600560205260405f20611d8260018060a01b036001830154163314612a53565b600c81019060ff82541660088110159081610a025760038114918215611e97575b8215611e86575b505015611e5057600a01546203f480810180911161117b574211611e1357805460ff19166005179055604051602080825233947f1b84372106d77c6daea0dda35bbc0229d10a83f58ec899092884925193682341938392611e0e9290840191612a8a565b0390a3005b60405162461bcd60e51b8152602060048201526015602482015274111a5cdc1d5d19481dda5b991bddc818db1bdcd959605a1b6044820152606490fd5b60405162461bcd60e51b815260206004820152600e60248201526d43616e6e6f74206469737075746560901b6044820152606490fd5b909150610a02576001148680611daa565b506002811491505f611da3565b50600454821115611d56565b346109bf5760403660031901126109bf57611f01611ecc61269e565b611ed4612833565b90611edd612bfc565b60018060a01b03165f52600960205260405f209060ff801983541691151516179055565b005b346109bf575f3660031901126109bf576020600454604051908152f35b346109bf575f3660031901126109bf576040517f00000000000000000000000000000000000000000000000000000000000000006001600160a01b03168152602090f35b346109bf5760203660031901126109bf57600435611f80612bc4565b335f526009602052611f9860ff60405f205416612a16565b80151580612126575b611faa90612910565b805f52600560205260405f20600c81019060ff8254166008811015610a02576120f3576004810190815460018060a01b036001541690604051916323b872dd60e01b8352600483015230602483015260448201526020816064815f60018060a01b037f0000000000000000000000000000000000000000000000000000000000000000165af19081156109b4575f916120d4575b50156120985760056040927ff5f2d2987d4c4c11bddfb7593b16a06a860c31d9ae61dd74a8250964dd6f77c394600160ff198254161790555491015482519182526020820152a260015f516020612c235f395f51905f5255005b60405162461bcd60e51b81526020600482015260146024820152731554d110c81d1c985b9cd9995c8819985a5b195960621b6044820152606490fd5b6120ed915060203d6020116104be576104b08183612708565b8561203e565b60405162461bcd60e51b815260206004820152600b60248201526a4e6f742070656e64696e6760a81b6044820152606490fd5b50600454811115611fa1565b346109bf575f3660031901126109bf576020600354604051908152f35b346109bf575f3660031901126109bf576040517f00000000000000000000000000000000000000000000000000000000000000006001600160a01b03168152602090f35b346109bf5760203660031901126109bf576004356121af612bfc565b6103e881116121bd57600355005b60405162461bcd60e51b815260206004820152600b60248201526a466565206d61782031302560a81b6044820152606490fd5b346109bf5760203660031901126109bf5760043561220c612bc4565b8015158061239a575b61221e90612910565b805f52600560205260405f20600c81019060ff8254166008811015610a0257806001612252921490811561238f5750612985565b600a81015442111561235457815460ff191660061790915560049081015460015460405163a9059cbb60e01b81526001600160a01b039190911692810192909252602482018190529190602081806044810103815f7f00000000000000000000000000000000000000000000000000000000000000006001600160a01b03165af180156109b4576122e9915f9161233557506129da565b6001546040519283526001600160a01b0316917f7a482fdeb6bc9a1376f597068a214a7a39472bb2eff1b8cad21ba04f49ddca1b90602090a360015f516020612c235f395f51905f5255005b61234e915060203d6020116104be576104b08183612708565b8461036d565b60405162461bcd60e51b8152602060048201526013602482015272111958591b1a5b99481b9bdd081c185cdcd959606a1b6044820152606490fd5b600291501485611acc565b50600454811115612215565b346109bf5760203660031901126109bf576004355f52600760205260405f206040519081602082549182815201915f5260205f20905f5b8181106123f457611d2385611d1781870382612708565b82548452602090930192600192830192016123dd565b346109bf5760203660031901126109bf57600435801515806124dd575b61243090612910565b805f52600560205260405f2061245360018060a01b03600383015416331461294d565b600c81019060ff8254166008811015610a02576001036124a9576002918260ff198254161790550154907ffaa1a93f143bbd33c074dc529145f5f8d5bb8bce1b67992ad0a181c8a83419926020604051428152a3005b60405162461bcd60e51b815260206004820152600c60248201526b139bdd08195cd8dc9bddd95960a21b6044820152606490fd5b50600454811115612427565b346109bf5760203660031901126109bf576004355f52600560205260405f2080549080600160a01b60019003600182015416600282015490600160a01b6001900360038401541691600484015492600585015460068601546007870154906008880161255490612729565b92600989015497600a8a015495600b8b015497600c8c015460ff1699600d8d0161257d90612729565b9c600e0161258a90612729565b9d600f01549e604051608052608051526080516020015260805160400152608051606001526080516080015260805160a0015260805160c0015260805160e00152608051610100016102209052608051610220016125e7916127c9565b9360805161012001526080516101400152608051610160015260805161018001612610916127ed565b60805181036080516101a00152612626916127c9565b60805181036080516101c0015261263c916127c9565b9060ff811615156080516101e0015260081c60ff16151560805161020001526080519003608051f35b346109bf5760203660031901126109bf576020906001600160a01b0361268961269e565b165f526009825260ff60405f20541615158152f35b600435906001600160a01b03821682036109bf57565b90600182811c921680156126e2575b60208310146126ce57565b634e487b7160e01b5f52602260045260245ffd5b91607f16916126c3565b61022081019081106001600160401b0382111761109657604052565b90601f801991011681019081106001600160401b0382111761109657604052565b9060405191825f82549261273c846126b4565b80845293600181169081156127a75750600114612763575b5061276192500383612708565b565b90505f9291925260205f20905f915b81831061278b575050906020612761928201015f612754565b6020919350806001915483858901015201910190918492612772565b90506020925061276194915060ff191682840152151560051b8201015f612754565b805180835260209291819084018484015e5f828201840152601f01601f1916010190565b906008821015610a025752565b60206040818301928281528451809452019201905f5b81811061281d5750505090565b8251845260209384019390920191600101612810565b6024359081151582036109bf57565b9181601f840112156109bf578235916001600160401b0383116109bf57602083818601950101116109bf57565b9060406003198301126109bf5760043591602435906001600160401b0382116109bf5761289e91600401612842565b9091565b80548210156128b7575f5260205f2001905f90565b634e487b7160e01b5f52603260045260245ffd5b9291926001600160401b03821161109657604051916128f4601f8201601f191660200184612708565b8294818452818301116109bf578281602093845f960137010152565b1561291757565b60405162461bcd60e51b815260206004820152600e60248201526d496e76616c696420657363726f7760901b6044820152606490fd5b1561295457565b60405162461bcd60e51b8152602060048201526009602482015268139bdd081859d95b9d60ba1b6044820152606490fd5b1561298c57565b60405162461bcd60e51b815260206004820152600e60248201526d496e76616c69642073746174757360901b6044820152606490fd5b908160209103126109bf575180151581036109bf5790565b156129e157565b60405162461bcd60e51b815260206004820152600d60248201526c1499599d5b990819985a5b1959609a1b6044820152606490fd5b15612a1d57565b60405162461bcd60e51b815260206004820152600e60248201526d139bdd08185d5d1a1bdc9a5e995960921b6044820152606490fd5b15612a5a57565b60405162461bcd60e51b81526020600482015260086024820152672737ba103ab9b2b960c11b6044820152606490fd5b908060209392818452848401375f828201840152601f01601f1916010190565b601f8211612ab757505050565b5f5260205f20906020601f840160051c83019310612aef575b601f0160051c01905b818110612ae4575050565b5f8155600101612ad9565b9091508190612ad0565b15612b0057565b60405162461bcd60e51b81526020600482015260146024820152731059d95b9d081c185e5b595b9d0819985a5b195960621b6044820152606490fd5b15612b4357565b60405162461bcd60e51b8152602060048201526013602482015272119959481d1c985b9cd9995c8819985a5b1959606a1b6044820152606490fd5b9190820391821161117b57565b80546801000000000000000081101561109657612bad916001820181556128a2565b819291549060031b91821b915f19901b1916179055565b60025f516020612c235f395f51905f525414612bed5760025f516020612c235f395f51905f5255565b633ee5aeb560e01b5f5260045ffd5b5f546001600160a01b03163303612c0f57565b63118cdaa760e01b5f523360045260245ffdfe9b779b17422d0df92223018b32b4d1fa46e071723d6817e2486d003becc55f00a26469706673582212200bc16ad6b9d79e8736acc02dff635edd2d39bed43bcfef01f9e43e040b99e19864736f6c634300081c0033","opcodes":"PUSH1 0xE0 CALLVALUE PUSH2 0x1B7 JUMPI PUSH1 0x1F PUSH2 0x2E5C CODESIZE DUP2 SWAP1 SUB SWAP2 DUP3 ADD PUSH1 0x1F NOT AND DUP4 ADD SWAP2 PUSH1 0x1 PUSH1 0x1 PUSH1 0x40 SHL SUB DUP4 GT DUP5 DUP5 LT OR PUSH2 0x1BB JUMPI DUP1 DUP5 SWAP3 PUSH1 0xA0 SWAP5 PUSH1 0x40 MSTORE DUP4 CODECOPY DUP2 ADD SUB SLT PUSH2 0x1B7 JUMPI PUSH2 0x47 DUP2 PUSH2 0x1CF JUMP JUMPDEST SWAP1 PUSH2 0x54 PUSH1 0x20 DUP3 ADD PUSH2 0x1CF JUMP JUMPDEST SWAP1 PUSH2 0x61 PUSH1 0x40 DUP3 ADD PUSH2 0x1CF JUMP JUMPDEST PUSH2 0x79 PUSH1 0x80 PUSH2 0x72 PUSH1 0x60 DUP6 ADD PUSH2 0x1CF JUMP JUMPDEST SWAP4 ADD PUSH2 0x1CF JUMP JUMPDEST SWAP3 PUSH1 0x1 PUSH32 0x9B779B17422D0DF92223018B32B4D1FA46E071723D6817E2486D003BECC55F00 SSTORE CALLER ISZERO PUSH2 0x1A4 JUMPI PUSH0 DUP1 SLOAD CALLER PUSH1 0x1 PUSH1 0x1 PUSH1 0xA0 SHL SUB NOT DUP3 AND DUP2 OR DUP4 SSTORE PUSH1 0x40 MLOAD SWAP8 SWAP3 SWAP1 SWAP2 PUSH1 0x1 PUSH1 0x1 PUSH1 0xA0 SHL SUB AND SWAP1 PUSH32 0x8BE0079C531659141344CD1FD0A4F28419497F9722A3DAAFE3B4186F6B6457E0 SWAP1 DUP1 LOG3 PUSH1 0xFA PUSH1 0x3 SSTORE PUSH1 0x1 PUSH1 0x1 PUSH1 0xA0 SHL SUB SWAP1 DUP2 AND PUSH1 0x80 MSTORE SWAP1 DUP2 AND PUSH1 0xA0 MSTORE SWAP1 DUP2 AND PUSH1 0xC0 MSTORE PUSH1 0x1 DUP1 SLOAD PUSH1 0x1 PUSH1 0x1 PUSH1 0xA0 SHL SUB NOT SWAP1 DUP2 AND SWAP4 DUP4 AND SWAP4 DUP5 OR DUP3 SSTORE PUSH1 0x2 DUP1 SLOAD SWAP1 SWAP2 AND SWAP5 SWAP1 SWAP3 AND SWAP4 SWAP1 SWAP4 OR SWAP1 SSTORE PUSH0 SWAP1 DUP2 MSTORE PUSH1 0x9 PUSH1 0x20 MSTORE PUSH1 0x40 SWAP1 KECCAK256 DUP1 SLOAD PUSH1 0xFF NOT AND SWAP1 SWAP2 OR SWAP1 SSTORE PUSH2 0x2C78 SWAP1 DUP2 PUSH2 0x1E4 DUP3 CODECOPY PUSH1 0x80 MLOAD DUP2 DUP2 DUP2 PUSH2 0x32E ADD MSTORE DUP2 DUP2 PUSH2 0x57D ADD MSTORE DUP2 DUP2 PUSH2 0x14B9 ADD MSTORE DUP2 DUP2 PUSH2 0x1F35 ADD MSTORE DUP2 DUP2 PUSH2 0x200E ADD MSTORE PUSH2 0x22A9 ADD MSTORE PUSH1 0xA0 MLOAD DUP2 DUP2 DUP2 PUSH2 0xB9A ADD MSTORE PUSH2 0x2164 ADD MSTORE PUSH1 0xC0 MLOAD DUP2 DUP2 DUP2 PUSH2 0x790 ADD MSTORE PUSH2 0x897 ADD MSTORE RETURN JUMPDEST PUSH4 0x1E4FBDF7 PUSH1 0xE0 SHL PUSH0 MSTORE PUSH0 PUSH1 0x4 MSTORE PUSH1 0x24 PUSH0 REVERT JUMPDEST PUSH0 DUP1 REVERT JUMPDEST PUSH4 0x4E487B71 PUSH1 0xE0 SHL PUSH0 MSTORE PUSH1 0x41 PUSH1 0x4 MSTORE PUSH1 0x24 PUSH0 REVERT JUMPDEST MLOAD SWAP1 PUSH1 0x1 PUSH1 0x1 PUSH1 0xA0 SHL SUB DUP3 AND DUP3 SUB PUSH2 0x1B7 JUMPI JUMP INVALID PUSH1 0xA0 DUP1 PUSH1 0x40 MSTORE PUSH1 0x4 CALLDATASIZE LT ISZERO PUSH2 0x12 JUMPI PUSH0 DUP1 REVERT JUMPDEST PUSH0 SWAP1 PUSH0 CALLDATALOAD PUSH1 0xE0 SHR SWAP1 DUP2 PUSH4 0x10586D7 EQ PUSH2 0x2665 JUMPI POP DUP1 PUSH4 0x12F52EE EQ PUSH2 0x24E9 JUMPI DUP1 PUSH4 0x3A250F9 EQ PUSH2 0x240A JUMPI DUP1 PUSH4 0x4348D48 EQ PUSH2 0x23A6 JUMPI DUP1 PUSH4 0x993CDBE EQ PUSH2 0x21F0 JUMPI DUP1 PUSH4 0x12E8E2C3 EQ PUSH2 0x2193 JUMPI DUP1 PUSH4 0x134E18F4 EQ PUSH2 0x214F JUMPI DUP1 PUSH4 0x22DCD13E EQ PUSH2 0x2132 JUMPI DUP1 PUSH4 0x34013C40 EQ PUSH2 0x1F64 JUMPI DUP1 PUSH4 0x3E413BEE EQ PUSH2 0x1F20 JUMPI DUP1 PUSH4 0x3F4DBDA2 EQ PUSH2 0x1F03 JUMPI DUP1 PUSH4 0x4292338C EQ PUSH2 0x1EB0 JUMPI DUP1 PUSH4 0x5AEF573C EQ PUSH2 0x1D3D JUMPI DUP1 PUSH4 0x5CCEA85E EQ PUSH2 0x1CBB JUMPI DUP1 PUSH4 0x618D1D4A EQ PUSH2 0x1A64 JUMPI DUP1 PUSH4 0x6F0E530F EQ PUSH2 0x1A47 JUMPI DUP1 PUSH4 0x715018A6 EQ PUSH2 0x19F0 JUMPI DUP1 PUSH4 0x7A7BC1CE EQ PUSH2 0x199F JUMPI DUP1 PUSH4 0x7D19E596 EQ PUSH2 0x1706 JUMPI DUP1 PUSH4 0x7F944DD0 EQ PUSH2 0x16BD JUMPI DUP1 PUSH4 0x88685CD9 EQ PUSH2 0x13FE JUMPI DUP1 PUSH4 0x8DA5CB5B EQ PUSH2 0x13D7 JUMPI DUP1 PUSH4 0xA0043DB9 EQ PUSH2 0xACE JUMPI DUP1 PUSH4 0xB528BB15 EQ PUSH2 0xA68 JUMPI DUP1 PUSH4 0xC158BC3D EQ PUSH2 0xA22 JUMPI DUP1 PUSH4 0xC4704FD3 EQ PUSH2 0x7BF JUMPI DUP1 PUSH4 0xC8DB44E3 EQ PUSH2 0x77A JUMPI DUP1 PUSH4 0xE6E946C2 EQ PUSH2 0x276 JUMPI DUP1 PUSH4 0xEC340C26 EQ PUSH2 0x24D JUMPI DUP1 PUSH4 0xF2FDE38B EQ PUSH2 0x1C7 JUMPI DUP1 PUSH4 0xF585DC57 EQ PUSH2 0x1A9 JUMPI PUSH4 0xF5A3F4AF EQ PUSH2 0x17E JUMPI PUSH0 DUP1 REVERT JUMPDEST CALLVALUE PUSH2 0x1A6 JUMPI DUP1 PUSH1 0x3 NOT CALLDATASIZE ADD SLT PUSH2 0x1A6 JUMPI PUSH1 0x2 SLOAD PUSH1 0x40 MLOAD PUSH1 0x1 PUSH1 0x1 PUSH1 0xA0 SHL SUB SWAP1 SWAP2 AND DUP2 MSTORE PUSH1 0x20 SWAP1 RETURN JUMPDEST DUP1 REVERT JUMPDEST POP CALLVALUE PUSH2 0x1A6 JUMPI DUP1 PUSH1 0x3 NOT CALLDATASIZE ADD SLT PUSH2 0x1A6 JUMPI PUSH1 0x20 PUSH1 0x40 MLOAD PUSH3 0x3F480 DUP2 MSTORE RETURN JUMPDEST POP CALLVALUE PUSH2 0x1A6 JUMPI PUSH1 0x20 CALLDATASIZE PUSH1 0x3 NOT ADD SLT PUSH2 0x1A6 JUMPI PUSH2 0x1E1 PUSH2 0x269E JUMP JUMPDEST PUSH2 0x1E9 PUSH2 0x2BFC JUMP JUMPDEST PUSH1 0x1 PUSH1 0x1 PUSH1 0xA0 SHL SUB AND DUP1 ISZERO PUSH2 0x239 JUMPI DUP2 SLOAD PUSH1 0x1 PUSH1 0x1 PUSH1 0xA0 SHL SUB NOT DUP2 AND DUP3 OR DUP4 SSTORE PUSH1 0x1 PUSH1 0x1 PUSH1 0xA0 SHL SUB AND PUSH32 0x8BE0079C531659141344CD1FD0A4F28419497F9722A3DAAFE3B4186F6B6457E0 DUP4 DUP1 LOG3 DUP1 RETURN JUMPDEST PUSH4 0x1E4FBDF7 PUSH1 0xE0 SHL DUP3 MSTORE PUSH1 0x4 DUP3 SWAP1 MSTORE PUSH1 0x24 DUP3 REVERT JUMPDEST POP CALLVALUE PUSH2 0x1A6 JUMPI DUP1 PUSH1 0x3 NOT CALLDATASIZE ADD SLT PUSH2 0x1A6 JUMPI PUSH1 0x1 SLOAD PUSH1 0x40 MLOAD PUSH1 0x1 PUSH1 0x1 PUSH1 0xA0 SHL SUB SWAP1 SWAP2 AND DUP2 MSTORE PUSH1 0x20 SWAP1 RETURN JUMPDEST POP CALLVALUE PUSH2 0x1A6 JUMPI PUSH1 0x60 CALLDATASIZE PUSH1 0x3 NOT ADD SLT PUSH2 0x1A6 JUMPI PUSH1 0x4 CALLDATALOAD PUSH2 0x293 PUSH2 0x2833 JUMP JUMPDEST PUSH1 0x2 SLOAD PUSH1 0x44 CALLDATALOAD SWAP1 PUSH1 0x1 PUSH1 0x1 PUSH1 0xA0 SHL SUB AND CALLER SUB PUSH2 0x73E JUMPI DUP3 ISZERO ISZERO DUP1 PUSH2 0x732 JUMPI JUMPDEST PUSH2 0x2BB SWAP1 PUSH2 0x2910 JUMP JUMPDEST DUP1 DUP4 DUP6 MSTORE PUSH1 0x5 PUSH1 0x20 MSTORE PUSH1 0x40 DUP6 KECCAK256 SWAP1 PUSH1 0xC DUP3 ADD PUSH1 0xFF DUP2 SLOAD AND PUSH1 0x8 DUP2 LT ISZERO PUSH2 0x71E JUMPI PUSH1 0x5 SUB PUSH2 0x6EA JUMPI DUP5 ISZERO PUSH2 0x53D JUMPI DUP1 SLOAD PUSH1 0xFF NOT AND PUSH1 0x6 OR SWAP1 SSTORE ISZERO PUSH2 0x531 JUMPI JUMPDEST PUSH1 0x4 DUP2 ADD DUP1 SLOAD DUP4 GT PUSH2 0x4FA JUMPI PUSH1 0x1 SLOAD PUSH1 0x40 MLOAD PUSH4 0xA9059CBB PUSH1 0xE0 SHL DUP2 MSTORE PUSH1 0x1 PUSH1 0x1 PUSH1 0xA0 SHL SUB SWAP2 DUP3 AND PUSH1 0x4 DUP3 ADD MSTORE PUSH1 0x24 DUP2 ADD DUP6 SWAP1 MSTORE PUSH32 0x0 SWAP1 SWAP2 AND SWAP2 SWAP1 PUSH1 0x20 DUP2 PUSH1 0x44 DUP2 DUP12 DUP8 GAS CALL DUP1 ISZERO PUSH2 0x4EF JUMPI PUSH2 0x373 SWAP2 DUP10 SWAP2 PUSH2 0x4D0 JUMPI JUMPDEST POP PUSH2 0x29DA JUMP JUMPDEST SLOAD DUP1 DUP5 LT PUSH2 0x3EA JUMPI JUMPDEST POP POP POP PUSH32 0x5ADD0B1FC2A3DFD95BE33D1D5FEB6709087E50213B7A73C3C3B2C387001221E7 SWAP2 PUSH1 0x40 SWAP2 PUSH1 0x1 DUP1 PUSH1 0xA0 SHL SUB PUSH1 0x1 SLOAD AND DUP6 PUSH32 0x7A482FDEB6BC9A1376F597068A214A7A39472BB2EFF1B8CAD21BA04F49DDCA1B PUSH1 0x20 DUP7 MLOAD DUP6 DUP2 MSTORE LOG3 JUMPDEST DUP3 MLOAD SWAP2 ISZERO ISZERO DUP3 MSTORE PUSH1 0x20 DUP3 ADD MSTORE LOG2 DUP1 RETURN JUMPDEST PUSH2 0x3F7 DUP5 PUSH2 0x402 SWAP3 PUSH2 0x2B7E JUMP JUMPDEST PUSH1 0x5 DUP5 ADD SLOAD SWAP1 PUSH2 0x2B7E JUMP JUMPDEST SWAP2 DUP3 ISZERO PUSH2 0x37C JUMPI PUSH1 0x3 ADD SLOAD PUSH1 0x40 MLOAD PUSH4 0xA9059CBB PUSH1 0xE0 SHL DUP2 MSTORE PUSH1 0x1 PUSH1 0x1 PUSH1 0xA0 SHL SUB SWAP1 SWAP2 AND PUSH1 0x4 DUP3 ADD MSTORE PUSH1 0x24 DUP2 ADD SWAP3 SWAP1 SWAP3 MSTORE PUSH1 0x20 SWAP1 DUP3 SWAP1 PUSH1 0x44 SWAP1 DUP3 SWAP1 DUP10 SWAP1 GAS CALL SWAP1 DUP2 ISZERO PUSH2 0x4C5 JUMPI DUP6 SWAP2 PUSH2 0x496 JUMPI JUMPDEST POP ISZERO PUSH2 0x45C JUMPI PUSH0 DUP1 DUP1 PUSH2 0x37C JUMP JUMPDEST PUSH1 0x40 MLOAD PUSH3 0x461BCD PUSH1 0xE5 SHL DUP2 MSTORE PUSH1 0x20 PUSH1 0x4 DUP3 ADD MSTORE PUSH1 0x12 PUSH1 0x24 DUP3 ADD MSTORE PUSH18 0x1059D95B9D081CDA185C994819985A5B1959 PUSH1 0x72 SHL PUSH1 0x44 DUP3 ADD MSTORE PUSH1 0x64 SWAP1 REVERT JUMPDEST PUSH2 0x4B8 SWAP2 POP PUSH1 0x20 RETURNDATASIZE PUSH1 0x20 GT PUSH2 0x4BE JUMPI JUMPDEST PUSH2 0x4B0 DUP2 DUP4 PUSH2 0x2708 JUMP JUMPDEST DUP2 ADD SWAP1 PUSH2 0x29C2 JUMP JUMPDEST PUSH0 PUSH2 0x44E JUMP JUMPDEST POP RETURNDATASIZE PUSH2 0x4A6 JUMP JUMPDEST PUSH1 0x40 MLOAD RETURNDATASIZE DUP8 DUP3 RETURNDATACOPY RETURNDATASIZE SWAP1 REVERT JUMPDEST PUSH2 0x4E9 SWAP2 POP PUSH1 0x20 RETURNDATASIZE PUSH1 0x20 GT PUSH2 0x4BE JUMPI PUSH2 0x4B0 DUP2 DUP4 PUSH2 0x2708 JUMP JUMPDEST PUSH0 PUSH2 0x36D JUMP JUMPDEST PUSH1 0x40 MLOAD RETURNDATASIZE DUP11 DUP3 RETURNDATACOPY RETURNDATASIZE SWAP1 REVERT JUMPDEST PUSH1 0x40 MLOAD PUSH3 0x461BCD PUSH1 0xE5 SHL DUP2 MSTORE PUSH1 0x20 PUSH1 0x4 DUP3 ADD MSTORE PUSH1 0xF PUSH1 0x24 DUP3 ADD MSTORE PUSH15 0xA4CACCEADCC840E8DEDE40D0D2CED PUSH1 0x8B SHL PUSH1 0x44 DUP3 ADD MSTORE PUSH1 0x64 SWAP1 REVERT JUMPDEST PUSH1 0x4 DUP2 ADD SLOAD SWAP2 POP PUSH2 0x2F9 JUMP JUMPDEST DUP1 SLOAD PUSH1 0xFF NOT AND PUSH1 0x4 SWAP1 DUP2 OR SWAP1 SWAP2 SSTORE PUSH1 0x3 DUP4 ADD DUP1 SLOAD PUSH1 0x6 DUP6 ADD DUP1 SLOAD PUSH1 0x40 MLOAD PUSH4 0xA9059CBB PUSH1 0xE0 SHL DUP2 MSTORE PUSH1 0x1 PUSH1 0x1 PUSH1 0xA0 SHL SUB SWAP4 DUP5 AND SWAP6 DUP2 ADD SWAP6 SWAP1 SWAP6 MSTORE PUSH1 0x24 DUP6 ADD MSTORE PUSH32 0x0 SWAP1 SWAP2 AND SWAP7 SWAP2 SWAP6 SWAP2 SWAP5 SWAP2 SWAP4 POP SWAP2 DUP9 SWAP2 PUSH1 0x20 DUP3 PUSH1 0x44 DUP2 DUP7 DUP13 GAS CALL SWAP1 DUP2 ISZERO PUSH2 0x6DF JUMPI PUSH2 0x5D2 PUSH1 0x20 SWAP3 PUSH2 0x612 SWAP5 DUP7 SWAP2 PUSH2 0x6C2 JUMPI JUMPDEST POP PUSH2 0x2AF9 JUMP JUMPDEST PUSH1 0x1 SLOAD PUSH1 0x5 SWAP2 SWAP1 SWAP2 ADD DUP1 SLOAD PUSH1 0x40 MLOAD PUSH4 0xA9059CBB PUSH1 0xE0 SHL DUP2 MSTORE PUSH1 0x1 PUSH1 0x1 PUSH1 0xA0 SHL SUB SWAP1 SWAP4 AND PUSH1 0x4 DUP5 ADD MSTORE PUSH1 0x24 DUP4 ADD MSTORE SWAP9 SWAP1 SWAP3 DUP4 SWAP2 SWAP1 DUP3 SWAP1 DUP7 SWAP1 DUP3 SWAP1 PUSH1 0x44 DUP3 ADD SWAP1 JUMP JUMPDEST SUB SWAP3 GAS CALL SWAP1 DUP2 ISZERO PUSH2 0x6B7 JUMPI PUSH32 0x5ADD0B1FC2A3DFD95BE33D1D5FEB6709087E50213B7A73C3C3B2C387001221E7 SWAP8 PUSH1 0x40 SWAP8 PUSH2 0x677 PUSH32 0x8CDC8DC08E54A4E57F52077ECF1B4C508758513439CAE2AA325DCC85B922FCA8 SWAP5 DUP11 SWAP5 DUP14 SWAP8 SWAP2 PUSH2 0x698 JUMPI JUMPDEST POP PUSH2 0x2B3C JUMP JUMPDEST SLOAD SWAP5 SLOAD SWAP1 SLOAD DUP3 MLOAD SWAP2 DUP3 MSTORE PUSH1 0x20 DUP3 ADD MSTORE PUSH1 0x1 PUSH1 0x1 PUSH1 0xA0 SHL SUB SWAP1 SWAP5 AND SWAP4 LOG3 PUSH2 0x3DA JUMP JUMPDEST PUSH2 0x6B1 SWAP2 POP PUSH1 0x20 RETURNDATASIZE PUSH1 0x20 GT PUSH2 0x4BE JUMPI PUSH2 0x4B0 DUP2 DUP4 PUSH2 0x2708 JUMP JUMPDEST PUSH0 PUSH2 0x671 JUMP JUMPDEST PUSH1 0x40 MLOAD RETURNDATASIZE DUP5 DUP3 RETURNDATACOPY RETURNDATASIZE SWAP1 REVERT JUMPDEST PUSH2 0x6D9 SWAP2 POP DUP5 RETURNDATASIZE DUP7 GT PUSH2 0x4BE JUMPI PUSH2 0x4B0 DUP2 DUP4 PUSH2 0x2708 JUMP JUMPDEST PUSH0 PUSH2 0x5CC JUMP JUMPDEST PUSH1 0x40 MLOAD RETURNDATASIZE DUP6 DUP3 RETURNDATACOPY RETURNDATASIZE SWAP1 REVERT JUMPDEST PUSH1 0x40 MLOAD PUSH3 0x461BCD PUSH1 0xE5 SHL DUP2 MSTORE PUSH1 0x20 PUSH1 0x4 DUP3 ADD MSTORE PUSH1 0xC PUSH1 0x24 DUP3 ADD MSTORE PUSH12 0x139BDD08191A5CDC1D5D1959 PUSH1 0xA2 SHL PUSH1 0x44 DUP3 ADD MSTORE PUSH1 0x64 SWAP1 REVERT JUMPDEST PUSH4 0x4E487B71 PUSH1 0xE0 SHL DUP9 MSTORE PUSH1 0x21 PUSH1 0x4 MSTORE PUSH1 0x24 DUP9 REVERT JUMPDEST POP PUSH1 0x4 SLOAD DUP4 GT ISZERO PUSH2 0x2B2 JUMP JUMPDEST PUSH1 0x40 MLOAD PUSH3 0x461BCD PUSH1 0xE5 SHL DUP2 MSTORE PUSH1 0x20 PUSH1 0x4 DUP3 ADD MSTORE PUSH1 0x14 PUSH1 0x24 DUP3 ADD MSTORE PUSH20 0x2737BA103234B9B83ABA32903932B9B7B63B32B9 PUSH1 0x61 SHL PUSH1 0x44 DUP3 ADD MSTORE PUSH1 0x64 SWAP1 REVERT JUMPDEST POP CALLVALUE PUSH2 0x1A6 JUMPI DUP1 PUSH1 0x3 NOT CALLDATASIZE ADD SLT PUSH2 0x1A6 JUMPI PUSH1 0x40 MLOAD PUSH32 0x0 PUSH1 0x1 PUSH1 0x1 PUSH1 0xA0 SHL SUB AND DUP2 MSTORE PUSH1 0x20 SWAP1 RETURN JUMPDEST POP CALLVALUE PUSH2 0x9BF JUMPI PUSH1 0xA0 CALLDATASIZE PUSH1 0x3 NOT ADD SLT PUSH2 0x9BF JUMPI PUSH1 0x4 CALLDATALOAD PUSH1 0x24 CALLDATALOAD SWAP1 DUP2 PUSH1 0xF SIGNEXTEND DUP1 SWAP3 SUB PUSH2 0x9BF JUMPI PUSH1 0x44 CALLDATALOAD SWAP2 PUSH1 0xFF DUP4 AND DUP1 SWAP4 SUB PUSH2 0x9BF JUMPI PUSH1 0x64 CALLDATALOAD PUSH1 0x1 PUSH1 0x1 PUSH1 0x40 SHL SUB DUP2 GT PUSH2 0x9BF JUMPI PUSH2 0x811 SWAP1 CALLDATASIZE SWAP1 PUSH1 0x4 ADD PUSH2 0x2842 JUMP JUMPDEST SWAP2 SWAP1 SWAP4 PUSH1 0x84 CALLDATALOAD PUSH1 0x1 PUSH1 0x1 PUSH1 0x40 SHL SUB DUP2 GT PUSH2 0x9BF JUMPI PUSH2 0x833 SWAP1 CALLDATASIZE SWAP1 PUSH1 0x4 ADD PUSH2 0x2842 JUMP JUMPDEST DUP6 ISZERO ISZERO DUP1 PUSH2 0xA16 JUMPI JUMPDEST PUSH2 0x845 SWAP1 PUSH2 0x2910 JUMP JUMPDEST DUP6 PUSH0 MSTORE PUSH1 0x5 PUSH1 0x20 MSTORE PUSH1 0x40 PUSH0 KECCAK256 SWAP3 PUSH2 0x869 PUSH1 0x1 DUP1 PUSH1 0xA0 SHL SUB PUSH1 0x1 DUP7 ADD SLOAD AND CALLER EQ PUSH2 0x2A53 JUMP JUMPDEST PUSH1 0xFF PUSH1 0xC DUP6 ADD SLOAD AND PUSH1 0x8 DUP2 LT ISZERO PUSH2 0xA02 JUMPI PUSH1 0x4 DUP2 EQ SWAP1 DUP2 ISZERO PUSH2 0x9F7 JUMPI JUMPDEST POP ISZERO PUSH2 0x9C3 JUMPI PUSH1 0x2 PUSH1 0x1 DUP1 PUSH1 0xA0 SHL SUB PUSH32 0x0 AND SWAP5 ADD SWAP4 DUP5 SLOAD SWAP3 DUP2 EXTCODESIZE ISZERO PUSH2 0x9BF JUMPI PUSH0 DUP1 SWAP5 PUSH2 0x918 DUP11 SWAP8 DUP11 SWAP5 PUSH2 0x906 DUP16 PUSH1 0x40 MLOAD SWAP12 DUP13 SWAP11 DUP12 SWAP10 DUP11 SWAP9 PUSH4 0xD8DC7661 PUSH1 0xE0 SHL DUP11 MSTORE PUSH1 0x4 DUP11 ADD MSTORE PUSH1 0x24 DUP10 ADD MSTORE PUSH1 0x44 DUP9 ADD MSTORE PUSH1 0xC0 PUSH1 0x64 DUP9 ADD MSTORE PUSH1 0xC4 DUP8 ADD SWAP2 PUSH2 0x2A8A JUMP JUMPDEST DUP5 DUP2 SUB PUSH1 0x3 NOT ADD PUSH1 0x84 DUP7 ADD MSTORE SWAP2 PUSH2 0x2A8A JUMP JUMPDEST DUP3 PUSH1 0xA4 DUP4 ADD MSTORE SUB SWAP3 GAS CALL DUP1 ISZERO PUSH2 0x9B4 JUMPI PUSH2 0x976 JUMPI JUMPDEST POP SWAP1 PUSH2 0x970 PUSH32 0xA5CCC2FC6EE90577472F2DADAE332A7567AF704ED9F01C290699D77F9C1EC3E3 SWAP4 SWAP3 SLOAD SWAP6 PUSH1 0x40 MLOAD SWAP4 DUP5 SWAP4 DUP5 MSTORE PUSH1 0x40 PUSH1 0x20 DUP6 ADD MSTORE PUSH1 0x40 DUP5 ADD SWAP2 PUSH2 0x2A8A JUMP JUMPDEST SUB SWAP1 LOG3 DUP1 RETURN JUMPDEST PUSH32 0xA5CCC2FC6EE90577472F2DADAE332A7567AF704ED9F01C290699D77F9C1EC3E3 SWAP4 SWAP3 SWAP2 SWAP7 POP PUSH0 PUSH2 0x9A6 SWAP2 PUSH2 0x2708 JUMP JUMPDEST PUSH2 0x970 PUSH0 SWAP7 SWAP2 SWAP3 SWAP4 POP PUSH2 0x92D JUMP JUMPDEST PUSH1 0x40 MLOAD RETURNDATASIZE PUSH0 DUP3 RETURNDATACOPY RETURNDATASIZE SWAP1 REVERT JUMPDEST PUSH0 DUP1 REVERT JUMPDEST PUSH1 0x40 MLOAD PUSH3 0x461BCD PUSH1 0xE5 SHL DUP2 MSTORE PUSH1 0x20 PUSH1 0x4 DUP3 ADD MSTORE PUSH1 0xC PUSH1 0x24 DUP3 ADD MSTORE PUSH12 0x139BDD08199A5B9A5CDA1959 PUSH1 0xA2 SHL PUSH1 0x44 DUP3 ADD MSTORE PUSH1 0x64 SWAP1 REVERT JUMPDEST PUSH1 0x6 SWAP2 POP EQ PUSH0 PUSH2 0x886 JUMP JUMPDEST PUSH4 0x4E487B71 PUSH1 0xE0 SHL PUSH0 MSTORE PUSH1 0x21 PUSH1 0x4 MSTORE PUSH1 0x24 PUSH0 REVERT JUMPDEST POP PUSH1 0x4 SLOAD DUP7 GT ISZERO PUSH2 0x83C JUMP JUMPDEST CALLVALUE PUSH2 0x9BF JUMPI PUSH1 0x40 CALLDATASIZE PUSH1 0x3 NOT ADD SLT PUSH2 0x9BF JUMPI PUSH1 0x24 CALLDATALOAD PUSH1 0x4 CALLDATALOAD PUSH0 MSTORE PUSH1 0x7 PUSH1 0x20 MSTORE PUSH1 0x40 PUSH0 KECCAK256 DUP1 SLOAD DUP3 LT ISZERO PUSH2 0x9BF JUMPI PUSH1 0x20 SWAP2 PUSH2 0xA59 SWAP2 PUSH2 0x28A2 JUMP JUMPDEST SWAP1 SLOAD SWAP1 PUSH1 0x3 SHL SHR PUSH1 0x40 MLOAD SWAP1 DUP2 MSTORE RETURN JUMPDEST CALLVALUE PUSH2 0x9BF JUMPI PUSH1 0x20 CALLDATASIZE PUSH1 0x3 NOT ADD SLT PUSH2 0x9BF JUMPI PUSH1 0x4 CALLDATALOAD PUSH1 0x1 PUSH1 0x1 PUSH1 0x40 SHL SUB DUP2 GT PUSH2 0x9BF JUMPI CALLDATASIZE PUSH1 0x23 DUP3 ADD SLT ISZERO PUSH2 0x9BF JUMPI PUSH1 0x20 DUP1 PUSH2 0xAAD DUP2 SWAP4 CALLDATASIZE SWAP1 PUSH1 0x24 DUP2 PUSH1 0x4 ADD CALLDATALOAD SWAP2 ADD PUSH2 0x28CB JUMP JUMPDEST PUSH1 0x40 MLOAD SWAP3 DUP2 DUP5 SWAP3 MLOAD SWAP2 DUP3 SWAP2 ADD DUP4 MCOPY DUP2 ADD PUSH1 0x8 DUP2 MSTORE SUB ADD SWAP1 KECCAK256 SLOAD PUSH1 0x40 MLOAD SWAP1 DUP2 MSTORE RETURN JUMPDEST CALLVALUE PUSH2 0x9BF JUMPI PUSH1 0xE0 CALLDATASIZE PUSH1 0x3 NOT ADD SLT PUSH2 0x9BF JUMPI PUSH2 0xAE7 PUSH2 0x269E JUMP JUMPDEST PUSH1 0x84 CALLDATALOAD PUSH1 0x1 PUSH1 0x1 PUSH1 0x40 SHL SUB DUP2 GT PUSH2 0x9BF JUMPI PUSH2 0xB06 SWAP1 CALLDATASIZE SWAP1 PUSH1 0x4 ADD PUSH2 0x2842 JUMP JUMPDEST SWAP2 PUSH1 0xA4 CALLDATALOAD PUSH1 0x1 PUSH1 0x1 PUSH1 0x40 SHL SUB DUP2 GT PUSH2 0x9BF JUMPI PUSH2 0xB26 SWAP1 CALLDATASIZE SWAP1 PUSH1 0x4 ADD PUSH2 0x2842 JUMP JUMPDEST PUSH1 0xC4 CALLDATALOAD CALLER PUSH0 MSTORE PUSH1 0x9 PUSH1 0x20 MSTORE PUSH2 0xB41 PUSH1 0xFF PUSH1 0x40 PUSH0 KECCAK256 SLOAD AND PUSH2 0x2A16 JUMP JUMPDEST PUSH1 0x1 PUSH1 0x1 PUSH1 0xA0 SHL SUB DUP5 AND ISZERO PUSH2 0x13A3 JUMPI PUSH1 0x44 CALLDATALOAD ISZERO PUSH2 0x1369 JUMPI DUP2 ISZERO PUSH2 0x1332 JUMPI PUSH1 0x40 MLOAD DUP3 DUP5 DUP3 CALLDATACOPY PUSH1 0x20 DUP2 DUP5 DUP2 ADD PUSH1 0x8 DUP2 MSTORE SUB ADD SWAP1 KECCAK256 SLOAD PUSH2 0x12F7 JUMPI PUSH3 0x93A80 DUP2 GT PUSH2 0x12BE JUMPI PUSH1 0x40 MLOAD PUSH4 0xAF34D31 PUSH1 0xE3 SHL DUP2 MSTORE PUSH1 0x24 DUP1 CALLDATALOAD PUSH1 0x4 DUP4 ADD MSTORE PUSH32 0x0 PUSH1 0x1 PUSH1 0x1 PUSH1 0xA0 SHL SUB AND SWAP2 SWAP1 PUSH1 0x20 SWAP1 DUP3 SWAP1 DUP2 DUP6 GAS STATICCALL SWAP1 DUP2 ISZERO PUSH2 0x9B4 JUMPI PUSH0 SWAP2 PUSH2 0x129F JUMPI JUMPDEST POP ISZERO PUSH2 0x1263 JUMPI PUSH1 0x40 MLOAD PUSH4 0x82AFD23B PUSH1 0xE0 SHL DUP2 MSTORE PUSH1 0x24 CALLDATALOAD PUSH1 0x4 DUP3 ADD MSTORE PUSH1 0x20 DUP2 PUSH1 0x24 DUP2 DUP6 GAS STATICCALL SWAP1 DUP2 ISZERO PUSH2 0x9B4 JUMPI PUSH0 SWAP2 PUSH2 0x1244 JUMPI JUMPDEST POP ISZERO PUSH2 0x120C JUMPI PUSH1 0x20 PUSH1 0x24 SWAP2 PUSH1 0x40 MLOAD SWAP3 DUP4 DUP1 SWAP3 PUSH3 0x339509 PUSH1 0xE0 SHL DUP3 MSTORE DUP3 CALLDATALOAD PUSH1 0x4 DUP4 ADD MSTORE GAS STATICCALL SWAP1 DUP2 ISZERO PUSH2 0x9B4 JUMPI PUSH0 SWAP2 PUSH2 0x11CA JUMPI JUMPDEST POP PUSH1 0x1 PUSH1 0x1 PUSH1 0xA0 SHL SUB AND SWAP6 DUP7 ISZERO PUSH2 0x118F JUMPI PUSH1 0x4 SLOAD SWAP6 PUSH0 NOT DUP8 EQ PUSH2 0x117B JUMPI PUSH1 0x1 DUP8 ADD PUSH1 0x4 SSTORE PUSH1 0x3 SLOAD SWAP2 DUP3 PUSH1 0x44 CALLDATALOAD MUL SWAP3 PUSH1 0x44 CALLDATALOAD DUP5 DIV SUB PUSH2 0x117B JUMPI PUSH2 0xC87 PUSH2 0x2710 DUP5 DIV PUSH1 0x44 CALLDATALOAD PUSH2 0x2B7E JUMP JUMPDEST SWAP4 TIMESTAMP ADD SWAP4 DUP5 TIMESTAMP GT PUSH2 0x117B JUMPI PUSH2 0x2710 PUSH2 0xCEA SWAP5 PUSH1 0x40 MLOAD SWAP12 PUSH2 0xCA6 DUP14 PUSH2 0x26EC JUMP JUMPDEST PUSH1 0x1 DUP13 ADD DUP14 MSTORE PUSH1 0x1 PUSH1 0x1 PUSH1 0xA0 SHL SUB DUP12 AND PUSH1 0x20 DUP15 ADD MSTORE PUSH1 0x24 CALLDATALOAD PUSH1 0x40 DUP15 ADD MSTORE PUSH1 0x60 DUP14 ADD MSTORE PUSH1 0x44 CALLDATALOAD PUSH1 0x80 DUP14 ADD MSTORE DIV PUSH1 0xA0 DUP12 ADD MSTORE PUSH1 0xC0 DUP11 ADD MSTORE PUSH1 0x64 CALLDATALOAD PUSH1 0xE0 DUP11 ADD MSTORE CALLDATASIZE SWAP2 PUSH2 0x28CB JUMP JUMPDEST PUSH2 0x100 DUP8 ADD MSTORE TIMESTAMP PUSH2 0x120 DUP8 ADD MSTORE PUSH2 0x140 DUP7 ADD MSTORE PUSH0 PUSH2 0x160 DUP7 ADD MSTORE PUSH0 PUSH2 0x180 DUP7 ADD MSTORE PUSH2 0xD16 CALLDATASIZE DUP3 DUP5 PUSH2 0x28CB JUMP JUMPDEST PUSH2 0x1A0 DUP7 ADD MSTORE PUSH1 0x20 SWAP5 PUSH1 0x40 MLOAD PUSH2 0xD2C DUP8 DUP3 PUSH2 0x2708 JUMP JUMPDEST PUSH0 DUP1 DUP3 MSTORE PUSH2 0x1C0 DUP4 ADD SWAP2 SWAP1 SWAP2 MSTORE PUSH2 0x1E0 DUP3 ADD DUP2 SWAP1 MSTORE PUSH2 0x200 DUP3 ADD DUP2 SWAP1 MSTORE PUSH1 0x1 DUP7 DUP2 ADD DUP3 MSTORE PUSH1 0x5 DUP1 DUP10 MSTORE PUSH1 0x40 SWAP3 DUP4 SWAP1 KECCAK256 DUP5 MLOAD DUP2 SSTORE PUSH1 0x20 DUP6 ADD MLOAD SWAP3 DUP2 ADD DUP1 SLOAD PUSH1 0x1 PUSH1 0x1 PUSH1 0xA0 SHL SUB SWAP5 DUP6 AND PUSH1 0x1 PUSH1 0x1 PUSH1 0xA0 SHL SUB NOT SWAP2 DUP3 AND OR SWAP1 SWAP2 SSTORE SWAP4 DUP6 ADD MLOAD PUSH1 0x2 DUP3 ADD SSTORE PUSH1 0x60 DUP6 ADD MLOAD PUSH1 0x3 DUP3 ADD DUP1 SLOAD SWAP2 SWAP1 SWAP5 AND SWAP5 AND SWAP4 SWAP1 SWAP4 OR SWAP1 SWAP2 SSTORE PUSH1 0x80 DUP4 ADD MLOAD PUSH1 0x4 DUP4 ADD SSTORE PUSH1 0xA0 DUP4 ADD MLOAD SWAP1 DUP3 ADD SSTORE PUSH1 0xC0 DUP3 ADD MLOAD PUSH1 0x6 DUP3 ADD SSTORE PUSH1 0xE0 DUP3 ADD MLOAD PUSH1 0x7 DUP3 ADD SSTORE PUSH2 0x100 DUP3 ADD MLOAD DUP1 MLOAD PUSH1 0x8 DUP4 ADD SWAP2 PUSH1 0x1 PUSH1 0x1 PUSH1 0x40 SHL SUB DUP3 GT PUSH2 0x1096 JUMPI PUSH2 0xDFB DUP3 PUSH2 0xDF5 DUP6 SLOAD PUSH2 0x26B4 JUMP JUMPDEST DUP6 PUSH2 0x2AAA JUMP JUMPDEST DUP10 SWAP1 PUSH1 0x1F DUP4 GT PUSH1 0x1 EQ PUSH2 0x1118 JUMPI PUSH2 0xE29 SWAP3 SWAP2 PUSH0 SWAP2 DUP4 PUSH2 0x10AA JUMPI JUMPDEST POP POP DUP2 PUSH1 0x1 SHL SWAP2 PUSH0 NOT SWAP1 PUSH1 0x3 SHL SHR NOT AND OR SWAP1 JUMP JUMPDEST SWAP1 SSTORE JUMPDEST PUSH2 0x120 DUP3 ADD MLOAD PUSH1 0x9 DUP3 ADD SSTORE PUSH2 0x140 DUP3 ADD MLOAD PUSH1 0xA DUP3 ADD SSTORE PUSH2 0x160 DUP3 ADD MLOAD PUSH1 0xB DUP3 ADD SSTORE PUSH1 0xC DUP2 ADD PUSH2 0x180 DUP4 ADD MLOAD PUSH1 0x8 DUP2 LT ISZERO PUSH2 0xA02 JUMPI PUSH1 0xFF DUP1 NOT DUP4 SLOAD AND SWAP2 AND OR SWAP1 SSTORE PUSH1 0xD DUP2 ADD PUSH2 0x1A0 DUP4 ADD MLOAD DUP1 MLOAD SWAP1 PUSH1 0x1 PUSH1 0x1 PUSH1 0x40 SHL SUB DUP3 GT PUSH2 0x1096 JUMPI PUSH2 0xE95 DUP3 PUSH2 0xDF5 DUP6 SLOAD PUSH2 0x26B4 JUMP JUMPDEST DUP10 SWAP1 PUSH1 0x1F DUP4 GT PUSH1 0x1 EQ PUSH2 0x10B5 JUMPI PUSH2 0xEC2 SWAP3 SWAP2 PUSH0 SWAP2 DUP4 PUSH2 0x10AA JUMPI POP POP DUP2 PUSH1 0x1 SHL SWAP2 PUSH0 NOT SWAP1 PUSH1 0x3 SHL SHR NOT AND OR SWAP1 JUMP JUMPDEST SWAP1 SSTORE JUMPDEST PUSH2 0x1C0 DUP3 ADD MLOAD DUP1 MLOAD SWAP1 PUSH1 0x1 PUSH1 0x1 PUSH1 0x40 SHL SUB DUP3 GT PUSH2 0x1096 JUMPI PUSH2 0xEF6 DUP3 PUSH2 0xEED PUSH1 0xE DUP7 ADD SLOAD PUSH2 0x26B4 JUMP JUMPDEST PUSH1 0xE DUP7 ADD PUSH2 0x2AAA JUMP JUMPDEST DUP9 SWAP1 PUSH1 0x1F DUP4 GT PUSH1 0x1 EQ PUSH2 0x1025 JUMPI DUP3 PUSH1 0xF SWAP4 PUSH2 0x200 SWAP6 SWAP4 PUSH2 0xF2A SWAP4 PUSH0 SWAP3 PUSH2 0x101A JUMPI POP POP DUP2 PUSH1 0x1 SHL SWAP2 PUSH0 NOT SWAP1 PUSH1 0x3 SHL SHR NOT AND OR SWAP1 JUMP JUMPDEST PUSH1 0xE DUP3 ADD SSTORE JUMPDEST ADD SWAP2 PUSH2 0xF4F PUSH2 0x1E0 DUP3 ADD MLOAD ISZERO ISZERO DUP5 SWAP1 PUSH1 0xFF DUP1 NOT DUP4 SLOAD AND SWAP2 ISZERO ISZERO AND OR SWAP1 SSTORE JUMP JUMPDEST ADD MLOAD DUP2 SLOAD PUSH2 0xFF00 NOT AND SWAP1 ISZERO ISZERO PUSH1 0x8 SHL PUSH2 0xFF00 AND OR SWAP1 SSTORE PUSH1 0x1 PUSH1 0x1 PUSH1 0xA0 SHL SUB DUP4 AND PUSH0 SWAP1 DUP2 MSTORE PUSH1 0x6 DUP7 MSTORE PUSH1 0x40 SWAP1 KECCAK256 PUSH2 0xF89 SWAP1 PUSH1 0x1 DUP7 ADD SWAP1 PUSH2 0x2B8B JUMP JUMPDEST PUSH1 0x24 CALLDATALOAD PUSH0 MSTORE PUSH1 0x7 DUP6 MSTORE PUSH2 0xFA2 PUSH1 0x1 DUP6 ADD PUSH1 0x40 PUSH0 KECCAK256 PUSH2 0x2B8B JUMP JUMPDEST PUSH1 0x40 MLOAD DUP2 DUP4 DUP3 CALLDATACOPY DUP2 DUP2 ADD SWAP1 PUSH1 0x8 DUP3 MSTORE DUP7 DUP2 PUSH1 0x1 DUP9 ADD SWAP4 SUB ADD SWAP1 KECCAK256 SSTORE PUSH32 0x3B9E55F0C57EFEE0E9B680065A19CBEC3530FDFCF4B19BFA01E8D984D257408D PUSH1 0x40 MLOAD PUSH1 0x44 CALLDATALOAD DUP2 MSTORE PUSH1 0x40 DUP8 DUP3 ADD MSTORE DUP1 PUSH2 0x100C PUSH1 0x24 CALLDATALOAD SWAP7 PUSH1 0x1 DUP1 PUSH1 0xA0 SHL SUB AND SWAP6 PUSH1 0x1 DUP10 ADD SWAP6 PUSH1 0x40 DUP5 ADD SWAP2 PUSH2 0x2A8A JUMP JUMPDEST SUB SWAP1 LOG4 PUSH1 0x1 PUSH1 0x40 MLOAD SWAP2 ADD DUP2 MSTORE RETURN JUMPDEST ADD MLOAD SWAP1 POP DUP13 DUP1 PUSH2 0xE15 JUMP JUMPDEST SWAP1 PUSH1 0xE DUP5 ADD PUSH0 MSTORE DUP10 PUSH0 KECCAK256 SWAP2 PUSH0 JUMPDEST DUP12 PUSH1 0x1F NOT DUP7 AND DUP3 LT PUSH2 0x1080 JUMPI POP POP SWAP3 PUSH2 0x200 SWAP5 SWAP3 PUSH1 0x1 SWAP3 PUSH1 0xF SWAP6 DUP4 PUSH1 0x1F NOT DUP2 AND LT PUSH2 0x1068 JUMPI JUMPDEST POP POP POP DUP2 SHL ADD PUSH1 0xE DUP3 ADD SSTORE PUSH2 0xF30 JUMP JUMPDEST ADD MLOAD PUSH0 NOT PUSH1 0xF8 DUP5 PUSH1 0x3 SHL AND SHR NOT AND SWAP1 SSTORE DUP12 DUP1 DUP1 PUSH2 0x1058 JUMP JUMPDEST PUSH1 0x1 DUP5 SWAP6 DUP3 SWAP4 SWAP6 DUP6 ADD MLOAD DUP2 SSTORE ADD SWAP5 ADD SWAP3 ADD PUSH2 0x1032 JUMP JUMPDEST PUSH4 0x4E487B71 PUSH1 0xE0 SHL PUSH0 MSTORE PUSH1 0x41 PUSH1 0x4 MSTORE PUSH1 0x24 PUSH0 REVERT JUMPDEST ADD MLOAD SWAP1 POP DUP12 DUP1 PUSH2 0xE15 JUMP JUMPDEST SWAP1 PUSH1 0x1F NOT DUP4 AND SWAP2 DUP5 PUSH0 MSTORE DUP12 PUSH0 KECCAK256 SWAP3 PUSH0 JUMPDEST DUP14 DUP3 DUP3 LT PUSH2 0x1102 JUMPI POP POP SWAP1 DUP5 PUSH1 0x1 SWAP6 SWAP5 SWAP4 SWAP3 LT PUSH2 0x10EA JUMPI JUMPDEST POP POP POP DUP2 SHL ADD SWAP1 SSTORE PUSH2 0xEC5 JUMP JUMPDEST ADD MLOAD PUSH0 NOT PUSH1 0xF8 DUP5 PUSH1 0x3 SHL AND SHR NOT AND SWAP1 SSTORE DUP11 DUP1 DUP1 PUSH2 0x10DD JUMP JUMPDEST PUSH1 0x1 DUP6 SWAP7 DUP3 SWAP4 SWAP7 DUP7 ADD MLOAD DUP2 SSTORE ADD SWAP6 ADD SWAP4 ADD PUSH2 0x10C5 JUMP JUMPDEST SWAP1 PUSH1 0x1F NOT DUP4 AND SWAP2 DUP5 PUSH0 MSTORE DUP12 PUSH0 KECCAK256 SWAP3 PUSH0 JUMPDEST DUP14 DUP3 DUP3 LT PUSH2 0x1165 JUMPI POP POP SWAP1 DUP5 PUSH1 0x1 SWAP6 SWAP5 SWAP4 SWAP3 LT PUSH2 0x114D JUMPI JUMPDEST POP POP POP DUP2 SHL ADD SWAP1 SSTORE PUSH2 0xE2C JUMP JUMPDEST ADD MLOAD PUSH0 NOT PUSH1 0xF8 DUP5 PUSH1 0x3 SHL AND SHR NOT AND SWAP1 SSTORE DUP11 DUP1 DUP1 PUSH2 0x1140 JUMP JUMPDEST PUSH1 0x1 DUP6 SWAP7 DUP3 SWAP4 SWAP7 DUP7 ADD MLOAD DUP2 SSTORE ADD SWAP6 ADD SWAP4 ADD PUSH2 0x1128 JUMP JUMPDEST PUSH4 0x4E487B71 PUSH1 0xE0 SHL PUSH0 MSTORE PUSH1 0x11 PUSH1 0x4 MSTORE PUSH1 0x24 PUSH0 REVERT JUMPDEST PUSH1 0x40 MLOAD PUSH3 0x461BCD PUSH1 0xE5 SHL DUP2 MSTORE PUSH1 0x20 PUSH1 0x4 DUP3 ADD MSTORE PUSH1 0x13 PUSH1 0x24 DUP3 ADD MSTORE PUSH19 0x1059D95B9D081A185CC81B9BC81DD85B1B195D PUSH1 0x6A SHL PUSH1 0x44 DUP3 ADD MSTORE PUSH1 0x64 SWAP1 REVERT JUMPDEST SWAP1 POP PUSH1 0x20 DUP2 RETURNDATASIZE PUSH1 0x20 GT PUSH2 0x1204 JUMPI JUMPDEST DUP2 PUSH2 0x11E5 PUSH1 0x20 SWAP4 DUP4 PUSH2 0x2708 JUMP JUMPDEST DUP2 ADD SUB SLT PUSH2 0x9BF JUMPI MLOAD PUSH1 0x1 PUSH1 0x1 PUSH1 0xA0 SHL SUB DUP2 AND DUP2 SUB PUSH2 0x9BF JUMPI DUP8 PUSH2 0xC3F JUMP JUMPDEST RETURNDATASIZE SWAP2 POP PUSH2 0x11D8 JUMP JUMPDEST PUSH1 0x40 MLOAD PUSH3 0x461BCD PUSH1 0xE5 SHL DUP2 MSTORE PUSH1 0x20 PUSH1 0x4 DUP3 ADD MSTORE PUSH1 0x10 PUSH1 0x24 DUP3 ADD MSTORE PUSH16 0x4167656E74206E6F7420616374697665 PUSH1 0x80 SHL PUSH1 0x44 DUP3 ADD MSTORE PUSH1 0x64 SWAP1 REVERT JUMPDEST PUSH2 0x125D SWAP2 POP PUSH1 0x20 RETURNDATASIZE PUSH1 0x20 GT PUSH2 0x4BE JUMPI PUSH2 0x4B0 DUP2 DUP4 PUSH2 0x2708 JUMP JUMPDEST DUP9 PUSH2 0xC0D JUMP JUMPDEST PUSH1 0x40 MLOAD PUSH3 0x461BCD PUSH1 0xE5 SHL DUP2 MSTORE PUSH1 0x20 PUSH1 0x4 DUP3 ADD MSTORE PUSH1 0x14 PUSH1 0x24 DUP3 ADD MSTORE PUSH20 0x1059D95B9D081B9BDD081C9959DA5CDD195C9959 PUSH1 0x62 SHL PUSH1 0x44 DUP3 ADD MSTORE PUSH1 0x64 SWAP1 REVERT JUMPDEST PUSH2 0x12B8 SWAP2 POP PUSH1 0x20 RETURNDATASIZE PUSH1 0x20 GT PUSH2 0x4BE JUMPI PUSH2 0x4B0 DUP2 DUP4 PUSH2 0x2708 JUMP JUMPDEST DUP9 PUSH2 0xBDB JUMP JUMPDEST PUSH1 0x40 MLOAD PUSH3 0x461BCD PUSH1 0xE5 SHL DUP2 MSTORE PUSH1 0x20 PUSH1 0x4 DUP3 ADD MSTORE PUSH1 0x11 PUSH1 0x24 DUP3 ADD MSTORE PUSH17 0x446561646C696E6520746F6F206C6F6E67 PUSH1 0x78 SHL PUSH1 0x44 DUP3 ADD MSTORE PUSH1 0x64 SWAP1 REVERT JUMPDEST PUSH1 0x40 MLOAD PUSH3 0x461BCD PUSH1 0xE5 SHL DUP2 MSTORE PUSH1 0x20 PUSH1 0x4 DUP3 ADD MSTORE PUSH1 0x13 PUSH1 0x24 DUP3 ADD MSTORE PUSH19 0x15541248125108185B1C9958591E481D5CD959 PUSH1 0x6A SHL PUSH1 0x44 DUP3 ADD MSTORE PUSH1 0x64 SWAP1 REVERT JUMPDEST PUSH1 0x40 MLOAD PUSH3 0x461BCD PUSH1 0xE5 SHL DUP2 MSTORE PUSH1 0x20 PUSH1 0x4 DUP3 ADD MSTORE PUSH1 0xF PUSH1 0x24 DUP3 ADD MSTORE PUSH15 0x155412481251081C995C5D5A5C9959 PUSH1 0x8A SHL PUSH1 0x44 DUP3 ADD MSTORE PUSH1 0x64 SWAP1 REVERT JUMPDEST PUSH1 0x40 MLOAD PUSH3 0x461BCD PUSH1 0xE5 SHL DUP2 MSTORE PUSH1 0x20 PUSH1 0x4 DUP3 ADD MSTORE PUSH1 0x12 PUSH1 0x24 DUP3 ADD MSTORE PUSH18 0x416D6F756E74206D757374206265203E203 PUSH1 0x74 SHL PUSH1 0x44 DUP3 ADD MSTORE PUSH1 0x64 SWAP1 REVERT JUMPDEST PUSH1 0x40 MLOAD PUSH3 0x461BCD PUSH1 0xE5 SHL DUP2 MSTORE PUSH1 0x20 PUSH1 0x4 DUP3 ADD MSTORE PUSH1 0xC PUSH1 0x24 DUP3 ADD MSTORE PUSH12 0x24B73B30B634B2103AB9B2B9 PUSH1 0xA1 SHL PUSH1 0x44 DUP3 ADD MSTORE PUSH1 0x64 SWAP1 REVERT JUMPDEST CALLVALUE PUSH2 0x9BF JUMPI PUSH0 CALLDATASIZE PUSH1 0x3 NOT ADD SLT PUSH2 0x9BF JUMPI PUSH0 SLOAD PUSH1 0x40 MLOAD PUSH1 0x1 PUSH1 0x1 PUSH1 0xA0 SHL SUB SWAP1 SWAP2 AND DUP2 MSTORE PUSH1 0x20 SWAP1 RETURN JUMPDEST CALLVALUE PUSH2 0x9BF JUMPI PUSH1 0x20 CALLDATASIZE PUSH1 0x3 NOT ADD SLT PUSH2 0x9BF JUMPI PUSH1 0x4 CALLDATALOAD PUSH2 0x141A PUSH2 0x2BC4 JUMP JUMPDEST DUP1 ISZERO ISZERO DUP1 PUSH2 0x16B1 JUMPI JUMPDEST PUSH2 0x142C SWAP1 PUSH2 0x2910 JUMP JUMPDEST DUP1 PUSH0 MSTORE PUSH1 0x5 PUSH1 0x20 MSTORE PUSH1 0x40 PUSH0 KECCAK256 SWAP1 PUSH1 0xC DUP3 ADD PUSH1 0xFF DUP2 SLOAD AND PUSH1 0x8 DUP2 LT ISZERO PUSH2 0xA02 JUMPI PUSH1 0x3 SUB PUSH2 0x167C JUMPI PUSH1 0x1 DUP4 ADD SLOAD CALLER PUSH1 0x1 PUSH1 0x1 PUSH1 0xA0 SHL SUB SWAP1 SWAP2 AND SUB PUSH2 0x15ED JUMPI PUSH1 0xF DUP4 ADD DUP1 SLOAD PUSH1 0xFF NOT AND PUSH1 0x1 OR SWAP1 SSTORE JUMPDEST DUP1 SLOAD PUSH1 0xFF NOT AND PUSH1 0x4 SWAP1 DUP2 OR SWAP1 SWAP2 SSTORE PUSH1 0x3 DUP4 ADD DUP1 SLOAD PUSH1 0x6 DUP6 ADD DUP1 SLOAD PUSH1 0x40 MLOAD PUSH4 0xA9059CBB PUSH1 0xE0 SHL DUP2 MSTORE PUSH1 0x1 PUSH1 0x1 PUSH1 0xA0 SHL SUB SWAP4 DUP5 AND SWAP6 DUP2 ADD SWAP6 SWAP1 SWAP6 MSTORE PUSH1 0x24 DUP6 ADD MSTORE SWAP5 PUSH32 0x0 SWAP1 SWAP2 AND SWAP1 PUSH1 0x20 DUP5 PUSH1 0x44 DUP2 PUSH0 DUP7 GAS CALL SWAP1 DUP2 ISZERO PUSH2 0x9B4 JUMPI PUSH2 0x1503 PUSH1 0x20 SWAP3 PUSH2 0x1543 SWAP7 PUSH0 SWAP2 PUSH2 0x15D0 JUMPI POP PUSH2 0x2AF9 JUMP JUMPDEST PUSH1 0x1 SLOAD PUSH1 0x5 SWAP2 SWAP1 SWAP2 ADD DUP1 SLOAD PUSH1 0x40 MLOAD PUSH4 0xA9059CBB PUSH1 0xE0 SHL DUP2 MSTORE PUSH1 0x1 PUSH1 0x1 PUSH1 0xA0 SHL SUB SWAP1 SWAP4 AND PUSH1 0x4 DUP5 ADD MSTORE PUSH1 0x24 DUP4 ADD MSTORE SWAP1 SWAP5 SWAP1 SWAP3 DUP6 SWAP2 DUP3 SWAP1 PUSH0 SWAP1 DUP3 SWAP1 PUSH1 0x44 DUP3 ADD SWAP1 JUMP JUMPDEST SUB SWAP3 GAS CALL SWAP2 DUP3 ISZERO PUSH2 0x9B4 JUMPI PUSH2 0x1582 PUSH1 0x40 SWAP4 PUSH32 0x8CDC8DC08E54A4E57F52077ECF1B4C508758513439CAE2AA325DCC85B922FCA8 SWAP6 PUSH0 SWAP2 PUSH2 0x15B1 JUMPI POP PUSH2 0x2B3C JUMP JUMPDEST SLOAD SWAP5 SLOAD SWAP1 SLOAD DUP3 MLOAD SWAP2 DUP3 MSTORE PUSH1 0x20 DUP3 ADD MSTORE PUSH1 0x1 PUSH1 0x1 PUSH1 0xA0 SHL SUB SWAP1 SWAP5 AND SWAP4 LOG3 PUSH1 0x1 PUSH0 MLOAD PUSH1 0x20 PUSH2 0x2C23 PUSH0 CODECOPY PUSH0 MLOAD SWAP1 PUSH0 MSTORE SSTORE STOP JUMPDEST PUSH2 0x15CA SWAP2 POP PUSH1 0x20 RETURNDATASIZE PUSH1 0x20 GT PUSH2 0x4BE JUMPI PUSH2 0x4B0 DUP2 DUP4 PUSH2 0x2708 JUMP JUMPDEST DUP9 PUSH2 0x671 JUMP JUMPDEST PUSH2 0x15E7 SWAP2 POP DUP5 RETURNDATASIZE DUP7 GT PUSH2 0x4BE JUMPI PUSH2 0x4B0 DUP2 DUP4 PUSH2 0x2708 JUMP JUMPDEST DUP10 PUSH2 0x5CC JUMP JUMPDEST PUSH1 0x3 DUP4 ADD SLOAD PUSH1 0x1 PUSH1 0x1 PUSH1 0xA0 SHL SUB AND CALLER EQ DUP1 ISZERO PUSH2 0x1664 JUMPI JUMPDEST PUSH2 0x160D SWAP1 PUSH2 0x2A16 JUMP JUMPDEST PUSH1 0xB DUP4 ADD SLOAD PUSH3 0x15180 DUP2 ADD DUP1 SWAP2 GT PUSH2 0x117B JUMPI TIMESTAMP LT ISZERO PUSH2 0x1478 JUMPI PUSH1 0x40 MLOAD PUSH3 0x461BCD PUSH1 0xE5 SHL DUP2 MSTORE PUSH1 0x20 PUSH1 0x4 DUP3 ADD MSTORE PUSH1 0x16 PUSH1 0x24 DUP3 ADD MSTORE PUSH22 0x82EAE8DE5AC6DEDCCCD2E4DA40C2CCE8CAE4406468D PUSH1 0x53 SHL PUSH1 0x44 DUP3 ADD MSTORE PUSH1 0x64 SWAP1 REVERT JUMPDEST POP CALLER PUSH0 SWAP1 DUP2 MSTORE PUSH1 0x9 PUSH1 0x20 MSTORE PUSH1 0x40 SWAP1 KECCAK256 SLOAD PUSH1 0xFF AND PUSH2 0x1604 JUMP JUMPDEST PUSH1 0x40 MLOAD PUSH3 0x461BCD PUSH1 0xE5 SHL DUP2 MSTORE PUSH1 0x20 PUSH1 0x4 DUP3 ADD MSTORE PUSH1 0xD PUSH1 0x24 DUP3 ADD MSTORE PUSH13 0x139BDD0819195B1A5D995C9959 PUSH1 0x9A SHL PUSH1 0x44 DUP3 ADD MSTORE PUSH1 0x64 SWAP1 REVERT JUMPDEST POP PUSH1 0x4 SLOAD DUP2 GT ISZERO PUSH2 0x1423 JUMP JUMPDEST CALLVALUE PUSH2 0x9BF JUMPI PUSH1 0x40 CALLDATASIZE PUSH1 0x3 NOT ADD SLT PUSH2 0x9BF JUMPI PUSH2 0x16D6 PUSH2 0x269E JUMP JUMPDEST PUSH1 0x1 PUSH1 0x1 PUSH1 0xA0 SHL SUB AND PUSH0 SWAP1 DUP2 MSTORE PUSH1 0x6 PUSH1 0x20 MSTORE PUSH1 0x40 SWAP1 KECCAK256 DUP1 SLOAD PUSH1 0x24 CALLDATALOAD SWAP2 SWAP1 DUP3 LT ISZERO PUSH2 0x9BF JUMPI PUSH1 0x20 SWAP2 PUSH2 0xA59 SWAP2 PUSH2 0x28A2 JUMP JUMPDEST CALLVALUE PUSH2 0x9BF JUMPI PUSH1 0x20 CALLDATASIZE PUSH1 0x3 NOT ADD SLT PUSH2 0x9BF JUMPI PUSH0 PUSH2 0x200 PUSH1 0x40 MLOAD PUSH2 0x1727 DUP2 PUSH2 0x26EC JUMP JUMPDEST DUP3 DUP2 MSTORE DUP3 PUSH1 0x20 DUP3 ADD MSTORE DUP3 PUSH1 0x40 DUP3 ADD MSTORE DUP3 PUSH1 0x60 DUP3 ADD MSTORE DUP3 PUSH1 0x80 DUP3 ADD MSTORE DUP3 PUSH1 0xA0 DUP3 ADD MSTORE DUP3 PUSH1 0xC0 DUP3 ADD MSTORE DUP3 PUSH1 0xE0 DUP3 ADD MSTORE PUSH1 0x60 PUSH2 0x100 DUP3 ADD MSTORE DUP3 PUSH2 0x120 DUP3 ADD MSTORE DUP3 PUSH2 0x140 DUP3 ADD MSTORE DUP3 PUSH2 0x160 DUP3 ADD MSTORE DUP3 PUSH2 0x180 DUP3 ADD MSTORE PUSH1 0x60 PUSH2 0x1A0 DUP3 ADD MSTORE PUSH1 0x60 PUSH2 0x1C0 DUP3 ADD MSTORE DUP3 PUSH2 0x1E0 DUP3 ADD MSTORE ADD MSTORE PUSH1 0x4 CALLDATALOAD PUSH0 MSTORE PUSH1 0x5 PUSH1 0x20 MSTORE PUSH1 0x40 PUSH0 KECCAK256 PUSH1 0x40 MLOAD SWAP1 PUSH2 0x17AC DUP3 PUSH2 0x26EC JUMP JUMPDEST DUP1 SLOAD DUP3 MSTORE PUSH1 0x1 DUP2 ADD SLOAD PUSH1 0x1 PUSH1 0x1 PUSH1 0xA0 SHL SUB SWAP1 DUP2 AND PUSH1 0x20 DUP5 ADD MSTORE PUSH1 0x2 DUP3 ADD SLOAD PUSH1 0x40 DUP5 ADD MSTORE PUSH1 0x3 DUP3 ADD SLOAD AND PUSH1 0x60 DUP4 ADD MSTORE PUSH1 0x4 DUP2 ADD SLOAD PUSH1 0x80 DUP4 ADD MSTORE PUSH1 0x5 DUP2 ADD SLOAD PUSH1 0xA0 DUP4 ADD MSTORE PUSH1 0x6 DUP2 ADD SLOAD PUSH1 0xC0 DUP4 ADD MSTORE PUSH1 0x7 DUP2 ADD SLOAD PUSH1 0xE0 DUP4 ADD MSTORE PUSH2 0x180E PUSH1 0x8 DUP3 ADD PUSH2 0x2729 JUMP JUMPDEST PUSH2 0x100 DUP4 ADD MSTORE PUSH1 0x9 DUP2 ADD SLOAD PUSH2 0x120 DUP4 ADD MSTORE PUSH1 0xA DUP2 ADD SLOAD PUSH2 0x140 DUP4 ADD MSTORE PUSH1 0xB DUP2 ADD SLOAD PUSH2 0x160 DUP4 ADD MSTORE PUSH1 0xFF PUSH1 0xC DUP3 ADD SLOAD AND PUSH1 0x8 DUP2 LT ISZERO PUSH2 0xA02 JUMPI PUSH1 0xFF SWAP2 PUSH1 0xF SWAP2 PUSH2 0x180 DUP6 ADD MSTORE PUSH2 0x185E PUSH1 0xD DUP3 ADD PUSH2 0x2729 JUMP JUMPDEST PUSH2 0x1A0 DUP6 ADD MSTORE PUSH2 0x1870 PUSH1 0xE DUP3 ADD PUSH2 0x2729 JUMP JUMPDEST PUSH2 0x1C0 DUP6 ADD MSTORE ADD SLOAD DUP2 DUP2 AND ISZERO ISZERO PUSH2 0x1E0 DUP5 ADD MSTORE PUSH1 0x8 SHR AND ISZERO ISZERO PUSH2 0x200 DUP3 ADD MSTORE PUSH1 0x40 MLOAD DUP1 SWAP2 PUSH1 0x20 DUP3 MSTORE DUP1 MLOAD PUSH1 0x20 DUP4 ADD MSTORE PUSH1 0x1 DUP1 PUSH1 0xA0 SHL SUB PUSH1 0x20 DUP3 ADD MLOAD AND PUSH1 0x40 DUP4 ADD MSTORE PUSH1 0x40 DUP2 ADD MLOAD PUSH1 0x60 DUP4 ADD MSTORE PUSH1 0x1 DUP1 PUSH1 0xA0 SHL SUB PUSH1 0x60 DUP3 ADD MLOAD AND PUSH1 0x80 DUP4 ADD MSTORE PUSH1 0x80 DUP2 ADD MLOAD PUSH1 0xA0 DUP4 ADD MSTORE PUSH1 0xA0 DUP2 ADD MLOAD PUSH1 0xC0 DUP4 ADD MSTORE PUSH1 0xC0 DUP2 ADD MLOAD PUSH1 0xE0 DUP4 ADD MSTORE PUSH1 0xE0 DUP2 ADD MLOAD PUSH2 0x100 DUP4 ADD MSTORE PUSH2 0x200 PUSH2 0x1984 PUSH2 0x196C PUSH2 0x191C PUSH2 0x100 DUP6 ADD MLOAD PUSH2 0x220 PUSH2 0x120 DUP9 ADD MSTORE PUSH2 0x240 DUP8 ADD SWAP1 PUSH2 0x27C9 JUMP JUMPDEST PUSH2 0x120 DUP6 ADD MLOAD PUSH2 0x140 DUP8 ADD MSTORE PUSH2 0x140 DUP6 ADD MLOAD PUSH2 0x160 DUP8 ADD MSTORE PUSH2 0x160 DUP6 ADD MLOAD PUSH2 0x180 DUP8 ADD MSTORE PUSH2 0x1954 PUSH2 0x180 DUP7 ADD MLOAD PUSH2 0x1A0 DUP9 ADD SWAP1 PUSH2 0x27ED JUMP JUMPDEST PUSH2 0x1A0 DUP6 ADD MLOAD DUP7 DUP3 SUB PUSH1 0x1F NOT ADD PUSH2 0x1C0 DUP9 ADD MSTORE PUSH2 0x27C9 JUMP JUMPDEST PUSH2 0x1C0 DUP5 ADD MLOAD DUP6 DUP3 SUB PUSH1 0x1F NOT ADD PUSH2 0x1E0 DUP8 ADD MSTORE PUSH2 0x27C9 JUMP JUMPDEST SWAP2 PUSH2 0x1E0 DUP2 ADD MLOAD ISZERO ISZERO DUP3 DUP6 ADD MSTORE ADD MLOAD ISZERO ISZERO PUSH2 0x220 DUP4 ADD MSTORE SUB SWAP1 RETURN JUMPDEST CALLVALUE PUSH2 0x9BF JUMPI PUSH1 0x20 CALLDATASIZE PUSH1 0x3 NOT ADD SLT PUSH2 0x9BF JUMPI PUSH1 0x4 CALLDATALOAD PUSH1 0x1 PUSH1 0x1 PUSH1 0x40 SHL SUB DUP2 GT PUSH2 0x9BF JUMPI PUSH1 0x20 PUSH2 0x19D2 DUP2 SWAP3 CALLDATASIZE SWAP1 PUSH1 0x4 ADD PUSH2 0x2842 JUMP JUMPDEST SWAP2 SWAP1 DUP3 PUSH1 0x40 MLOAD SWAP4 DUP5 SWAP3 DUP4 CALLDATACOPY DUP2 ADD PUSH1 0x8 DUP2 MSTORE SUB ADD SWAP1 KECCAK256 SLOAD PUSH1 0x40 MLOAD SWAP1 DUP2 MSTORE RETURN JUMPDEST CALLVALUE PUSH2 0x9BF JUMPI PUSH0 CALLDATASIZE PUSH1 0x3 NOT ADD SLT PUSH2 0x9BF JUMPI PUSH2 0x1A08 PUSH2 0x2BFC JUMP JUMPDEST PUSH0 DUP1 SLOAD PUSH1 0x1 PUSH1 0x1 PUSH1 0xA0 SHL SUB NOT DUP2 AND DUP3 SSTORE PUSH1 0x1 PUSH1 0x1 PUSH1 0xA0 SHL SUB AND PUSH32 0x8BE0079C531659141344CD1FD0A4F28419497F9722A3DAAFE3B4186F6B6457E0 DUP3 DUP1 LOG3 STOP JUMPDEST CALLVALUE PUSH2 0x9BF JUMPI PUSH0 CALLDATASIZE PUSH1 0x3 NOT ADD SLT PUSH2 0x9BF JUMPI PUSH1 0x20 PUSH1 0x40 MLOAD PUSH3 0x93A80 DUP2 MSTORE RETURN JUMPDEST CALLVALUE PUSH2 0x9BF JUMPI PUSH2 0x1A72 CALLDATASIZE PUSH2 0x286F JUMP JUMPDEST SWAP2 SWAP1 DUP2 ISZERO ISZERO DUP1 PUSH2 0x1CAF JUMPI JUMPDEST PUSH2 0x1A86 SWAP1 PUSH2 0x2910 JUMP JUMPDEST DUP2 PUSH0 MSTORE PUSH1 0x5 PUSH1 0x20 MSTORE PUSH1 0x40 PUSH0 KECCAK256 SWAP3 PUSH2 0x1AAA PUSH1 0x1 DUP1 PUSH1 0xA0 SHL SUB PUSH1 0x3 DUP7 ADD SLOAD AND CALLER EQ PUSH2 0x294D JUMP JUMPDEST PUSH1 0xC DUP5 ADD PUSH1 0xFF DUP2 SLOAD AND PUSH1 0x8 DUP2 LT ISZERO PUSH2 0xA02 JUMPI DUP1 PUSH1 0x2 PUSH2 0x1AD2 SWAP3 EQ SWAP1 DUP2 ISZERO PUSH2 0x1CA4 JUMPI JUMPDEST POP PUSH2 0x2985 JUMP JUMPDEST PUSH1 0xA DUP6 ADD SLOAD TIMESTAMP GT PUSH2 0x1C6F JUMPI DUP2 ISZERO PUSH2 0x1C32 JUMPI PUSH1 0xE DUP6 ADD SWAP5 PUSH1 0x1 PUSH1 0x1 PUSH1 0x40 SHL SUB DUP4 GT PUSH2 0x1096 JUMPI PUSH2 0x1B0A DUP4 PUSH2 0x1B04 DUP9 SLOAD PUSH2 0x26B4 JUMP JUMPDEST DUP9 PUSH2 0x2AAA JUMP JUMPDEST PUSH0 SWAP6 PUSH1 0x1F DUP5 GT PUSH1 0x1 EQ PUSH2 0x1BAB JUMPI SWAP1 PUSH1 0xF SWAP2 PUSH2 0x1B5D DUP6 DUP1 PUSH32 0xF2EF0C3B0B6472C1AB32D407336331B0A8F8521E3328E05F63C8835A9C8686CD SWAP10 SWAP11 PUSH0 SWAP2 PUSH2 0x1BA0 JUMPI JUMPDEST POP DUP2 PUSH1 0x1 SHL SWAP2 PUSH0 NOT SWAP1 PUSH1 0x3 SHL SHR NOT AND OR SWAP1 JUMP JUMPDEST SWAP1 SSTORE JUMPDEST TIMESTAMP PUSH1 0xB DUP3 ADD SSTORE ADD DUP1 SLOAD PUSH2 0xFF00 NOT AND PUSH2 0x100 OR SWAP1 SSTORE DUP1 SLOAD PUSH1 0xFF NOT AND PUSH1 0x3 OR SWAP1 SSTORE PUSH1 0x40 DUP1 MLOAD DUP2 DUP2 MSTORE SWAP3 DUP4 SWAP3 PUSH2 0x1B95 SWAP3 DUP5 ADD SWAP2 PUSH2 0x2A8A JUMP JUMPDEST TIMESTAMP PUSH1 0x20 DUP4 ADD MSTORE SUB SWAP1 LOG2 STOP JUMPDEST SWAP1 POP DUP9 ADD CALLDATALOAD DUP12 PUSH2 0x1B4A JUMP JUMPDEST PUSH1 0x1F NOT DUP5 AND DUP2 PUSH0 MSTORE PUSH1 0x20 PUSH0 KECCAK256 SWAP1 PUSH0 JUMPDEST DUP2 DUP2 LT PUSH2 0x1C1A JUMPI POP SWAP1 PUSH32 0xF2EF0C3B0B6472C1AB32D407336331B0A8F8521E3328E05F63C8835A9C8686CD SWAP8 SWAP9 DUP7 PUSH1 0xF SWAP6 SWAP5 SWAP4 LT PUSH2 0x1C01 JUMPI JUMPDEST POP POP PUSH1 0x1 DUP6 DUP2 SHL ADD SWAP1 SSTORE PUSH2 0x1B60 JUMP JUMPDEST DUP8 ADD CALLDATALOAD PUSH0 NOT PUSH1 0x3 DUP9 SWAP1 SHL PUSH1 0xF8 AND SHR NOT AND SWAP1 SSTORE DUP9 DUP1 PUSH2 0x1BF2 JUMP JUMPDEST DUP8 DUP11 ADD CALLDATALOAD DUP4 SSTORE PUSH1 0x20 SWAP10 DUP11 ADD SWAP10 PUSH1 0x1 SWAP1 SWAP4 ADD SWAP3 ADD PUSH2 0x1BBA JUMP JUMPDEST PUSH1 0x40 MLOAD PUSH3 0x461BCD PUSH1 0xE5 SHL DUP2 MSTORE PUSH1 0x20 PUSH1 0x4 DUP3 ADD MSTORE PUSH1 0x15 PUSH1 0x24 DUP3 ADD MSTORE PUSH21 0x11195B1A5D995C9E48155492481C995C5D5A5C9959 PUSH1 0x5A SHL PUSH1 0x44 DUP3 ADD MSTORE PUSH1 0x64 SWAP1 REVERT JUMPDEST PUSH1 0x40 MLOAD PUSH3 0x461BCD PUSH1 0xE5 SHL DUP2 MSTORE PUSH1 0x20 PUSH1 0x4 DUP3 ADD MSTORE PUSH1 0xD PUSH1 0x24 DUP3 ADD MSTORE PUSH13 0x5061737420646561646C696E65 PUSH1 0x98 SHL PUSH1 0x44 DUP3 ADD MSTORE PUSH1 0x64 SWAP1 REVERT JUMPDEST PUSH1 0x1 SWAP2 POP EQ DUP8 PUSH2 0x1ACC JUMP JUMPDEST POP PUSH1 0x4 SLOAD DUP3 GT ISZERO PUSH2 0x1A7D JUMP JUMPDEST CALLVALUE PUSH2 0x9BF JUMPI PUSH1 0x20 CALLDATASIZE PUSH1 0x3 NOT ADD SLT PUSH2 0x9BF JUMPI PUSH1 0x1 PUSH1 0x1 PUSH1 0xA0 SHL SUB PUSH2 0x1CDC PUSH2 0x269E JUMP JUMPDEST AND PUSH0 MSTORE PUSH1 0x6 PUSH1 0x20 MSTORE PUSH1 0x40 PUSH0 KECCAK256 PUSH1 0x40 MLOAD SWAP1 DUP2 PUSH1 0x20 DUP3 SLOAD SWAP2 DUP3 DUP2 MSTORE ADD SWAP2 PUSH0 MSTORE PUSH1 0x20 PUSH0 KECCAK256 SWAP1 PUSH0 JUMPDEST DUP2 DUP2 LT PUSH2 0x1D27 JUMPI PUSH2 0x1D23 DUP6 PUSH2 0x1D17 DUP2 DUP8 SUB DUP3 PUSH2 0x2708 JUMP JUMPDEST PUSH1 0x40 MLOAD SWAP2 DUP3 SWAP2 DUP3 PUSH2 0x27FA JUMP JUMPDEST SUB SWAP1 RETURN JUMPDEST DUP3 SLOAD DUP5 MSTORE PUSH1 0x20 SWAP1 SWAP4 ADD SWAP3 PUSH1 0x1 SWAP3 DUP4 ADD SWAP3 ADD PUSH2 0x1D00 JUMP JUMPDEST CALLVALUE PUSH2 0x9BF JUMPI PUSH2 0x1D4B CALLDATASIZE PUSH2 0x286F JUMP JUMPDEST SWAP2 SWAP1 DUP2 ISZERO ISZERO DUP1 PUSH2 0x1EA4 JUMPI JUMPDEST PUSH2 0x1D5F SWAP1 PUSH2 0x2910 JUMP JUMPDEST DUP2 PUSH0 MSTORE PUSH1 0x5 PUSH1 0x20 MSTORE PUSH1 0x40 PUSH0 KECCAK256 PUSH2 0x1D82 PUSH1 0x1 DUP1 PUSH1 0xA0 SHL SUB PUSH1 0x1 DUP4 ADD SLOAD AND CALLER EQ PUSH2 0x2A53 JUMP JUMPDEST PUSH1 0xC DUP2 ADD SWAP1 PUSH1 0xFF DUP3 SLOAD AND PUSH1 0x8 DUP2 LT ISZERO SWAP1 DUP2 PUSH2 0xA02 JUMPI PUSH1 0x3 DUP2 EQ SWAP2 DUP3 ISZERO PUSH2 0x1E97 JUMPI JUMPDEST DUP3 ISZERO PUSH2 0x1E86 JUMPI JUMPDEST POP POP ISZERO PUSH2 0x1E50 JUMPI PUSH1 0xA ADD SLOAD PUSH3 0x3F480 DUP2 ADD DUP1 SWAP2 GT PUSH2 0x117B JUMPI TIMESTAMP GT PUSH2 0x1E13 JUMPI DUP1 SLOAD PUSH1 0xFF NOT AND PUSH1 0x5 OR SWAP1 SSTORE PUSH1 0x40 MLOAD PUSH1 0x20 DUP1 DUP3 MSTORE CALLER SWAP5 PUSH32 0x1B84372106D77C6DAEA0DDA35BBC0229D10A83F58EC899092884925193682341 SWAP4 DUP4 SWAP3 PUSH2 0x1E0E SWAP3 SWAP1 DUP5 ADD SWAP2 PUSH2 0x2A8A JUMP JUMPDEST SUB SWAP1 LOG3 STOP JUMPDEST PUSH1 0x40 MLOAD PUSH3 0x461BCD PUSH1 0xE5 SHL DUP2 MSTORE PUSH1 0x20 PUSH1 0x4 DUP3 ADD MSTORE PUSH1 0x15 PUSH1 0x24 DUP3 ADD MSTORE PUSH21 0x111A5CDC1D5D19481DDA5B991BDDC818DB1BDCD959 PUSH1 0x5A SHL PUSH1 0x44 DUP3 ADD MSTORE PUSH1 0x64 SWAP1 REVERT JUMPDEST PUSH1 0x40 MLOAD PUSH3 0x461BCD PUSH1 0xE5 SHL DUP2 MSTORE PUSH1 0x20 PUSH1 0x4 DUP3 ADD MSTORE PUSH1 0xE PUSH1 0x24 DUP3 ADD MSTORE PUSH14 0x43616E6E6F742064697370757465 PUSH1 0x90 SHL PUSH1 0x44 DUP3 ADD MSTORE PUSH1 0x64 SWAP1 REVERT JUMPDEST SWAP1 SWAP2 POP PUSH2 0xA02 JUMPI PUSH1 0x1 EQ DUP7 DUP1 PUSH2 0x1DAA JUMP JUMPDEST POP PUSH1 0x2 DUP2 EQ SWAP2 POP PUSH0 PUSH2 0x1DA3 JUMP JUMPDEST POP PUSH1 0x4 SLOAD DUP3 GT ISZERO PUSH2 0x1D56 JUMP JUMPDEST CALLVALUE PUSH2 0x9BF JUMPI PUSH1 0x40 CALLDATASIZE PUSH1 0x3 NOT ADD SLT PUSH2 0x9BF JUMPI PUSH2 0x1F01 PUSH2 0x1ECC PUSH2 0x269E JUMP JUMPDEST PUSH2 0x1ED4 PUSH2 0x2833 JUMP JUMPDEST SWAP1 PUSH2 0x1EDD PUSH2 0x2BFC JUMP JUMPDEST PUSH1 0x1 DUP1 PUSH1 0xA0 SHL SUB AND PUSH0 MSTORE PUSH1 0x9 PUSH1 0x20 MSTORE PUSH1 0x40 PUSH0 KECCAK256 SWAP1 PUSH1 0xFF DUP1 NOT DUP4 SLOAD AND SWAP2 ISZERO ISZERO AND OR SWAP1 SSTORE JUMP JUMPDEST STOP JUMPDEST CALLVALUE PUSH2 0x9BF JUMPI PUSH0 CALLDATASIZE PUSH1 0x3 NOT ADD SLT PUSH2 0x9BF JUMPI PUSH1 0x20 PUSH1 0x4 SLOAD PUSH1 0x40 MLOAD SWAP1 DUP2 MSTORE RETURN JUMPDEST CALLVALUE PUSH2 0x9BF JUMPI PUSH0 CALLDATASIZE PUSH1 0x3 NOT ADD SLT PUSH2 0x9BF JUMPI PUSH1 0x40 MLOAD PUSH32 0x0 PUSH1 0x1 PUSH1 0x1 PUSH1 0xA0 SHL SUB AND DUP2 MSTORE PUSH1 0x20 SWAP1 RETURN JUMPDEST CALLVALUE PUSH2 0x9BF JUMPI PUSH1 0x20 CALLDATASIZE PUSH1 0x3 NOT ADD SLT PUSH2 0x9BF JUMPI PUSH1 0x4 CALLDATALOAD PUSH2 0x1F80 PUSH2 0x2BC4 JUMP JUMPDEST CALLER PUSH0 MSTORE PUSH1 0x9 PUSH1 0x20 MSTORE PUSH2 0x1F98 PUSH1 0xFF PUSH1 0x40 PUSH0 KECCAK256 SLOAD AND PUSH2 0x2A16 JUMP JUMPDEST DUP1 ISZERO ISZERO DUP1 PUSH2 0x2126 JUMPI JUMPDEST PUSH2 0x1FAA SWAP1 PUSH2 0x2910 JUMP JUMPDEST DUP1 PUSH0 MSTORE PUSH1 0x5 PUSH1 0x20 MSTORE PUSH1 0x40 PUSH0 KECCAK256 PUSH1 0xC DUP2 ADD SWAP1 PUSH1 0xFF DUP3 SLOAD AND PUSH1 0x8 DUP2 LT ISZERO PUSH2 0xA02 JUMPI PUSH2 0x20F3 JUMPI PUSH1 0x4 DUP2 ADD SWAP1 DUP2 SLOAD PUSH1 0x1 DUP1 PUSH1 0xA0 SHL SUB PUSH1 0x1 SLOAD AND SWAP1 PUSH1 0x40 MLOAD SWAP2 PUSH4 0x23B872DD PUSH1 0xE0 SHL DUP4 MSTORE PUSH1 0x4 DUP4 ADD MSTORE ADDRESS PUSH1 0x24 DUP4 ADD MSTORE PUSH1 0x44 DUP3 ADD MSTORE PUSH1 0x20 DUP2 PUSH1 0x64 DUP2 PUSH0 PUSH1 0x1 DUP1 PUSH1 0xA0 SHL SUB PUSH32 0x0 AND GAS CALL SWAP1 DUP2 ISZERO PUSH2 0x9B4 JUMPI PUSH0 SWAP2 PUSH2 0x20D4 JUMPI JUMPDEST POP ISZERO PUSH2 0x2098 JUMPI PUSH1 0x5 PUSH1 0x40 SWAP3 PUSH32 0xF5F2D2987D4C4C11BDDFB7593B16A06A860C31D9AE61DD74A8250964DD6F77C3 SWAP5 PUSH1 0x1 PUSH1 0xFF NOT DUP3 SLOAD AND OR SWAP1 SSTORE SLOAD SWAP2 ADD SLOAD DUP3 MLOAD SWAP2 DUP3 MSTORE PUSH1 0x20 DUP3 ADD MSTORE LOG2 PUSH1 0x1 PUSH0 MLOAD PUSH1 0x20 PUSH2 0x2C23 PUSH0 CODECOPY PUSH0 MLOAD SWAP1 PUSH0 MSTORE SSTORE STOP JUMPDEST PUSH1 0x40 MLOAD PUSH3 0x461BCD PUSH1 0xE5 SHL DUP2 MSTORE PUSH1 0x20 PUSH1 0x4 DUP3 ADD MSTORE PUSH1 0x14 PUSH1 0x24 DUP3 ADD MSTORE PUSH20 0x1554D110C81D1C985B9CD9995C8819985A5B1959 PUSH1 0x62 SHL PUSH1 0x44 DUP3 ADD MSTORE PUSH1 0x64 SWAP1 REVERT JUMPDEST PUSH2 0x20ED SWAP2 POP PUSH1 0x20 RETURNDATASIZE PUSH1 0x20 GT PUSH2 0x4BE JUMPI PUSH2 0x4B0 DUP2 DUP4 PUSH2 0x2708 JUMP JUMPDEST DUP6 PUSH2 0x203E JUMP JUMPDEST PUSH1 0x40 MLOAD PUSH3 0x461BCD PUSH1 0xE5 SHL DUP2 MSTORE PUSH1 0x20 PUSH1 0x4 DUP3 ADD MSTORE PUSH1 0xB PUSH1 0x24 DUP3 ADD MSTORE PUSH11 0x4E6F742070656E64696E67 PUSH1 0xA8 SHL PUSH1 0x44 DUP3 ADD MSTORE PUSH1 0x64 SWAP1 REVERT JUMPDEST POP PUSH1 0x4 SLOAD DUP2 GT ISZERO PUSH2 0x1FA1 JUMP JUMPDEST CALLVALUE PUSH2 0x9BF JUMPI PUSH0 CALLDATASIZE PUSH1 0x3 NOT ADD SLT PUSH2 0x9BF JUMPI PUSH1 0x20 PUSH1 0x3 SLOAD PUSH1 0x40 MLOAD SWAP1 DUP2 MSTORE RETURN JUMPDEST CALLVALUE PUSH2 0x9BF JUMPI PUSH0 CALLDATASIZE PUSH1 0x3 NOT ADD SLT PUSH2 0x9BF JUMPI PUSH1 0x40 MLOAD PUSH32 0x0 PUSH1 0x1 PUSH1 0x1 PUSH1 0xA0 SHL SUB AND DUP2 MSTORE PUSH1 0x20 SWAP1 RETURN JUMPDEST CALLVALUE PUSH2 0x9BF JUMPI PUSH1 0x20 CALLDATASIZE PUSH1 0x3 NOT ADD SLT PUSH2 0x9BF JUMPI PUSH1 0x4 CALLDATALOAD PUSH2 0x21AF PUSH2 0x2BFC JUMP JUMPDEST PUSH2 0x3E8 DUP2 GT PUSH2 0x21BD JUMPI PUSH1 0x3 SSTORE STOP JUMPDEST PUSH1 0x40 MLOAD PUSH3 0x461BCD PUSH1 0xE5 SHL DUP2 MSTORE PUSH1 0x20 PUSH1 0x4 DUP3 ADD MSTORE PUSH1 0xB PUSH1 0x24 DUP3 ADD MSTORE PUSH11 0x466565206D617820313025 PUSH1 0xA8 SHL PUSH1 0x44 DUP3 ADD MSTORE PUSH1 0x64 SWAP1 REVERT JUMPDEST CALLVALUE PUSH2 0x9BF JUMPI PUSH1 0x20 CALLDATASIZE PUSH1 0x3 NOT ADD SLT PUSH2 0x9BF JUMPI PUSH1 0x4 CALLDATALOAD PUSH2 0x220C PUSH2 0x2BC4 JUMP JUMPDEST DUP1 ISZERO ISZERO DUP1 PUSH2 0x239A JUMPI JUMPDEST PUSH2 0x221E SWAP1 PUSH2 0x2910 JUMP JUMPDEST DUP1 PUSH0 MSTORE PUSH1 0x5 PUSH1 0x20 MSTORE PUSH1 0x40 PUSH0 KECCAK256 PUSH1 0xC DUP2 ADD SWAP1 PUSH1 0xFF DUP3 SLOAD AND PUSH1 0x8 DUP2 LT ISZERO PUSH2 0xA02 JUMPI DUP1 PUSH1 0x1 PUSH2 0x2252 SWAP3 EQ SWAP1 DUP2 ISZERO PUSH2 0x238F JUMPI POP PUSH2 0x2985 JUMP JUMPDEST PUSH1 0xA DUP2 ADD SLOAD TIMESTAMP GT ISZERO PUSH2 0x2354 JUMPI DUP2 SLOAD PUSH1 0xFF NOT AND PUSH1 0x6 OR SWAP1 SWAP2 SSTORE PUSH1 0x4 SWAP1 DUP2 ADD SLOAD PUSH1 0x1 SLOAD PUSH1 0x40 MLOAD PUSH4 0xA9059CBB PUSH1 0xE0 SHL DUP2 MSTORE PUSH1 0x1 PUSH1 0x1 PUSH1 0xA0 SHL SUB SWAP2 SWAP1 SWAP2 AND SWAP3 DUP2 ADD SWAP3 SWAP1 SWAP3 MSTORE PUSH1 0x24 DUP3 ADD DUP2 SWAP1 MSTORE SWAP2 SWAP1 PUSH1 0x20 DUP2 DUP1 PUSH1 0x44 DUP2 ADD SUB DUP2 PUSH0 PUSH32 0x0 PUSH1 0x1 PUSH1 0x1 PUSH1 0xA0 SHL SUB AND GAS CALL DUP1 ISZERO PUSH2 0x9B4 JUMPI PUSH2 0x22E9 SWAP2 PUSH0 SWAP2 PUSH2 0x2335 JUMPI POP PUSH2 0x29DA JUMP JUMPDEST PUSH1 0x1 SLOAD PUSH1 0x40 MLOAD SWAP3 DUP4 MSTORE PUSH1 0x1 PUSH1 0x1 PUSH1 0xA0 SHL SUB AND SWAP2 PUSH32 0x7A482FDEB6BC9A1376F597068A214A7A39472BB2EFF1B8CAD21BA04F49DDCA1B SWAP1 PUSH1 0x20 SWAP1 LOG3 PUSH1 0x1 PUSH0 MLOAD PUSH1 0x20 PUSH2 0x2C23 PUSH0 CODECOPY PUSH0 MLOAD SWAP1 PUSH0 MSTORE SSTORE STOP JUMPDEST PUSH2 0x234E SWAP2 POP PUSH1 0x20 RETURNDATASIZE PUSH1 0x20 GT PUSH2 0x4BE JUMPI PUSH2 0x4B0 DUP2 DUP4 PUSH2 0x2708 JUMP JUMPDEST DUP5 PUSH2 0x36D JUMP JUMPDEST PUSH1 0x40 MLOAD PUSH3 0x461BCD PUSH1 0xE5 SHL DUP2 MSTORE PUSH1 0x20 PUSH1 0x4 DUP3 ADD MSTORE PUSH1 0x13 PUSH1 0x24 DUP3 ADD MSTORE PUSH19 0x111958591B1A5B99481B9BDD081C185CDCD959 PUSH1 0x6A SHL PUSH1 0x44 DUP3 ADD MSTORE PUSH1 0x64 SWAP1 REVERT JUMPDEST PUSH1 0x2 SWAP2 POP EQ DUP6 PUSH2 0x1ACC JUMP JUMPDEST POP PUSH1 0x4 SLOAD DUP2 GT ISZERO PUSH2 0x2215 JUMP JUMPDEST CALLVALUE PUSH2 0x9BF JUMPI PUSH1 0x20 CALLDATASIZE PUSH1 0x3 NOT ADD SLT PUSH2 0x9BF JUMPI PUSH1 0x4 CALLDATALOAD PUSH0 MSTORE PUSH1 0x7 PUSH1 0x20 MSTORE PUSH1 0x40 PUSH0 KECCAK256 PUSH1 0x40 MLOAD SWAP1 DUP2 PUSH1 0x20 DUP3 SLOAD SWAP2 DUP3 DUP2 MSTORE ADD SWAP2 PUSH0 MSTORE PUSH1 0x20 PUSH0 KECCAK256 SWAP1 PUSH0 JUMPDEST DUP2 DUP2 LT PUSH2 0x23F4 JUMPI PUSH2 0x1D23 DUP6 PUSH2 0x1D17 DUP2 DUP8 SUB DUP3 PUSH2 0x2708 JUMP JUMPDEST DUP3 SLOAD DUP5 MSTORE PUSH1 0x20 SWAP1 SWAP4 ADD SWAP3 PUSH1 0x1 SWAP3 DUP4 ADD SWAP3 ADD PUSH2 0x23DD JUMP JUMPDEST CALLVALUE PUSH2 0x9BF JUMPI PUSH1 0x20 CALLDATASIZE PUSH1 0x3 NOT ADD SLT PUSH2 0x9BF JUMPI PUSH1 0x4 CALLDATALOAD DUP1 ISZERO ISZERO DUP1 PUSH2 0x24DD JUMPI JUMPDEST PUSH2 0x2430 SWAP1 PUSH2 0x2910 JUMP JUMPDEST DUP1 PUSH0 MSTORE PUSH1 0x5 PUSH1 0x20 MSTORE PUSH1 0x40 PUSH0 KECCAK256 PUSH2 0x2453 PUSH1 0x1 DUP1 PUSH1 0xA0 SHL SUB PUSH1 0x3 DUP4 ADD SLOAD AND CALLER EQ PUSH2 0x294D JUMP JUMPDEST PUSH1 0xC DUP2 ADD SWAP1 PUSH1 0xFF DUP3 SLOAD AND PUSH1 0x8 DUP2 LT ISZERO PUSH2 0xA02 JUMPI PUSH1 0x1 SUB PUSH2 0x24A9 JUMPI PUSH1 0x2 SWAP2 DUP3 PUSH1 0xFF NOT DUP3 SLOAD AND OR SWAP1 SSTORE ADD SLOAD SWAP1 PUSH32 0xFAA1A93F143BBD33C074DC529145F5F8D5BB8BCE1B67992AD0A181C8A8341992 PUSH1 0x20 PUSH1 0x40 MLOAD TIMESTAMP DUP2 MSTORE LOG3 STOP JUMPDEST PUSH1 0x40 MLOAD PUSH3 0x461BCD PUSH1 0xE5 SHL DUP2 MSTORE PUSH1 0x20 PUSH1 0x4 DUP3 ADD MSTORE PUSH1 0xC PUSH1 0x24 DUP3 ADD MSTORE PUSH12 0x139BDD08195CD8DC9BDDD959 PUSH1 0xA2 SHL PUSH1 0x44 DUP3 ADD MSTORE PUSH1 0x64 SWAP1 REVERT JUMPDEST POP PUSH1 0x4 SLOAD DUP2 GT ISZERO PUSH2 0x2427 JUMP JUMPDEST CALLVALUE PUSH2 0x9BF JUMPI PUSH1 0x20 CALLDATASIZE PUSH1 0x3 NOT ADD SLT PUSH2 0x9BF JUMPI PUSH1 0x4 CALLDATALOAD PUSH0 MSTORE PUSH1 0x5 PUSH1 0x20 MSTORE PUSH1 0x40 PUSH0 KECCAK256 DUP1 SLOAD SWAP1 DUP1 PUSH1 0x1 PUSH1 0xA0 SHL PUSH1 0x1 SWAP1 SUB PUSH1 0x1 DUP3 ADD SLOAD AND PUSH1 0x2 DUP3 ADD SLOAD SWAP1 PUSH1 0x1 PUSH1 0xA0 SHL PUSH1 0x1 SWAP1 SUB PUSH1 0x3 DUP5 ADD SLOAD AND SWAP2 PUSH1 0x4 DUP5 ADD SLOAD SWAP3 PUSH1 0x5 DUP6 ADD SLOAD PUSH1 0x6 DUP7 ADD SLOAD PUSH1 0x7 DUP8 ADD SLOAD SWAP1 PUSH1 0x8 DUP9 ADD PUSH2 0x2554 SWAP1 PUSH2 0x2729 JUMP JUMPDEST SWAP3 PUSH1 0x9 DUP10 ADD SLOAD SWAP8 PUSH1 0xA DUP11 ADD SLOAD SWAP6 PUSH1 0xB DUP12 ADD SLOAD SWAP8 PUSH1 0xC DUP13 ADD SLOAD PUSH1 0xFF AND SWAP10 PUSH1 0xD DUP14 ADD PUSH2 0x257D SWAP1 PUSH2 0x2729 JUMP JUMPDEST SWAP13 PUSH1 0xE ADD PUSH2 0x258A SWAP1 PUSH2 0x2729 JUMP JUMPDEST SWAP14 PUSH1 0xF ADD SLOAD SWAP15 PUSH1 0x40 MLOAD PUSH1 0x80 MSTORE PUSH1 0x80 MLOAD MSTORE PUSH1 0x80 MLOAD PUSH1 0x20 ADD MSTORE PUSH1 0x80 MLOAD PUSH1 0x40 ADD MSTORE PUSH1 0x80 MLOAD PUSH1 0x60 ADD MSTORE PUSH1 0x80 MLOAD PUSH1 0x80 ADD MSTORE PUSH1 0x80 MLOAD PUSH1 0xA0 ADD MSTORE PUSH1 0x80 MLOAD PUSH1 0xC0 ADD MSTORE PUSH1 0x80 MLOAD PUSH1 0xE0 ADD MSTORE PUSH1 0x80 MLOAD PUSH2 0x100 ADD PUSH2 0x220 SWAP1 MSTORE PUSH1 0x80 MLOAD PUSH2 0x220 ADD PUSH2 0x25E7 SWAP2 PUSH2 0x27C9 JUMP JUMPDEST SWAP4 PUSH1 0x80 MLOAD PUSH2 0x120 ADD MSTORE PUSH1 0x80 MLOAD PUSH2 0x140 ADD MSTORE PUSH1 0x80 MLOAD PUSH2 0x160 ADD MSTORE PUSH1 0x80 MLOAD PUSH2 0x180 ADD PUSH2 0x2610 SWAP2 PUSH2 0x27ED JUMP JUMPDEST PUSH1 0x80 MLOAD DUP2 SUB PUSH1 0x80 MLOAD PUSH2 0x1A0 ADD MSTORE PUSH2 0x2626 SWAP2 PUSH2 0x27C9 JUMP JUMPDEST PUSH1 0x80 MLOAD DUP2 SUB PUSH1 0x80 MLOAD PUSH2 0x1C0 ADD MSTORE PUSH2 0x263C SWAP2 PUSH2 0x27C9 JUMP JUMPDEST SWAP1 PUSH1 0xFF DUP2 AND ISZERO ISZERO PUSH1 0x80 MLOAD PUSH2 0x1E0 ADD MSTORE PUSH1 0x8 SHR PUSH1 0xFF AND ISZERO ISZERO PUSH1 0x80 MLOAD PUSH2 0x200 ADD MSTORE PUSH1 0x80 MLOAD SWAP1 SUB PUSH1 0x80 MLOAD RETURN JUMPDEST CALLVALUE PUSH2 0x9BF JUMPI PUSH1 0x20 CALLDATASIZE PUSH1 0x3 NOT ADD SLT PUSH2 0x9BF JUMPI PUSH1 0x20 SWAP1 PUSH1 0x1 PUSH1 0x1 PUSH1 0xA0 SHL SUB PUSH2 0x2689 PUSH2 0x269E JUMP JUMPDEST AND PUSH0 MSTORE PUSH1 0x9 DUP3 MSTORE PUSH1 0xFF PUSH1 0x40 PUSH0 KECCAK256 SLOAD AND ISZERO ISZERO DUP2 MSTORE RETURN JUMPDEST PUSH1 0x4 CALLDATALOAD SWAP1 PUSH1 0x1 PUSH1 0x1 PUSH1 0xA0 SHL SUB DUP3 AND DUP3 SUB PUSH2 0x9BF JUMPI JUMP JUMPDEST SWAP1 PUSH1 0x1 DUP3 DUP2 SHR SWAP3 AND DUP1 ISZERO PUSH2 0x26E2 JUMPI JUMPDEST PUSH1 0x20 DUP4 LT EQ PUSH2 0x26CE JUMPI JUMP JUMPDEST PUSH4 0x4E487B71 PUSH1 0xE0 SHL PUSH0 MSTORE PUSH1 0x22 PUSH1 0x4 MSTORE PUSH1 0x24 PUSH0 REVERT JUMPDEST SWAP2 PUSH1 0x7F AND SWAP2 PUSH2 0x26C3 JUMP JUMPDEST PUSH2 0x220 DUP2 ADD SWAP1 DUP2 LT PUSH1 0x1 PUSH1 0x1 PUSH1 0x40 SHL SUB DUP3 GT OR PUSH2 0x1096 JUMPI PUSH1 0x40 MSTORE JUMP JUMPDEST SWAP1 PUSH1 0x1F DUP1 NOT SWAP2 ADD AND DUP2 ADD SWAP1 DUP2 LT PUSH1 0x1 PUSH1 0x1 PUSH1 0x40 SHL SUB DUP3 GT OR PUSH2 0x1096 JUMPI PUSH1 0x40 MSTORE JUMP JUMPDEST SWAP1 PUSH1 0x40 MLOAD SWAP2 DUP3 PUSH0 DUP3 SLOAD SWAP3 PUSH2 0x273C DUP5 PUSH2 0x26B4 JUMP JUMPDEST DUP1 DUP5 MSTORE SWAP4 PUSH1 0x1 DUP2 AND SWAP1 DUP2 ISZERO PUSH2 0x27A7 JUMPI POP PUSH1 0x1 EQ PUSH2 0x2763 JUMPI JUMPDEST POP PUSH2 0x2761 SWAP3 POP SUB DUP4 PUSH2 0x2708 JUMP JUMPDEST JUMP JUMPDEST SWAP1 POP PUSH0 SWAP3 SWAP2 SWAP3 MSTORE PUSH1 0x20 PUSH0 KECCAK256 SWAP1 PUSH0 SWAP2 JUMPDEST DUP2 DUP4 LT PUSH2 0x278B JUMPI POP POP SWAP1 PUSH1 0x20 PUSH2 0x2761 SWAP3 DUP3 ADD ADD PUSH0 PUSH2 0x2754 JUMP JUMPDEST PUSH1 0x20 SWAP2 SWAP4 POP DUP1 PUSH1 0x1 SWAP2 SLOAD DUP4 DUP6 DUP10 ADD ADD MSTORE ADD SWAP2 ADD SWAP1 SWAP2 DUP5 SWAP3 PUSH2 0x2772 JUMP JUMPDEST SWAP1 POP PUSH1 0x20 SWAP3 POP PUSH2 0x2761 SWAP5 SWAP2 POP PUSH1 0xFF NOT AND DUP3 DUP5 ADD MSTORE ISZERO ISZERO PUSH1 0x5 SHL DUP3 ADD ADD PUSH0 PUSH2 0x2754 JUMP JUMPDEST DUP1 MLOAD DUP1 DUP4 MSTORE PUSH1 0x20 SWAP3 SWAP2 DUP2 SWAP1 DUP5 ADD DUP5 DUP5 ADD MCOPY PUSH0 DUP3 DUP3 ADD DUP5 ADD MSTORE PUSH1 0x1F ADD PUSH1 0x1F NOT AND ADD ADD SWAP1 JUMP JUMPDEST SWAP1 PUSH1 0x8 DUP3 LT ISZERO PUSH2 0xA02 JUMPI MSTORE JUMP JUMPDEST PUSH1 0x20 PUSH1 0x40 DUP2 DUP4 ADD SWAP3 DUP3 DUP2 MSTORE DUP5 MLOAD DUP1 SWAP5 MSTORE ADD SWAP3 ADD SWAP1 PUSH0 JUMPDEST DUP2 DUP2 LT PUSH2 0x281D JUMPI POP POP POP SWAP1 JUMP JUMPDEST DUP3 MLOAD DUP5 MSTORE PUSH1 0x20 SWAP4 DUP5 ADD SWAP4 SWAP1 SWAP3 ADD SWAP2 PUSH1 0x1 ADD PUSH2 0x2810 JUMP JUMPDEST PUSH1 0x24 CALLDATALOAD SWAP1 DUP2 ISZERO ISZERO DUP3 SUB PUSH2 0x9BF JUMPI JUMP JUMPDEST SWAP2 DUP2 PUSH1 0x1F DUP5 ADD SLT ISZERO PUSH2 0x9BF JUMPI DUP3 CALLDATALOAD SWAP2 PUSH1 0x1 PUSH1 0x1 PUSH1 0x40 SHL SUB DUP4 GT PUSH2 0x9BF JUMPI PUSH1 0x20 DUP4 DUP2 DUP7 ADD SWAP6 ADD ADD GT PUSH2 0x9BF JUMPI JUMP JUMPDEST SWAP1 PUSH1 0x40 PUSH1 0x3 NOT DUP4 ADD SLT PUSH2 0x9BF JUMPI PUSH1 0x4 CALLDATALOAD SWAP2 PUSH1 0x24 CALLDATALOAD SWAP1 PUSH1 0x1 PUSH1 0x1 PUSH1 0x40 SHL SUB DUP3 GT PUSH2 0x9BF JUMPI PUSH2 0x289E SWAP2 PUSH1 0x4 ADD PUSH2 0x2842 JUMP JUMPDEST SWAP1 SWAP2 JUMP JUMPDEST DUP1 SLOAD DUP3 LT ISZERO PUSH2 0x28B7 JUMPI PUSH0 MSTORE PUSH1 0x20 PUSH0 KECCAK256 ADD SWAP1 PUSH0 SWAP1 JUMP JUMPDEST PUSH4 0x4E487B71 PUSH1 0xE0 SHL PUSH0 MSTORE PUSH1 0x32 PUSH1 0x4 MSTORE PUSH1 0x24 PUSH0 REVERT JUMPDEST SWAP3 SWAP2 SWAP3 PUSH1 0x1 PUSH1 0x1 PUSH1 0x40 SHL SUB DUP3 GT PUSH2 0x1096 JUMPI PUSH1 0x40 MLOAD SWAP2 PUSH2 0x28F4 PUSH1 0x1F DUP3 ADD PUSH1 0x1F NOT AND PUSH1 0x20 ADD DUP5 PUSH2 0x2708 JUMP JUMPDEST DUP3 SWAP5 DUP2 DUP5 MSTORE DUP2 DUP4 ADD GT PUSH2 0x9BF JUMPI DUP3 DUP2 PUSH1 0x20 SWAP4 DUP5 PUSH0 SWAP7 ADD CALLDATACOPY ADD ADD MSTORE JUMP JUMPDEST ISZERO PUSH2 0x2917 JUMPI JUMP JUMPDEST PUSH1 0x40 MLOAD PUSH3 0x461BCD PUSH1 0xE5 SHL DUP2 MSTORE PUSH1 0x20 PUSH1 0x4 DUP3 ADD MSTORE PUSH1 0xE PUSH1 0x24 DUP3 ADD MSTORE PUSH14 0x496E76616C696420657363726F77 PUSH1 0x90 SHL PUSH1 0x44 DUP3 ADD MSTORE PUSH1 0x64 SWAP1 REVERT JUMPDEST ISZERO PUSH2 0x2954 JUMPI JUMP JUMPDEST PUSH1 0x40 MLOAD PUSH3 0x461BCD PUSH1 0xE5 SHL DUP2 MSTORE PUSH1 0x20 PUSH1 0x4 DUP3 ADD MSTORE PUSH1 0x9 PUSH1 0x24 DUP3 ADD MSTORE PUSH9 0x139BDD081859D95B9D PUSH1 0xBA SHL PUSH1 0x44 DUP3 ADD MSTORE PUSH1 0x64 SWAP1 REVERT JUMPDEST ISZERO PUSH2 0x298C JUMPI JUMP JUMPDEST PUSH1 0x40 MLOAD PUSH3 0x461BCD PUSH1 0xE5 SHL DUP2 MSTORE PUSH1 0x20 PUSH1 0x4 DUP3 ADD MSTORE PUSH1 0xE PUSH1 0x24 DUP3 ADD MSTORE PUSH14 0x496E76616C696420737461747573 PUSH1 0x90 SHL PUSH1 0x44 DUP3 ADD MSTORE PUSH1 0x64 SWAP1 REVERT JUMPDEST SWAP1 DUP2 PUSH1 0x20 SWAP2 SUB SLT PUSH2 0x9BF JUMPI MLOAD DUP1 ISZERO ISZERO DUP2 SUB PUSH2 0x9BF JUMPI SWAP1 JUMP JUMPDEST ISZERO PUSH2 0x29E1 JUMPI JUMP JUMPDEST PUSH1 0x40 MLOAD PUSH3 0x461BCD PUSH1 0xE5 SHL DUP2 MSTORE PUSH1 0x20 PUSH1 0x4 DUP3 ADD MSTORE PUSH1 0xD PUSH1 0x24 DUP3 ADD MSTORE PUSH13 0x1499599D5B990819985A5B1959 PUSH1 0x9A SHL PUSH1 0x44 DUP3 ADD MSTORE PUSH1 0x64 SWAP1 REVERT JUMPDEST ISZERO PUSH2 0x2A1D JUMPI JUMP JUMPDEST PUSH1 0x40 MLOAD PUSH3 0x461BCD PUSH1 0xE5 SHL DUP2 MSTORE PUSH1 0x20 PUSH1 0x4 DUP3 ADD MSTORE PUSH1 0xE PUSH1 0x24 DUP3 ADD MSTORE PUSH14 0x139BDD08185D5D1A1BDC9A5E9959 PUSH1 0x92 SHL PUSH1 0x44 DUP3 ADD MSTORE PUSH1 0x64 SWAP1 REVERT JUMPDEST ISZERO PUSH2 0x2A5A JUMPI JUMP JUMPDEST PUSH1 0x40 MLOAD PUSH3 0x461BCD PUSH1 0xE5 SHL DUP2 MSTORE PUSH1 0x20 PUSH1 0x4 DUP3 ADD MSTORE PUSH1 0x8 PUSH1 0x24 DUP3 ADD MSTORE PUSH8 0x2737BA103AB9B2B9 PUSH1 0xC1 SHL PUSH1 0x44 DUP3 ADD MSTORE PUSH1 0x64 SWAP1 REVERT JUMPDEST SWAP1 DUP1 PUSH1 0x20 SWAP4 SWAP3 DUP2 DUP5 MSTORE DUP5 DUP5 ADD CALLDATACOPY PUSH0 DUP3 DUP3 ADD DUP5 ADD MSTORE PUSH1 0x1F ADD PUSH1 0x1F NOT AND ADD ADD SWAP1 JUMP JUMPDEST PUSH1 0x1F DUP3 GT PUSH2 0x2AB7 JUMPI POP POP POP JUMP JUMPDEST PUSH0 MSTORE PUSH1 0x20 PUSH0 KECCAK256 SWAP1 PUSH1 0x20 PUSH1 0x1F DUP5 ADD PUSH1 0x5 SHR DUP4 ADD SWAP4 LT PUSH2 0x2AEF JUMPI JUMPDEST PUSH1 0x1F ADD PUSH1 0x5 SHR ADD SWAP1 JUMPDEST DUP2 DUP2 LT PUSH2 0x2AE4 JUMPI POP POP JUMP JUMPDEST PUSH0 DUP2 SSTORE PUSH1 0x1 ADD PUSH2 0x2AD9 JUMP JUMPDEST SWAP1 SWAP2 POP DUP2 SWAP1 PUSH2 0x2AD0 JUMP JUMPDEST ISZERO PUSH2 0x2B00 JUMPI JUMP JUMPDEST PUSH1 0x40 MLOAD PUSH3 0x461BCD PUSH1 0xE5 SHL DUP2 MSTORE PUSH1 0x20 PUSH1 0x4 DUP3 ADD MSTORE PUSH1 0x14 PUSH1 0x24 DUP3 ADD MSTORE PUSH20 0x1059D95B9D081C185E5B595B9D0819985A5B1959 PUSH1 0x62 SHL PUSH1 0x44 DUP3 ADD MSTORE PUSH1 0x64 SWAP1 REVERT JUMPDEST ISZERO PUSH2 0x2B43 JUMPI JUMP JUMPDEST PUSH1 0x40 MLOAD PUSH3 0x461BCD PUSH1 0xE5 SHL DUP2 MSTORE PUSH1 0x20 PUSH1 0x4 DUP3 ADD MSTORE PUSH1 0x13 PUSH1 0x24 DUP3 ADD MSTORE PUSH19 0x119959481D1C985B9CD9995C8819985A5B1959 PUSH1 0x6A SHL PUSH1 0x44 DUP3 ADD MSTORE PUSH1 0x64 SWAP1 REVERT JUMPDEST SWAP2 SWAP1 DUP3 SUB SWAP2 DUP3 GT PUSH2 0x117B JUMPI JUMP JUMPDEST DUP1 SLOAD PUSH9 0x10000000000000000 DUP2 LT ISZERO PUSH2 0x1096 JUMPI PUSH2 0x2BAD SWAP2 PUSH1 0x1 DUP3 ADD DUP2 SSTORE PUSH2 0x28A2 JUMP JUMPDEST DUP2 SWAP3 SWAP2 SLOAD SWAP1 PUSH1 0x3 SHL SWAP2 DUP3 SHL SWAP2 PUSH0 NOT SWAP1 SHL NOT AND OR SWAP1 SSTORE JUMP JUMPDEST PUSH1 0x2 PUSH0 MLOAD PUSH1 0x20 PUSH2 0x2C23 PUSH0 CODECOPY PUSH0 MLOAD SWAP1 PUSH0 MSTORE SLOAD EQ PUSH2 0x2BED JUMPI PUSH1 0x2 PUSH0 MLOAD PUSH1 0x20 PUSH2 0x2C23 PUSH0 CODECOPY PUSH0 MLOAD SWAP1 PUSH0 MSTORE SSTORE JUMP JUMPDEST PUSH4 0x3EE5AEB5 PUSH1 0xE0 SHL PUSH0 MSTORE PUSH1 0x4 PUSH0 REVERT JUMPDEST PUSH0 SLOAD PUSH1 0x1 PUSH1 0x1 PUSH1 0xA0 SHL SUB AND CALLER SUB PUSH2 0x2C0F JUMPI JUMP JUMPDEST PUSH4 0x118CDAA7 PUSH1 0xE0 SHL PUSH0 MSTORE CALLER PUSH1 0x4 MSTORE PUSH1 0x24 PUSH0 REVERT INVALID SWAP12 PUSH24 0x9B17422D0DF92223018B32B4D1FA46E071723D6817E2486D STOP EXTCODESIZE 0xEC 0xC5 PUSH0 STOP LOG2 PUSH5 0x6970667358 0x22 SLT KECCAK256 SIGNEXTEND 0xC1 PUSH11 0xD6B9D79E8736ACC02DFF63 MCOPY 0xDD 0x2D CODECOPY 0xBE 0xD4 EXTCODESIZE 0xCF 0xEF ADD 0xF9 0xE4 RETURNDATACOPY DIV SIGNEXTEND SWAP10 0xE1 SWAP9 PUSH5 0x736F6C6343 STOP ADDMOD SHR STOP CALLER "},"methodIdentifiers":{"DISPUTE_WINDOW()":"f585dc57","MAX_DEADLINE()":"6f0e530f","agentEscrows(uint256,uint256)":"c158bc3d","authorizedPayAgents(address)":"010586d7","autoRefund(uint256)":"0993cdbe","createEscrow(address,uint256,uint256,bytes32,string,string,uint256)":"a0043db9","disputeResolver()":"f5a3f4af","escrowFunds(uint256)":"34013c40","escrows(uint256)":"012f52ee","getAgentEscrows(uint256)":"04348d48","getEscrow(uint256)":"7d19e596","getEscrowIdByUpi(string)":"7a7bc1ce","getTotalEscrows()":"3f4dbda2","getUserEscrows(address)":"5ccea85e","identityRegistry()":"134e18f4","owner()":"8da5cb5b","payAgentTreasury()":"ec340c26","platformFeeBps()":"22dcd13e","raiseDispute(uint256,string)":"5aef573c","releasePayment(uint256)":"88685cd9","renounceOwnership()":"715018a6","reputationRegistry()":"c8db44e3","resolveDispute(uint256,bool,uint256)":"e6e946c2","setAuthorizedPayAgent(address,bool)":"4292338c","setPlatformFee(uint256)":"12e8e2c3","startWork(uint256)":"03a250f9","submitDelivery(uint256,string)":"618d1d4a","submitFeedback(uint256,int128,uint8,string,string)":"c4704fd3","transferOwnership(address)":"f2fde38b","upiToEscrow(string)":"b528bb15","usdc()":"3e413bee","userEscrows(address,uint256)":"7f944dd0"}}}}}