{"contracts/ERC8004ReputationRegistry.sol":{"ERC8004ReputationRegistry":{"abi":[{"inputs":[{"internalType":"address","name":"_identityRegistry","type":"address"}],"stateMutability":"nonpayable","type":"constructor"},{"anonymous":false,"inputs":[{"indexed":true,"internalType":"uint256","name":"agentId","type":"uint256"},{"indexed":true,"internalType":"address","name":"reviewer","type":"address"},{"indexed":false,"internalType":"int128","name":"score","type":"int128"},{"indexed":false,"internalType":"uint8","name":"decimals","type":"uint8"},{"indexed":false,"internalType":"string","name":"tags","type":"string"}],"name":"NewFeedback","type":"event"},{"inputs":[{"internalType":"uint256","name":"","type":"uint256"},{"internalType":"uint256","name":"","type":"uint256"}],"name":"agentFeedback","outputs":[{"internalType":"address","name":"reviewer","type":"address"},{"internalType":"int128","name":"score","type":"int128"},{"internalType":"uint8","name":"decimals","type":"uint8"},{"internalType":"string","name":"tags","type":"string"},{"internalType":"string","name":"feedbackURI","type":"string"},{"internalType":"bytes32","name":"contentHash","type":"bytes32"},{"internalType":"uint256","name":"timestamp","type":"uint256"}],"stateMutability":"view","type":"function"},{"inputs":[{"internalType":"uint256","name":"","type":"uint256"}],"name":"agentFeedbackCount","outputs":[{"internalType":"uint256","name":"","type":"uint256"}],"stateMutability":"view","type":"function"},{"inputs":[{"internalType":"uint256","name":"","type":"uint256"}],"name":"agentTotalScore","outputs":[{"internalType":"int256","name":"","type":"int256"}],"stateMutability":"view","type":"function"},{"inputs":[{"internalType":"uint256","name":"_agentId","type":"uint256"}],"name":"getAllFeedback","outputs":[{"components":[{"internalType":"address","name":"reviewer","type":"address"},{"internalType":"int128","name":"score","type":"int128"},{"internalType":"uint8","name":"decimals","type":"uint8"},{"internalType":"string","name":"tags","type":"string"},{"internalType":"string","name":"feedbackURI","type":"string"},{"internalType":"bytes32","name":"contentHash","type":"bytes32"},{"internalType":"uint256","name":"timestamp","type":"uint256"}],"internalType":"struct ERC8004ReputationRegistry.Feedback[]","name":"","type":"tuple[]"}],"stateMutability":"view","type":"function"},{"inputs":[{"internalType":"uint256","name":"_agentId","type":"uint256"}],"name":"getAverageScore","outputs":[{"internalType":"int256","name":"","type":"int256"}],"stateMutability":"view","type":"function"},{"inputs":[{"internalType":"uint256","name":"_agentId","type":"uint256"},{"internalType":"uint256","name":"_index","type":"uint256"}],"name":"getFeedback","outputs":[{"components":[{"internalType":"address","name":"reviewer","type":"address"},{"internalType":"int128","name":"score","type":"int128"},{"internalType":"uint8","name":"decimals","type":"uint8"},{"internalType":"string","name":"tags","type":"string"},{"internalType":"string","name":"feedbackURI","type":"string"},{"internalType":"bytes32","name":"contentHash","type":"bytes32"},{"internalType":"uint256","name":"timestamp","type":"uint256"}],"internalType":"struct ERC8004ReputationRegistry.Feedback","name":"","type":"tuple"}],"stateMutability":"view","type":"function"},{"inputs":[{"internalType":"uint256","name":"_agentId","type":"uint256"}],"name":"getFeedbackCount","outputs":[{"internalType":"uint256","name":"","type":"uint256"}],"stateMutability":"view","type":"function"},{"inputs":[{"internalType":"uint256","name":"_agentId","type":"uint256"},{"internalType":"int128","name":"_score","type":"int128"},{"internalType":"uint8","name":"_decimals","type":"uint8"},{"internalType":"string","name":"_tags","type":"string"},{"internalType":"string","name":"_feedbackURI","type":"string"},{"internalType":"bytes32","name":"_contentHash","type":"bytes32"}],"name":"giveFeedback","outputs":[],"stateMutability":"nonpayable","type":"function"},{"inputs":[],"name":"identityRegistry","outputs":[{"internalType":"contract IERC8004Identity","name":"","type":"address"}],"stateMutability":"view","type":"function"}],"evm":{"bytecode":{"linkReferences":{},"object":"608034606f57601f610ca938819003918201601f19168301916001600160401b03831184841017607357808492602094604052833981010312606f57516001600160a01b03811690819003606f575f80546001600160a01b031916919091179055604051610c2190816100888239f35b5f80fd5b634e487b7160e01b5f52604160045260245ffdfe6080806040526004361015610012575f80fd5b5f3560e01c908163134e18f4146108c6575080632d150457146107fd57806330a6a1ff146107d357806336126d06146107225780633ffd4239146106405780634537b76414610616578063a41e58f314610616578063d8dc7661146100a95763de3a2b591461007f575f80fd5b346100a55760203660031901126100a557602061009d600435610baf565b604051908152f35b5f80fd5b346100a55760c03660031901126100a5576004356024359081600f0b8092036100a55760443560ff81168091036100a55760643567ffffffffffffffff81116100a5576100fa903690600401610ad0565b939060843567ffffffffffffffff81116100a55761011c903690600401610ad0565b906024602060018060a01b035f541660405192838092630af34d3160e31b82528b60048301525afa90811561060b575f916105d0575b5015610594575f841261055a576040519161016c836109f2565b338352602083019085825261019c604085019388855261018d368c89610b69565b92606087019384523691610b69565b906080850191825260a085019260a435845260c08601944286528a5f52600160205260405f20805468010000000000000000811015610475576101e49160018201815561098d565b9790976105475760018060a01b039051166bffffffffffffffffffffffff60a01b885416178755600187019151906fffffffffffffffffffffffffffffffff83549160ff60801b905160801b1692169070ffffffffffffffffffffffffffffffffff19161717905560028501905180519067ffffffffffffffff821161047557819061027084546109ba565b601f81116104f7575b50602090601f8311600114610494575f92610489575b50508160011b915f199060031b1c19161790555b518051600385019167ffffffffffffffff8211610475576102c483546109ba565b601f8111610430575b50602090601f83116001146103c857600595949392915f91836103bd575b50508160011b915f199060031b1c19161790555b51600484015551910155835f52600260205260405f2080545f1981146103a9576001019055835f52600360205260405f2090815493838501945f85871291129080158216911516176103a9577f842481add34dd10393b56cbce8f38758c82c6836148ed7f7330ed6f9319ca5919487935560405193845260208401526060604084015281606084015260808301375f608085830101526080813395601f80199101168101030190a3005b634e487b7160e01b5f52601160045260245ffd5b015190508c806102eb565b90601f19831691845f52815f20925f5b81811061041857509160019391856005999897969410610400575b505050811b0190556102ff565b01515f1960f88460031b161c191690558c80806103f3565b929360206001819287860151815501950193016103d8565b835f5260205f20601f840160051c8101916020851061046b575b601f0160051c01905b81811061046057506102cd565b5f8155600101610453565b909150819061044a565b634e487b7160e01b5f52604160045260245ffd5b015190508c8061028f565b5f8581528281209350601f198516905b8181106104df57509084600195949392106104c7575b505050811b0190556102a3565b01515f1960f88460031b161c191690558c80806104ba565b929360206001819287860151815501950193016104a4565b909150835f5260205f20601f840160051c8101916020851061053d575b90601f859493920160051c01905b81811061052f5750610279565b5f8155849350600101610522565b9091508190610514565b634e487b7160e01b5f525f60045260245ffd5b60405162461bcd60e51b8152602060048201526012602482015271053636f7265206d757374206265203e3d20360741b6044820152606490fd5b60405162461bcd60e51b81526020600482015260146024820152731059d95b9d081b9bdd081c9959da5cdd195c995960621b6044820152606490fd5b90506020813d602011610603575b816105eb60209383610a0e565b810103126100a5575180151581036100a55788610152565b3d91506105de565b6040513d5f823e3d90fd5b346100a55760203660031901126100a5576004355f526002602052602060405f2054604051908152f35b346100a55760203660031901126100a5576004355f52600160205260405f2080549067ffffffffffffffff8211610475576040519161068560208260051b0184610a0e565b8083526020830180925f5260205f205f915b83831061070457848660405191829160208301906020845251809152604083019060408160051b85010192915f905b8282106106d557505050500390f35b919360019193955060206106f48192603f198a82030186528851610922565b96019201920185949391926106c6565b6006602060019261071485610afe565b815201920192019190610697565b346100a557610730366108e8565b905f52600160205260405f209081548110156100a55761074f9161098d565b5060018060a01b0381541660018201549161076c60028201610a30565b6107c461077b60038401610a30565b6107b6600560048601549501549360ff604051988998895280600f0b60208a015260801c16604088015260e0606088015260e08701906108fe565b9085820360808701526108fe565b9160a084015260c08301520390f35b346100a55760203660031901126100a5576004355f526003602052602060405f2054604051908152f35b346100a55761080b366108e8565b5f60c060405161081a816109f2565b828152826020820152826040820152606080820152606060808201528260a08201520152815f52600160205260405f205481101561088b5761086d61087391610887935f52600160205260405f2061098d565b50610afe565b604051918291602083526020830190610922565b0390f35b60405162461bcd60e51b8152602060048201526013602482015272496e646578206f7574206f6620626f756e647360681b6044820152606490fd5b346100a5575f3660031901126100a5575f546001600160a01b03168152602090f35b60409060031901126100a5576004359060243590565b805180835260209291819084018484015e5f828201840152601f01601f1916010190565b9060018060a01b0382511681526020820151600f0b602082015260ff604083015116604082015260c08061097a610968606086015160e0606087015260e08601906108fe565b608086015185820360808701526108fe565b9360a081015160a0850152015191015290565b80548210156109a6575f52600660205f20910201905f90565b634e487b7160e01b5f52603260045260245ffd5b90600182811c921680156109e8575b60208310146109d457565b634e487b7160e01b5f52602260045260245ffd5b91607f16916109c9565b60e0810190811067ffffffffffffffff82111761047557604052565b90601f8019910116810190811067ffffffffffffffff82111761047557604052565b9060405191825f825492610a43846109ba565b8084529360018116908115610aae5750600114610a6a575b50610a6892500383610a0e565b565b90505f9291925260205f20905f915b818310610a92575050906020610a68928201015f610a5b565b6020919350806001915483858901015201910190918492610a79565b905060209250610a6894915060ff191682840152151560051b8201015f610a5b565b9181601f840112156100a55782359167ffffffffffffffff83116100a557602083818601950101116100a557565b90604051610b0b816109f2565b60c06005829460018060a01b03815416845260ff600182015480600f0b602087015260801c166040850152610b4260028201610a30565b6060850152610b5360038201610a30565b6080850152600481015460a08501520154910152565b92919267ffffffffffffffff82116104755760405191610b93601f8201601f191660200184610a0e565b8294818452818301116100a5578281602093845f960137010152565b805f52600260205260405f2054908115610be5575f90815260036020526040902054600160ff1b81145f198314166103a9570590565b50505f9056fea2646970667358221220a0c6527aebd656039492e5de4f45b01b36d7ca9fce78b93a458474f0801c1d2864736f6c634300081c0033","opcodes":"PUSH1 0x80 CALLVALUE PUSH1 0x6F JUMPI PUSH1 0x1F PUSH2 0xCA9 CODESIZE DUP2 SWAP1 SUB SWAP2 DUP3 ADD PUSH1 0x1F NOT AND DUP4 ADD SWAP2 PUSH1 0x1 PUSH1 0x1 PUSH1 0x40 SHL SUB DUP4 GT DUP5 DUP5 LT OR PUSH1 0x73 JUMPI DUP1 DUP5 SWAP3 PUSH1 0x20 SWAP5 PUSH1 0x40 MSTORE DUP4 CODECOPY DUP2 ADD SUB SLT PUSH1 0x6F JUMPI MLOAD PUSH1 0x1 PUSH1 0x1 PUSH1 0xA0 SHL SUB DUP2 AND SWAP1 DUP2 SWAP1 SUB PUSH1 0x6F JUMPI PUSH0 DUP1 SLOAD PUSH1 0x1 PUSH1 0x1 PUSH1 0xA0 SHL SUB NOT AND SWAP2 SWAP1 SWAP2 OR SWAP1 SSTORE PUSH1 0x40 MLOAD PUSH2 0xC21 SWAP1 DUP2 PUSH2 0x88 DUP3 CODECOPY RETURN JUMPDEST PUSH0 DUP1 REVERT JUMPDEST PUSH4 0x4E487B71 PUSH1 0xE0 SHL PUSH0 MSTORE PUSH1 0x41 PUSH1 0x4 MSTORE PUSH1 0x24 PUSH0 REVERT INVALID PUSH1 0x80 DUP1 PUSH1 0x40 MSTORE PUSH1 0x4 CALLDATASIZE LT ISZERO PUSH2 0x12 JUMPI PUSH0 DUP1 REVERT JUMPDEST PUSH0 CALLDATALOAD PUSH1 0xE0 SHR SWAP1 DUP2 PUSH4 0x134E18F4 EQ PUSH2 0x8C6 JUMPI POP DUP1 PUSH4 0x2D150457 EQ PUSH2 0x7FD JUMPI DUP1 PUSH4 0x30A6A1FF EQ PUSH2 0x7D3 JUMPI DUP1 PUSH4 0x36126D06 EQ PUSH2 0x722 JUMPI DUP1 PUSH4 0x3FFD4239 EQ PUSH2 0x640 JUMPI DUP1 PUSH4 0x4537B764 EQ PUSH2 0x616 JUMPI DUP1 PUSH4 0xA41E58F3 EQ PUSH2 0x616 JUMPI DUP1 PUSH4 0xD8DC7661 EQ PUSH2 0xA9 JUMPI PUSH4 0xDE3A2B59 EQ PUSH2 0x7F JUMPI PUSH0 DUP1 REVERT JUMPDEST CALLVALUE PUSH2 0xA5 JUMPI PUSH1 0x20 CALLDATASIZE PUSH1 0x3 NOT ADD SLT PUSH2 0xA5 JUMPI PUSH1 0x20 PUSH2 0x9D PUSH1 0x4 CALLDATALOAD PUSH2 0xBAF JUMP JUMPDEST PUSH1 0x40 MLOAD SWAP1 DUP2 MSTORE RETURN JUMPDEST PUSH0 DUP1 REVERT JUMPDEST CALLVALUE PUSH2 0xA5 JUMPI PUSH1 0xC0 CALLDATASIZE PUSH1 0x3 NOT ADD SLT PUSH2 0xA5 JUMPI PUSH1 0x4 CALLDATALOAD PUSH1 0x24 CALLDATALOAD SWAP1 DUP2 PUSH1 0xF SIGNEXTEND DUP1 SWAP3 SUB PUSH2 0xA5 JUMPI PUSH1 0x44 CALLDATALOAD PUSH1 0xFF DUP2 AND DUP1 SWAP2 SUB PUSH2 0xA5 JUMPI PUSH1 0x64 CALLDATALOAD PUSH8 0xFFFFFFFFFFFFFFFF DUP2 GT PUSH2 0xA5 JUMPI PUSH2 0xFA SWAP1 CALLDATASIZE SWAP1 PUSH1 0x4 ADD PUSH2 0xAD0 JUMP JUMPDEST SWAP4 SWAP1 PUSH1 0x84 CALLDATALOAD PUSH8 0xFFFFFFFFFFFFFFFF DUP2 GT PUSH2 0xA5 JUMPI PUSH2 0x11C SWAP1 CALLDATASIZE SWAP1 PUSH1 0x4 ADD PUSH2 0xAD0 JUMP JUMPDEST SWAP1 PUSH1 0x24 PUSH1 0x20 PUSH1 0x1 DUP1 PUSH1 0xA0 SHL SUB PUSH0 SLOAD AND PUSH1 0x40 MLOAD SWAP3 DUP4 DUP1 SWAP3 PUSH4 0xAF34D31 PUSH1 0xE3 SHL DUP3 MSTORE DUP12 PUSH1 0x4 DUP4 ADD MSTORE GAS STATICCALL SWAP1 DUP2 ISZERO PUSH2 0x60B JUMPI PUSH0 SWAP2 PUSH2 0x5D0 JUMPI JUMPDEST POP ISZERO PUSH2 0x594 JUMPI PUSH0 DUP5 SLT PUSH2 0x55A JUMPI PUSH1 0x40 MLOAD SWAP2 PUSH2 0x16C DUP4 PUSH2 0x9F2 JUMP JUMPDEST CALLER DUP4 MSTORE PUSH1 0x20 DUP4 ADD SWAP1 DUP6 DUP3 MSTORE PUSH2 0x19C PUSH1 0x40 DUP6 ADD SWAP4 DUP9 DUP6 MSTORE PUSH2 0x18D CALLDATASIZE DUP13 DUP10 PUSH2 0xB69 JUMP JUMPDEST SWAP3 PUSH1 0x60 DUP8 ADD SWAP4 DUP5 MSTORE CALLDATASIZE SWAP2 PUSH2 0xB69 JUMP JUMPDEST SWAP1 PUSH1 0x80 DUP6 ADD SWAP2 DUP3 MSTORE PUSH1 0xA0 DUP6 ADD SWAP3 PUSH1 0xA4 CALLDATALOAD DUP5 MSTORE PUSH1 0xC0 DUP7 ADD SWAP5 TIMESTAMP DUP7 MSTORE DUP11 PUSH0 MSTORE PUSH1 0x1 PUSH1 0x20 MSTORE PUSH1 0x40 PUSH0 KECCAK256 DUP1 SLOAD PUSH9 0x10000000000000000 DUP2 LT ISZERO PUSH2 0x475 JUMPI PUSH2 0x1E4 SWAP2 PUSH1 0x1 DUP3 ADD DUP2 SSTORE PUSH2 0x98D JUMP JUMPDEST SWAP8 SWAP1 SWAP8 PUSH2 0x547 JUMPI PUSH1 0x1 DUP1 PUSH1 0xA0 SHL SUB SWAP1 MLOAD AND PUSH12 0xFFFFFFFFFFFFFFFFFFFFFFFF PUSH1 0xA0 SHL DUP9 SLOAD AND OR DUP8 SSTORE PUSH1 0x1 DUP8 ADD SWAP2 MLOAD SWAP1 PUSH16 0xFFFFFFFFFFFFFFFFFFFFFFFFFFFFFFFF DUP4 SLOAD SWAP2 PUSH1 0xFF PUSH1 0x80 SHL SWAP1 MLOAD PUSH1 0x80 SHL AND SWAP3 AND SWAP1 PUSH17 0xFFFFFFFFFFFFFFFFFFFFFFFFFFFFFFFFFF NOT AND OR OR SWAP1 SSTORE PUSH1 0x2 DUP6 ADD SWAP1 MLOAD DUP1 MLOAD SWAP1 PUSH8 0xFFFFFFFFFFFFFFFF DUP3 GT PUSH2 0x475 JUMPI DUP2 SWAP1 PUSH2 0x270 DUP5 SLOAD PUSH2 0x9BA JUMP JUMPDEST PUSH1 0x1F DUP2 GT PUSH2 0x4F7 JUMPI JUMPDEST POP PUSH1 0x20 SWAP1 PUSH1 0x1F DUP4 GT PUSH1 0x1 EQ PUSH2 0x494 JUMPI PUSH0 SWAP3 PUSH2 0x489 JUMPI JUMPDEST POP POP DUP2 PUSH1 0x1 SHL SWAP2 PUSH0 NOT SWAP1 PUSH1 0x3 SHL SHR NOT AND OR SWAP1 SSTORE JUMPDEST MLOAD DUP1 MLOAD PUSH1 0x3 DUP6 ADD SWAP2 PUSH8 0xFFFFFFFFFFFFFFFF DUP3 GT PUSH2 0x475 JUMPI PUSH2 0x2C4 DUP4 SLOAD PUSH2 0x9BA JUMP JUMPDEST PUSH1 0x1F DUP2 GT PUSH2 0x430 JUMPI JUMPDEST POP PUSH1 0x20 SWAP1 PUSH1 0x1F DUP4 GT PUSH1 0x1 EQ PUSH2 0x3C8 JUMPI PUSH1 0x5 SWAP6 SWAP5 SWAP4 SWAP3 SWAP2 PUSH0 SWAP2 DUP4 PUSH2 0x3BD JUMPI JUMPDEST POP POP DUP2 PUSH1 0x1 SHL SWAP2 PUSH0 NOT SWAP1 PUSH1 0x3 SHL SHR NOT AND OR SWAP1 SSTORE JUMPDEST MLOAD PUSH1 0x4 DUP5 ADD SSTORE MLOAD SWAP2 ADD SSTORE DUP4 PUSH0 MSTORE PUSH1 0x2 PUSH1 0x20 MSTORE PUSH1 0x40 PUSH0 KECCAK256 DUP1 SLOAD PUSH0 NOT DUP2 EQ PUSH2 0x3A9 JUMPI PUSH1 0x1 ADD SWAP1 SSTORE DUP4 PUSH0 MSTORE PUSH1 0x3 PUSH1 0x20 MSTORE PUSH1 0x40 PUSH0 KECCAK256 SWAP1 DUP2 SLOAD SWAP4 DUP4 DUP6 ADD SWAP5 PUSH0 DUP6 DUP8 SLT SWAP2 SLT SWAP1 DUP1 ISZERO DUP3 AND SWAP2 ISZERO AND OR PUSH2 0x3A9 JUMPI PUSH32 0x842481ADD34DD10393B56CBCE8F38758C82C6836148ED7F7330ED6F9319CA591 SWAP5 DUP8 SWAP4 SSTORE PUSH1 0x40 MLOAD SWAP4 DUP5 MSTORE PUSH1 0x20 DUP5 ADD MSTORE PUSH1 0x60 PUSH1 0x40 DUP5 ADD MSTORE DUP2 PUSH1 0x60 DUP5 ADD MSTORE PUSH1 0x80 DUP4 ADD CALLDATACOPY PUSH0 PUSH1 0x80 DUP6 DUP4 ADD ADD MSTORE PUSH1 0x80 DUP2 CALLER SWAP6 PUSH1 0x1F DUP1 NOT SWAP2 ADD AND DUP2 ADD SUB ADD SWAP1 LOG3 STOP JUMPDEST PUSH4 0x4E487B71 PUSH1 0xE0 SHL PUSH0 MSTORE PUSH1 0x11 PUSH1 0x4 MSTORE PUSH1 0x24 PUSH0 REVERT JUMPDEST ADD MLOAD SWAP1 POP DUP13 DUP1 PUSH2 0x2EB JUMP JUMPDEST SWAP1 PUSH1 0x1F NOT DUP4 AND SWAP2 DUP5 PUSH0 MSTORE DUP2 PUSH0 KECCAK256 SWAP3 PUSH0 JUMPDEST DUP2 DUP2 LT PUSH2 0x418 JUMPI POP SWAP2 PUSH1 0x1 SWAP4 SWAP2 DUP6 PUSH1 0x5 SWAP10 SWAP9 SWAP8 SWAP7 SWAP5 LT PUSH2 0x400 JUMPI JUMPDEST POP POP POP DUP2 SHL ADD SWAP1 SSTORE PUSH2 0x2FF JUMP JUMPDEST ADD MLOAD PUSH0 NOT PUSH1 0xF8 DUP5 PUSH1 0x3 SHL AND SHR NOT AND SWAP1 SSTORE DUP13 DUP1 DUP1 PUSH2 0x3F3 JUMP JUMPDEST SWAP3 SWAP4 PUSH1 0x20 PUSH1 0x1 DUP2 SWAP3 DUP8 DUP7 ADD MLOAD DUP2 SSTORE ADD SWAP6 ADD SWAP4 ADD PUSH2 0x3D8 JUMP JUMPDEST DUP4 PUSH0 MSTORE PUSH1 0x20 PUSH0 KECCAK256 PUSH1 0x1F DUP5 ADD PUSH1 0x5 SHR DUP2 ADD SWAP2 PUSH1 0x20 DUP6 LT PUSH2 0x46B JUMPI JUMPDEST PUSH1 0x1F ADD PUSH1 0x5 SHR ADD SWAP1 JUMPDEST DUP2 DUP2 LT PUSH2 0x460 JUMPI POP PUSH2 0x2CD JUMP JUMPDEST PUSH0 DUP2 SSTORE PUSH1 0x1 ADD PUSH2 0x453 JUMP JUMPDEST SWAP1 SWAP2 POP DUP2 SWAP1 PUSH2 0x44A JUMP JUMPDEST PUSH4 0x4E487B71 PUSH1 0xE0 SHL PUSH0 MSTORE PUSH1 0x41 PUSH1 0x4 MSTORE PUSH1 0x24 PUSH0 REVERT JUMPDEST ADD MLOAD SWAP1 POP DUP13 DUP1 PUSH2 0x28F JUMP JUMPDEST PUSH0 DUP6 DUP2 MSTORE DUP3 DUP2 KECCAK256 SWAP4 POP PUSH1 0x1F NOT DUP6 AND SWAP1 JUMPDEST DUP2 DUP2 LT PUSH2 0x4DF JUMPI POP SWAP1 DUP5 PUSH1 0x1 SWAP6 SWAP5 SWAP4 SWAP3 LT PUSH2 0x4C7 JUMPI JUMPDEST POP POP POP DUP2 SHL ADD SWAP1 SSTORE PUSH2 0x2A3 JUMP JUMPDEST ADD MLOAD PUSH0 NOT PUSH1 0xF8 DUP5 PUSH1 0x3 SHL AND SHR NOT AND SWAP1 SSTORE DUP13 DUP1 DUP1 PUSH2 0x4BA JUMP JUMPDEST SWAP3 SWAP4 PUSH1 0x20 PUSH1 0x1 DUP2 SWAP3 DUP8 DUP7 ADD MLOAD DUP2 SSTORE ADD SWAP6 ADD SWAP4 ADD PUSH2 0x4A4 JUMP JUMPDEST SWAP1 SWAP2 POP DUP4 PUSH0 MSTORE PUSH1 0x20 PUSH0 KECCAK256 PUSH1 0x1F DUP5 ADD PUSH1 0x5 SHR DUP2 ADD SWAP2 PUSH1 0x20 DUP6 LT PUSH2 0x53D JUMPI JUMPDEST SWAP1 PUSH1 0x1F DUP6 SWAP5 SWAP4 SWAP3 ADD PUSH1 0x5 SHR ADD SWAP1 JUMPDEST DUP2 DUP2 LT PUSH2 0x52F JUMPI POP PUSH2 0x279 JUMP JUMPDEST PUSH0 DUP2 SSTORE DUP5 SWAP4 POP PUSH1 0x1 ADD PUSH2 0x522 JUMP JUMPDEST SWAP1 SWAP2 POP DUP2 SWAP1 PUSH2 0x514 JUMP JUMPDEST PUSH4 0x4E487B71 PUSH1 0xE0 SHL PUSH0 MSTORE PUSH0 PUSH1 0x4 MSTORE PUSH1 0x24 PUSH0 REVERT JUMPDEST PUSH1 0x40 MLOAD PUSH3 0x461BCD PUSH1 0xE5 SHL DUP2 MSTORE PUSH1 0x20 PUSH1 0x4 DUP3 ADD MSTORE PUSH1 0x12 PUSH1 0x24 DUP3 ADD MSTORE PUSH18 0x53636F7265206D757374206265203E3D203 PUSH1 0x74 SHL PUSH1 0x44 DUP3 ADD MSTORE PUSH1 0x64 SWAP1 REVERT JUMPDEST PUSH1 0x40 MLOAD PUSH3 0x461BCD PUSH1 0xE5 SHL DUP2 MSTORE PUSH1 0x20 PUSH1 0x4 DUP3 ADD MSTORE PUSH1 0x14 PUSH1 0x24 DUP3 ADD MSTORE PUSH20 0x1059D95B9D081B9BDD081C9959DA5CDD195C9959 PUSH1 0x62 SHL PUSH1 0x44 DUP3 ADD MSTORE PUSH1 0x64 SWAP1 REVERT JUMPDEST SWAP1 POP PUSH1 0x20 DUP2 RETURNDATASIZE PUSH1 0x20 GT PUSH2 0x603 JUMPI JUMPDEST DUP2 PUSH2 0x5EB PUSH1 0x20 SWAP4 DUP4 PUSH2 0xA0E JUMP JUMPDEST DUP2 ADD SUB SLT PUSH2 0xA5 JUMPI MLOAD DUP1 ISZERO ISZERO DUP2 SUB PUSH2 0xA5 JUMPI DUP9 PUSH2 0x152 JUMP JUMPDEST RETURNDATASIZE SWAP2 POP PUSH2 0x5DE JUMP JUMPDEST PUSH1 0x40 MLOAD RETURNDATASIZE PUSH0 DUP3 RETURNDATACOPY RETURNDATASIZE SWAP1 REVERT JUMPDEST CALLVALUE PUSH2 0xA5 JUMPI PUSH1 0x20 CALLDATASIZE PUSH1 0x3 NOT ADD SLT PUSH2 0xA5 JUMPI PUSH1 0x4 CALLDATALOAD PUSH0 MSTORE PUSH1 0x2 PUSH1 0x20 MSTORE PUSH1 0x20 PUSH1 0x40 PUSH0 KECCAK256 SLOAD PUSH1 0x40 MLOAD SWAP1 DUP2 MSTORE RETURN JUMPDEST CALLVALUE PUSH2 0xA5 JUMPI PUSH1 0x20 CALLDATASIZE PUSH1 0x3 NOT ADD SLT PUSH2 0xA5 JUMPI PUSH1 0x4 CALLDATALOAD PUSH0 MSTORE PUSH1 0x1 PUSH1 0x20 MSTORE PUSH1 0x40 PUSH0 KECCAK256 DUP1 SLOAD SWAP1 PUSH8 0xFFFFFFFFFFFFFFFF DUP3 GT PUSH2 0x475 JUMPI PUSH1 0x40 MLOAD SWAP2 PUSH2 0x685 PUSH1 0x20 DUP3 PUSH1 0x5 SHL ADD DUP5 PUSH2 0xA0E JUMP JUMPDEST DUP1 DUP4 MSTORE PUSH1 0x20 DUP4 ADD DUP1 SWAP3 PUSH0 MSTORE PUSH1 0x20 PUSH0 KECCAK256 PUSH0 SWAP2 JUMPDEST DUP4 DUP4 LT PUSH2 0x704 JUMPI DUP5 DUP7 PUSH1 0x40 MLOAD SWAP2 DUP3 SWAP2 PUSH1 0x20 DUP4 ADD SWAP1 PUSH1 0x20 DUP5 MSTORE MLOAD DUP1 SWAP2 MSTORE PUSH1 0x40 DUP4 ADD SWAP1 PUSH1 0x40 DUP2 PUSH1 0x5 SHL DUP6 ADD ADD SWAP3 SWAP2 PUSH0 SWAP1 JUMPDEST DUP3 DUP3 LT PUSH2 0x6D5 JUMPI POP POP POP POP SUB SWAP1 RETURN JUMPDEST SWAP2 SWAP4 PUSH1 0x1 SWAP2 SWAP4 SWAP6 POP PUSH1 0x20 PUSH2 0x6F4 DUP2 SWAP3 PUSH1 0x3F NOT DUP11 DUP3 SUB ADD DUP7 MSTORE DUP9 MLOAD PUSH2 0x922 JUMP JUMPDEST SWAP7 ADD SWAP3 ADD SWAP3 ADD DUP6 SWAP5 SWAP4 SWAP2 SWAP3 PUSH2 0x6C6 JUMP JUMPDEST PUSH1 0x6 PUSH1 0x20 PUSH1 0x1 SWAP3 PUSH2 0x714 DUP6 PUSH2 0xAFE JUMP JUMPDEST DUP2 MSTORE ADD SWAP3 ADD SWAP3 ADD SWAP2 SWAP1 PUSH2 0x697 JUMP JUMPDEST CALLVALUE PUSH2 0xA5 JUMPI PUSH2 0x730 CALLDATASIZE PUSH2 0x8E8 JUMP JUMPDEST SWAP1 PUSH0 MSTORE PUSH1 0x1 PUSH1 0x20 MSTORE PUSH1 0x40 PUSH0 KECCAK256 SWAP1 DUP2 SLOAD DUP2 LT ISZERO PUSH2 0xA5 JUMPI PUSH2 0x74F SWAP2 PUSH2 0x98D JUMP JUMPDEST POP PUSH1 0x1 DUP1 PUSH1 0xA0 SHL SUB DUP2 SLOAD AND PUSH1 0x1 DUP3 ADD SLOAD SWAP2 PUSH2 0x76C PUSH1 0x2 DUP3 ADD PUSH2 0xA30 JUMP JUMPDEST PUSH2 0x7C4 PUSH2 0x77B PUSH1 0x3 DUP5 ADD PUSH2 0xA30 JUMP JUMPDEST PUSH2 0x7B6 PUSH1 0x5 PUSH1 0x4 DUP7 ADD SLOAD SWAP6 ADD SLOAD SWAP4 PUSH1 0xFF PUSH1 0x40 MLOAD SWAP9 DUP10 SWAP9 DUP10 MSTORE DUP1 PUSH1 0xF SIGNEXTEND PUSH1 0x20 DUP11 ADD MSTORE PUSH1 0x80 SHR AND PUSH1 0x40 DUP9 ADD MSTORE PUSH1 0xE0 PUSH1 0x60 DUP9 ADD MSTORE PUSH1 0xE0 DUP8 ADD SWAP1 PUSH2 0x8FE JUMP JUMPDEST SWAP1 DUP6 DUP3 SUB PUSH1 0x80 DUP8 ADD MSTORE PUSH2 0x8FE JUMP JUMPDEST SWAP2 PUSH1 0xA0 DUP5 ADD MSTORE PUSH1 0xC0 DUP4 ADD MSTORE SUB SWAP1 RETURN JUMPDEST CALLVALUE PUSH2 0xA5 JUMPI PUSH1 0x20 CALLDATASIZE PUSH1 0x3 NOT ADD SLT PUSH2 0xA5 JUMPI PUSH1 0x4 CALLDATALOAD PUSH0 MSTORE PUSH1 0x3 PUSH1 0x20 MSTORE PUSH1 0x20 PUSH1 0x40 PUSH0 KECCAK256 SLOAD PUSH1 0x40 MLOAD SWAP1 DUP2 MSTORE RETURN JUMPDEST CALLVALUE PUSH2 0xA5 JUMPI PUSH2 0x80B CALLDATASIZE PUSH2 0x8E8 JUMP JUMPDEST PUSH0 PUSH1 0xC0 PUSH1 0x40 MLOAD PUSH2 0x81A DUP2 PUSH2 0x9F2 JUMP JUMPDEST DUP3 DUP2 MSTORE DUP3 PUSH1 0x20 DUP3 ADD MSTORE DUP3 PUSH1 0x40 DUP3 ADD MSTORE PUSH1 0x60 DUP1 DUP3 ADD MSTORE PUSH1 0x60 PUSH1 0x80 DUP3 ADD MSTORE DUP3 PUSH1 0xA0 DUP3 ADD MSTORE ADD MSTORE DUP2 PUSH0 MSTORE PUSH1 0x1 PUSH1 0x20 MSTORE PUSH1 0x40 PUSH0 KECCAK256 SLOAD DUP2 LT ISZERO PUSH2 0x88B JUMPI PUSH2 0x86D PUSH2 0x873 SWAP2 PUSH2 0x887 SWAP4 PUSH0 MSTORE PUSH1 0x1 PUSH1 0x20 MSTORE PUSH1 0x40 PUSH0 KECCAK256 PUSH2 0x98D JUMP JUMPDEST POP PUSH2 0xAFE JUMP JUMPDEST PUSH1 0x40 MLOAD SWAP2 DUP3 SWAP2 PUSH1 0x20 DUP4 MSTORE PUSH1 0x20 DUP4 ADD SWAP1 PUSH2 0x922 JUMP JUMPDEST SUB SWAP1 RETURN JUMPDEST PUSH1 0x40 MLOAD PUSH3 0x461BCD PUSH1 0xE5 SHL DUP2 MSTORE PUSH1 0x20 PUSH1 0x4 DUP3 ADD MSTORE PUSH1 0x13 PUSH1 0x24 DUP3 ADD MSTORE PUSH19 0x496E646578206F7574206F6620626F756E6473 PUSH1 0x68 SHL PUSH1 0x44 DUP3 ADD MSTORE PUSH1 0x64 SWAP1 REVERT JUMPDEST CALLVALUE PUSH2 0xA5 JUMPI PUSH0 CALLDATASIZE PUSH1 0x3 NOT ADD SLT PUSH2 0xA5 JUMPI PUSH0 SLOAD PUSH1 0x1 PUSH1 0x1 PUSH1 0xA0 SHL SUB AND DUP2 MSTORE PUSH1 0x20 SWAP1 RETURN JUMPDEST PUSH1 0x40 SWAP1 PUSH1 0x3 NOT ADD SLT PUSH2 0xA5 JUMPI PUSH1 0x4 CALLDATALOAD SWAP1 PUSH1 0x24 CALLDATALOAD SWAP1 JUMP JUMPDEST DUP1 MLOAD DUP1 DUP4 MSTORE PUSH1 0x20 SWAP3 SWAP2 DUP2 SWAP1 DUP5 ADD DUP5 DUP5 ADD MCOPY PUSH0 DUP3 DUP3 ADD DUP5 ADD MSTORE PUSH1 0x1F ADD PUSH1 0x1F NOT AND ADD ADD SWAP1 JUMP JUMPDEST SWAP1 PUSH1 0x1 DUP1 PUSH1 0xA0 SHL SUB DUP3 MLOAD AND DUP2 MSTORE PUSH1 0x20 DUP3 ADD MLOAD PUSH1 0xF SIGNEXTEND PUSH1 0x20 DUP3 ADD MSTORE PUSH1 0xFF PUSH1 0x40 DUP4 ADD MLOAD AND PUSH1 0x40 DUP3 ADD MSTORE PUSH1 0xC0 DUP1 PUSH2 0x97A PUSH2 0x968 PUSH1 0x60 DUP7 ADD MLOAD PUSH1 0xE0 PUSH1 0x60 DUP8 ADD MSTORE PUSH1 0xE0 DUP7 ADD SWAP1 PUSH2 0x8FE JUMP JUMPDEST PUSH1 0x80 DUP7 ADD MLOAD DUP6 DUP3 SUB PUSH1 0x80 DUP8 ADD MSTORE PUSH2 0x8FE JUMP JUMPDEST SWAP4 PUSH1 0xA0 DUP2 ADD MLOAD PUSH1 0xA0 DUP6 ADD MSTORE ADD MLOAD SWAP2 ADD MSTORE SWAP1 JUMP JUMPDEST DUP1 SLOAD DUP3 LT ISZERO PUSH2 0x9A6 JUMPI PUSH0 MSTORE PUSH1 0x6 PUSH1 0x20 PUSH0 KECCAK256 SWAP2 MUL ADD SWAP1 PUSH0 SWAP1 JUMP JUMPDEST PUSH4 0x4E487B71 PUSH1 0xE0 SHL PUSH0 MSTORE PUSH1 0x32 PUSH1 0x4 MSTORE PUSH1 0x24 PUSH0 REVERT JUMPDEST SWAP1 PUSH1 0x1 DUP3 DUP2 SHR SWAP3 AND DUP1 ISZERO PUSH2 0x9E8 JUMPI JUMPDEST PUSH1 0x20 DUP4 LT EQ PUSH2 0x9D4 JUMPI JUMP JUMPDEST PUSH4 0x4E487B71 PUSH1 0xE0 SHL PUSH0 MSTORE PUSH1 0x22 PUSH1 0x4 MSTORE PUSH1 0x24 PUSH0 REVERT JUMPDEST SWAP2 PUSH1 0x7F AND SWAP2 PUSH2 0x9C9 JUMP JUMPDEST PUSH1 0xE0 DUP2 ADD SWAP1 DUP2 LT PUSH8 0xFFFFFFFFFFFFFFFF DUP3 GT OR PUSH2 0x475 JUMPI PUSH1 0x40 MSTORE JUMP JUMPDEST SWAP1 PUSH1 0x1F DUP1 NOT SWAP2 ADD AND DUP2 ADD SWAP1 DUP2 LT PUSH8 0xFFFFFFFFFFFFFFFF DUP3 GT OR PUSH2 0x475 JUMPI PUSH1 0x40 MSTORE JUMP JUMPDEST SWAP1 PUSH1 0x40 MLOAD SWAP2 DUP3 PUSH0 DUP3 SLOAD SWAP3 PUSH2 0xA43 DUP5 PUSH2 0x9BA JUMP JUMPDEST DUP1 DUP5 MSTORE SWAP4 PUSH1 0x1 DUP2 AND SWAP1 DUP2 ISZERO PUSH2 0xAAE JUMPI POP PUSH1 0x1 EQ PUSH2 0xA6A JUMPI JUMPDEST POP PUSH2 0xA68 SWAP3 POP SUB DUP4 PUSH2 0xA0E JUMP JUMPDEST JUMP JUMPDEST SWAP1 POP PUSH0 SWAP3 SWAP2 SWAP3 MSTORE PUSH1 0x20 PUSH0 KECCAK256 SWAP1 PUSH0 SWAP2 JUMPDEST DUP2 DUP4 LT PUSH2 0xA92 JUMPI POP POP SWAP1 PUSH1 0x20 PUSH2 0xA68 SWAP3 DUP3 ADD ADD PUSH0 PUSH2 0xA5B JUMP JUMPDEST PUSH1 0x20 SWAP2 SWAP4 POP DUP1 PUSH1 0x1 SWAP2 SLOAD DUP4 DUP6 DUP10 ADD ADD MSTORE ADD SWAP2 ADD SWAP1 SWAP2 DUP5 SWAP3 PUSH2 0xA79 JUMP JUMPDEST SWAP1 POP PUSH1 0x20 SWAP3 POP PUSH2 0xA68 SWAP5 SWAP2 POP PUSH1 0xFF NOT AND DUP3 DUP5 ADD MSTORE ISZERO ISZERO PUSH1 0x5 SHL DUP3 ADD ADD PUSH0 PUSH2 0xA5B JUMP JUMPDEST SWAP2 DUP2 PUSH1 0x1F DUP5 ADD SLT ISZERO PUSH2 0xA5 JUMPI DUP3 CALLDATALOAD SWAP2 PUSH8 0xFFFFFFFFFFFFFFFF DUP4 GT PUSH2 0xA5 JUMPI PUSH1 0x20 DUP4 DUP2 DUP7 ADD SWAP6 ADD ADD GT PUSH2 0xA5 JUMPI JUMP JUMPDEST SWAP1 PUSH1 0x40 MLOAD PUSH2 0xB0B DUP2 PUSH2 0x9F2 JUMP JUMPDEST PUSH1 0xC0 PUSH1 0x5 DUP3 SWAP5 PUSH1 0x1 DUP1 PUSH1 0xA0 SHL SUB DUP2 SLOAD AND DUP5 MSTORE PUSH1 0xFF PUSH1 0x1 DUP3 ADD SLOAD DUP1 PUSH1 0xF SIGNEXTEND PUSH1 0x20 DUP8 ADD MSTORE PUSH1 0x80 SHR AND PUSH1 0x40 DUP6 ADD MSTORE PUSH2 0xB42 PUSH1 0x2 DUP3 ADD PUSH2 0xA30 JUMP JUMPDEST PUSH1 0x60 DUP6 ADD MSTORE PUSH2 0xB53 PUSH1 0x3 DUP3 ADD PUSH2 0xA30 JUMP JUMPDEST PUSH1 0x80 DUP6 ADD MSTORE PUSH1 0x4 DUP2 ADD SLOAD PUSH1 0xA0 DUP6 ADD MSTORE ADD SLOAD SWAP2 ADD MSTORE JUMP JUMPDEST SWAP3 SWAP2 SWAP3 PUSH8 0xFFFFFFFFFFFFFFFF DUP3 GT PUSH2 0x475 JUMPI PUSH1 0x40 MLOAD SWAP2 PUSH2 0xB93 PUSH1 0x1F DUP3 ADD PUSH1 0x1F NOT AND PUSH1 0x20 ADD DUP5 PUSH2 0xA0E JUMP JUMPDEST DUP3 SWAP5 DUP2 DUP5 MSTORE DUP2 DUP4 ADD GT PUSH2 0xA5 JUMPI DUP3 DUP2 PUSH1 0x20 SWAP4 DUP5 PUSH0 SWAP7 ADD CALLDATACOPY ADD ADD MSTORE JUMP JUMPDEST DUP1 PUSH0 MSTORE PUSH1 0x2 PUSH1 0x20 MSTORE PUSH1 0x40 PUSH0 KECCAK256 SLOAD SWAP1 DUP2 ISZERO PUSH2 0xBE5 JUMPI PUSH0 SWAP1 DUP2 MSTORE PUSH1 0x3 PUSH1 0x20 MSTORE PUSH1 0x40 SWAP1 KECCAK256 SLOAD PUSH1 0x1 PUSH1 0xFF SHL DUP2 EQ PUSH0 NOT DUP4 EQ AND PUSH2 0x3A9 JUMPI SDIV SWAP1 JUMP JUMPDEST POP POP PUSH0 SWAP1 JUMP INVALID LOG2 PUSH5 0x6970667358 0x22 SLT KECCAK256 LOG0 0xC6 MSTORE PUSH27 0xEBD656039492E5DE4F45B01B36D7CA9FCE78B93A458474F0801C1D 0x28 PUSH5 0x736F6C6343 STOP ADDMOD SHR STOP CALLER "},"methodIdentifiers":{"agentFeedback(uint256,uint256)":"36126d06","agentFeedbackCount(uint256)":"a41e58f3","agentTotalScore(uint256)":"30a6a1ff","getAllFeedback(uint256)":"3ffd4239","getAverageScore(uint256)":"de3a2b59","getFeedback(uint256,uint256)":"2d150457","getFeedbackCount(uint256)":"4537b764","giveFeedback(uint256,int128,uint8,string,string,bytes32)":"d8dc7661","identityRegistry()":"134e18f4"}}}}}