{"contracts/X402PaymentHandler.sol":{"X402PaymentHandler":{"abi":[{"inputs":[{"internalType":"address","name":"_usdc","type":"address"}],"stateMutability":"nonpayable","type":"constructor"},{"inputs":[],"name":"ECDSAInvalidSignature","type":"error"},{"inputs":[{"internalType":"uint256","name":"length","type":"uint256"}],"name":"ECDSAInvalidSignatureLength","type":"error"},{"inputs":[{"internalType":"bytes32","name":"s","type":"bytes32"}],"name":"ECDSAInvalidSignatureS","type":"error"},{"anonymous":false,"inputs":[{"indexed":true,"internalType":"bytes32","name":"escrowId","type":"bytes32"},{"indexed":true,"internalType":"address","name":"sender","type":"address"},{"indexed":true,"internalType":"address","name":"recipient","type":"address"},{"indexed":false,"internalType":"uint256","name":"amount","type":"uint256"},{"indexed":false,"internalType":"uint256","name":"nonce","type":"uint256"}],"name":"PaymentSettled","type":"event"},{"inputs":[{"internalType":"address","name":"_sender","type":"address"}],"name":"getNonce","outputs":[{"internalType":"uint256","name":"","type":"uint256"}],"stateMutability":"view","type":"function"},{"inputs":[{"internalType":"address","name":"_sender","type":"address"},{"internalType":"uint256","name":"_nonce","type":"uint256"}],"name":"isNonceUsed","outputs":[{"internalType":"bool","name":"","type":"bool"}],"stateMutability":"view","type":"function"},{"inputs":[{"internalType":"address","name":"","type":"address"}],"name":"nonces","outputs":[{"internalType":"uint256","name":"","type":"uint256"}],"stateMutability":"view","type":"function"},{"inputs":[{"components":[{"internalType":"address","name":"sender","type":"address"},{"internalType":"address","name":"recipient","type":"address"},{"internalType":"uint256","name":"amount","type":"uint256"},{"internalType":"uint256","name":"nonce","type":"uint256"},{"internalType":"uint256","name":"expiry","type":"uint256"},{"internalType":"bytes32","name":"escrowId","type":"bytes32"},{"internalType":"bytes","name":"signature","type":"bytes"}],"internalType":"struct X402PaymentHandler.PaymentPayload","name":"_payload","type":"tuple"}],"name":"settlePayment","outputs":[{"internalType":"bool","name":"","type":"bool"}],"stateMutability":"nonpayable","type":"function"},{"inputs":[],"name":"usdc","outputs":[{"internalType":"contract IERC20","name":"","type":"address"}],"stateMutability":"view","type":"function"},{"inputs":[{"internalType":"bytes32","name":"","type":"bytes32"}],"name":"usedNonces","outputs":[{"internalType":"bool","name":"","type":"bool"}],"stateMutability":"view","type":"function"}],"evm":{"bytecode":{"linkReferences":{},"object":"608034606f57601f61083b38819003918201601f19168301916001600160401b03831184841017607357808492602094604052833981010312606f57516001600160a01b03811690819003606f575f80546001600160a01b0319169190911790556040516107b390816100888239f35b5f80fd5b634e487b7160e01b5f52604160045260245ffdfe6080806040526004361015610012575f80fd5b5f3560e01c9081632d0335ab146105b9575080633e413bee146105925780634bdb123c1461013f5780637ecebe0014610107578063cab7e8eb146100915763feb617241461005e575f80fd5b3461008d57602036600319011261008d576004355f526001602052602060ff60405f2054166040519015158152f35b5f80fd5b3461008d57604036600319011261008d576100aa6105ed565b60405160609190911b6bffffffffffffffffffffffff1916602082019081526024356034830152906100e981605481015b03601f198101835282610617565b5190205f526001602052602060ff60405f2054166040519015158152f35b3461008d57602036600319011261008d576001600160a01b036101286105ed565b165f526002602052602060405f2054604051908152f35b3461008d57602036600319011261008d5760043567ffffffffffffffff811161008d5736819003906004810160e060031984011261008d5760848201359081421161055b5761018d81610603565b60405160609190911b6bffffffffffffffffffffffff19166020820190815260648501356034830181905292916101c781605481016100db565b519020805f52600160205260ff60405f205416610521576101e782610603565b9460248101966101f688610603565b9660448301359760a4840135976040519160208301936bffffffffffffffffffffffff199060601b1684526bffffffffffffffffffffffff199060601b16603483015289604883015287606883015260888201528760a882015260a8815261025f60c882610617565b51902060405160208101917f19457468657265756d205369676e6564204d6573736167653a0a3332000000008352603c820152603c81526102a1605c82610617565b5190209160c4810135916022190182121561008d57019060048201359167ffffffffffffffff831161008d576024810191833603831361008d57604051916102f3601f8601601f191660200184610617565b848352602060048636930101011161008d575f6020856103279661031e96838701378401015261064d565b90929192610687565b6001600160a01b0361033884610603565b166001600160a01b03909116036104e8575f52600160205260405f20600160ff1982541617905560018060a01b0361036f82610603565b165f52600260205260405f2080545f1981146104d45760010190555f546001600160a01b031660206103a083610603565b60646103ab89610603565b6040516323b872dd60e01b81526001600160a01b0393841660048201529216602483015260448201889052909283919082905f905af19081156104c9575f9161048e575b5015610452577f68ebe01b4f352b6188e551d6ff2b1636a7df4c2c84a6a9236ec0cc75cd2350569161042b610425604093610603565b96610603565b825195865260208601919091526001600160a01b03908116951693a4602060405160018152f35b60405162461bcd60e51b81526020600482015260146024820152731554d110c81d1c985b9cd9995c8819985a5b195960621b6044820152606490fd5b90506020813d6020116104c1575b816104a960209383610617565b8101031261008d5751801515810361008d57866103ef565b3d915061049c565b6040513d5f823e3d90fd5b634e487b7160e01b5f52601160045260245ffd5b60405162461bcd60e51b8152602060048201526011602482015270496e76616c6964207369676e617475726560781b6044820152606490fd5b60405162461bcd60e51b8152602060048201526012602482015271139bdb98d948185b1c9958591e481d5cd95960721b6044820152606490fd5b60405162461bcd60e51b815260206004820152600f60248201526e14185e5b595b9d08195e1c1a5c9959608a1b6044820152606490fd5b3461008d575f36600319011261008d575f546040516001600160a01b039091168152602090f35b3461008d57602036600319011261008d576020906001600160a01b036105dd6105ed565b165f526002825260405f20548152f35b600435906001600160a01b038216820361008d57565b356001600160a01b038116810361008d5790565b90601f8019910116810190811067ffffffffffffffff82111761063957604052565b634e487b7160e01b5f52604160045260245ffd5b815191906041830361067d576106769250602082015190606060408401519301515f1a906106fb565b9192909190565b50505f9160029190565b60048110156106e75780610699575050565b600181036106b05763f645eedf60e01b5f5260045ffd5b600281036106cb575063fce698f760e01b5f5260045260245ffd5b6003146106d55750565b6335e2f38360e21b5f5260045260245ffd5b634e487b7160e01b5f52602160045260245ffd5b91907f7fffffffffffffffffffffffffffffff5d576e7357a4501ddfe92f46681b20a08411610772579160209360809260ff5f9560405194855216868401526040830152606082015282805260015afa156104c9575f516001600160a01b0381161561076857905f905f90565b505f906001905f90565b5050505f916003919056fea2646970667358221220dcda0440a9491ef2f34dd20ae3b7082e7288ffa8499a30a6508a3f0a8533913764736f6c634300081c0033","opcodes":"PUSH1 0x80 CALLVALUE PUSH1 0x6F JUMPI PUSH1 0x1F PUSH2 0x83B CODESIZE DUP2 SWAP1 SUB SWAP2 DUP3 ADD PUSH1 0x1F NOT AND DUP4 ADD SWAP2 PUSH1 0x1 PUSH1 0x1 PUSH1 0x40 SHL SUB DUP4 GT DUP5 DUP5 LT OR PUSH1 0x73 JUMPI DUP1 DUP5 SWAP3 PUSH1 0x20 SWAP5 PUSH1 0x40 MSTORE DUP4 CODECOPY DUP2 ADD SUB SLT PUSH1 0x6F JUMPI MLOAD PUSH1 0x1 PUSH1 0x1 PUSH1 0xA0 SHL SUB DUP2 AND SWAP1 DUP2 SWAP1 SUB PUSH1 0x6F JUMPI PUSH0 DUP1 SLOAD PUSH1 0x1 PUSH1 0x1 PUSH1 0xA0 SHL SUB NOT AND SWAP2 SWAP1 SWAP2 OR SWAP1 SSTORE PUSH1 0x40 MLOAD PUSH2 0x7B3 SWAP1 DUP2 PUSH2 0x88 DUP3 CODECOPY RETURN JUMPDEST PUSH0 DUP1 REVERT JUMPDEST PUSH4 0x4E487B71 PUSH1 0xE0 SHL PUSH0 MSTORE PUSH1 0x41 PUSH1 0x4 MSTORE PUSH1 0x24 PUSH0 REVERT INVALID PUSH1 0x80 DUP1 PUSH1 0x40 MSTORE PUSH1 0x4 CALLDATASIZE LT ISZERO PUSH2 0x12 JUMPI PUSH0 DUP1 REVERT JUMPDEST PUSH0 CALLDATALOAD PUSH1 0xE0 SHR SWAP1 DUP2 PUSH4 0x2D0335AB EQ PUSH2 0x5B9 JUMPI POP DUP1 PUSH4 0x3E413BEE EQ PUSH2 0x592 JUMPI DUP1 PUSH4 0x4BDB123C EQ PUSH2 0x13F JUMPI DUP1 PUSH4 0x7ECEBE00 EQ PUSH2 0x107 JUMPI DUP1 PUSH4 0xCAB7E8EB EQ PUSH2 0x91 JUMPI PUSH4 0xFEB61724 EQ PUSH2 0x5E JUMPI PUSH0 DUP1 REVERT JUMPDEST CALLVALUE PUSH2 0x8D JUMPI PUSH1 0x20 CALLDATASIZE PUSH1 0x3 NOT ADD SLT PUSH2 0x8D JUMPI PUSH1 0x4 CALLDATALOAD PUSH0 MSTORE PUSH1 0x1 PUSH1 0x20 MSTORE PUSH1 0x20 PUSH1 0xFF PUSH1 0x40 PUSH0 KECCAK256 SLOAD AND PUSH1 0x40 MLOAD SWAP1 ISZERO ISZERO DUP2 MSTORE RETURN JUMPDEST PUSH0 DUP1 REVERT JUMPDEST CALLVALUE PUSH2 0x8D JUMPI PUSH1 0x40 CALLDATASIZE PUSH1 0x3 NOT ADD SLT PUSH2 0x8D JUMPI PUSH2 0xAA PUSH2 0x5ED JUMP JUMPDEST PUSH1 0x40 MLOAD PUSH1 0x60 SWAP2 SWAP1 SWAP2 SHL PUSH12 0xFFFFFFFFFFFFFFFFFFFFFFFF NOT AND PUSH1 0x20 DUP3 ADD SWAP1 DUP2 MSTORE PUSH1 0x24 CALLDATALOAD PUSH1 0x34 DUP4 ADD MSTORE SWAP1 PUSH2 0xE9 DUP2 PUSH1 0x54 DUP2 ADD JUMPDEST SUB PUSH1 0x1F NOT DUP2 ADD DUP4 MSTORE DUP3 PUSH2 0x617 JUMP JUMPDEST MLOAD SWAP1 KECCAK256 PUSH0 MSTORE PUSH1 0x1 PUSH1 0x20 MSTORE PUSH1 0x20 PUSH1 0xFF PUSH1 0x40 PUSH0 KECCAK256 SLOAD AND PUSH1 0x40 MLOAD SWAP1 ISZERO ISZERO DUP2 MSTORE RETURN JUMPDEST CALLVALUE PUSH2 0x8D JUMPI PUSH1 0x20 CALLDATASIZE PUSH1 0x3 NOT ADD SLT PUSH2 0x8D JUMPI PUSH1 0x1 PUSH1 0x1 PUSH1 0xA0 SHL SUB PUSH2 0x128 PUSH2 0x5ED JUMP JUMPDEST AND PUSH0 MSTORE PUSH1 0x2 PUSH1 0x20 MSTORE PUSH1 0x20 PUSH1 0x40 PUSH0 KECCAK256 SLOAD PUSH1 0x40 MLOAD SWAP1 DUP2 MSTORE RETURN JUMPDEST CALLVALUE PUSH2 0x8D JUMPI PUSH1 0x20 CALLDATASIZE PUSH1 0x3 NOT ADD SLT PUSH2 0x8D JUMPI PUSH1 0x4 CALLDATALOAD PUSH8 0xFFFFFFFFFFFFFFFF DUP2 GT PUSH2 0x8D JUMPI CALLDATASIZE DUP2 SWAP1 SUB SWAP1 PUSH1 0x4 DUP2 ADD PUSH1 0xE0 PUSH1 0x3 NOT DUP5 ADD SLT PUSH2 0x8D JUMPI PUSH1 0x84 DUP3 ADD CALLDATALOAD SWAP1 DUP2 TIMESTAMP GT PUSH2 0x55B JUMPI PUSH2 0x18D DUP2 PUSH2 0x603 JUMP JUMPDEST PUSH1 0x40 MLOAD PUSH1 0x60 SWAP2 SWAP1 SWAP2 SHL PUSH12 0xFFFFFFFFFFFFFFFFFFFFFFFF NOT AND PUSH1 0x20 DUP3 ADD SWAP1 DUP2 MSTORE PUSH1 0x64 DUP6 ADD CALLDATALOAD PUSH1 0x34 DUP4 ADD DUP2 SWAP1 MSTORE SWAP3 SWAP2 PUSH2 0x1C7 DUP2 PUSH1 0x54 DUP2 ADD PUSH2 0xDB JUMP JUMPDEST MLOAD SWAP1 KECCAK256 DUP1 PUSH0 MSTORE PUSH1 0x1 PUSH1 0x20 MSTORE PUSH1 0xFF PUSH1 0x40 PUSH0 KECCAK256 SLOAD AND PUSH2 0x521 JUMPI PUSH2 0x1E7 DUP3 PUSH2 0x603 JUMP JUMPDEST SWAP5 PUSH1 0x24 DUP2 ADD SWAP7 PUSH2 0x1F6 DUP9 PUSH2 0x603 JUMP JUMPDEST SWAP7 PUSH1 0x44 DUP4 ADD CALLDATALOAD SWAP8 PUSH1 0xA4 DUP5 ADD CALLDATALOAD SWAP8 PUSH1 0x40 MLOAD SWAP2 PUSH1 0x20 DUP4 ADD SWAP4 PUSH12 0xFFFFFFFFFFFFFFFFFFFFFFFF NOT SWAP1 PUSH1 0x60 SHL AND DUP5 MSTORE PUSH12 0xFFFFFFFFFFFFFFFFFFFFFFFF NOT SWAP1 PUSH1 0x60 SHL AND PUSH1 0x34 DUP4 ADD MSTORE DUP10 PUSH1 0x48 DUP4 ADD MSTORE DUP8 PUSH1 0x68 DUP4 ADD MSTORE PUSH1 0x88 DUP3 ADD MSTORE DUP8 PUSH1 0xA8 DUP3 ADD MSTORE PUSH1 0xA8 DUP2 MSTORE PUSH2 0x25F PUSH1 0xC8 DUP3 PUSH2 0x617 JUMP JUMPDEST MLOAD SWAP1 KECCAK256 PUSH1 0x40 MLOAD PUSH1 0x20 DUP2 ADD SWAP2 PUSH32 0x19457468657265756D205369676E6564204D6573736167653A0A333200000000 DUP4 MSTORE PUSH1 0x3C DUP3 ADD MSTORE PUSH1 0x3C DUP2 MSTORE PUSH2 0x2A1 PUSH1 0x5C DUP3 PUSH2 0x617 JUMP JUMPDEST MLOAD SWAP1 KECCAK256 SWAP2 PUSH1 0xC4 DUP2 ADD CALLDATALOAD SWAP2 PUSH1 0x22 NOT ADD DUP3 SLT ISZERO PUSH2 0x8D JUMPI ADD SWAP1 PUSH1 0x4 DUP3 ADD CALLDATALOAD SWAP2 PUSH8 0xFFFFFFFFFFFFFFFF DUP4 GT PUSH2 0x8D JUMPI PUSH1 0x24 DUP2 ADD SWAP2 DUP4 CALLDATASIZE SUB DUP4 SGT PUSH2 0x8D JUMPI PUSH1 0x40 MLOAD SWAP2 PUSH2 0x2F3 PUSH1 0x1F DUP7 ADD PUSH1 0x1F NOT AND PUSH1 0x20 ADD DUP5 PUSH2 0x617 JUMP JUMPDEST DUP5 DUP4 MSTORE PUSH1 0x20 PUSH1 0x4 DUP7 CALLDATASIZE SWAP4 ADD ADD ADD GT PUSH2 0x8D JUMPI PUSH0 PUSH1 0x20 DUP6 PUSH2 0x327 SWAP7 PUSH2 0x31E SWAP7 DUP4 DUP8 ADD CALLDATACOPY DUP5 ADD ADD MSTORE PUSH2 0x64D JUMP JUMPDEST SWAP1 SWAP3 SWAP2 SWAP3 PUSH2 0x687 JUMP JUMPDEST PUSH1 0x1 PUSH1 0x1 PUSH1 0xA0 SHL SUB PUSH2 0x338 DUP5 PUSH2 0x603 JUMP JUMPDEST AND PUSH1 0x1 PUSH1 0x1 PUSH1 0xA0 SHL SUB SWAP1 SWAP2 AND SUB PUSH2 0x4E8 JUMPI PUSH0 MSTORE PUSH1 0x1 PUSH1 0x20 MSTORE PUSH1 0x40 PUSH0 KECCAK256 PUSH1 0x1 PUSH1 0xFF NOT DUP3 SLOAD AND OR SWAP1 SSTORE PUSH1 0x1 DUP1 PUSH1 0xA0 SHL SUB PUSH2 0x36F DUP3 PUSH2 0x603 JUMP JUMPDEST AND PUSH0 MSTORE PUSH1 0x2 PUSH1 0x20 MSTORE PUSH1 0x40 PUSH0 KECCAK256 DUP1 SLOAD PUSH0 NOT DUP2 EQ PUSH2 0x4D4 JUMPI PUSH1 0x1 ADD SWAP1 SSTORE PUSH0 SLOAD PUSH1 0x1 PUSH1 0x1 PUSH1 0xA0 SHL SUB AND PUSH1 0x20 PUSH2 0x3A0 DUP4 PUSH2 0x603 JUMP JUMPDEST PUSH1 0x64 PUSH2 0x3AB DUP10 PUSH2 0x603 JUMP JUMPDEST PUSH1 0x40 MLOAD PUSH4 0x23B872DD PUSH1 0xE0 SHL DUP2 MSTORE PUSH1 0x1 PUSH1 0x1 PUSH1 0xA0 SHL SUB SWAP4 DUP5 AND PUSH1 0x4 DUP3 ADD MSTORE SWAP3 AND PUSH1 0x24 DUP4 ADD MSTORE PUSH1 0x44 DUP3 ADD DUP9 SWAP1 MSTORE SWAP1 SWAP3 DUP4 SWAP2 SWAP1 DUP3 SWAP1 PUSH0 SWAP1 GAS CALL SWAP1 DUP2 ISZERO PUSH2 0x4C9 JUMPI PUSH0 SWAP2 PUSH2 0x48E JUMPI JUMPDEST POP ISZERO PUSH2 0x452 JUMPI PUSH32 0x68EBE01B4F352B6188E551D6FF2B1636A7DF4C2C84A6A9236EC0CC75CD235056 SWAP2 PUSH2 0x42B PUSH2 0x425 PUSH1 0x40 SWAP4 PUSH2 0x603 JUMP JUMPDEST SWAP7 PUSH2 0x603 JUMP JUMPDEST DUP3 MLOAD SWAP6 DUP7 MSTORE PUSH1 0x20 DUP7 ADD SWAP2 SWAP1 SWAP2 MSTORE PUSH1 0x1 PUSH1 0x1 PUSH1 0xA0 SHL SUB SWAP1 DUP2 AND SWAP6 AND SWAP4 LOG4 PUSH1 0x20 PUSH1 0x40 MLOAD PUSH1 0x1 DUP2 MSTORE RETURN JUMPDEST PUSH1 0x40 MLOAD PUSH3 0x461BCD PUSH1 0xE5 SHL DUP2 MSTORE PUSH1 0x20 PUSH1 0x4 DUP3 ADD MSTORE PUSH1 0x14 PUSH1 0x24 DUP3 ADD MSTORE PUSH20 0x1554D110C81D1C985B9CD9995C8819985A5B1959 PUSH1 0x62 SHL PUSH1 0x44 DUP3 ADD MSTORE PUSH1 0x64 SWAP1 REVERT JUMPDEST SWAP1 POP PUSH1 0x20 DUP2 RETURNDATASIZE PUSH1 0x20 GT PUSH2 0x4C1 JUMPI JUMPDEST DUP2 PUSH2 0x4A9 PUSH1 0x20 SWAP4 DUP4 PUSH2 0x617 JUMP JUMPDEST DUP2 ADD SUB SLT PUSH2 0x8D JUMPI MLOAD DUP1 ISZERO ISZERO DUP2 SUB PUSH2 0x8D JUMPI DUP7 PUSH2 0x3EF JUMP JUMPDEST RETURNDATASIZE SWAP2 POP PUSH2 0x49C JUMP JUMPDEST PUSH1 0x40 MLOAD RETURNDATASIZE PUSH0 DUP3 RETURNDATACOPY RETURNDATASIZE SWAP1 REVERT JUMPDEST PUSH4 0x4E487B71 PUSH1 0xE0 SHL PUSH0 MSTORE PUSH1 0x11 PUSH1 0x4 MSTORE PUSH1 0x24 PUSH0 REVERT JUMPDEST PUSH1 0x40 MLOAD PUSH3 0x461BCD PUSH1 0xE5 SHL DUP2 MSTORE PUSH1 0x20 PUSH1 0x4 DUP3 ADD MSTORE PUSH1 0x11 PUSH1 0x24 DUP3 ADD MSTORE PUSH17 0x496E76616C6964207369676E6174757265 PUSH1 0x78 SHL PUSH1 0x44 DUP3 ADD MSTORE PUSH1 0x64 SWAP1 REVERT JUMPDEST PUSH1 0x40 MLOAD PUSH3 0x461BCD PUSH1 0xE5 SHL DUP2 MSTORE PUSH1 0x20 PUSH1 0x4 DUP3 ADD MSTORE PUSH1 0x12 PUSH1 0x24 DUP3 ADD MSTORE PUSH18 0x139BDB98D948185B1C9958591E481D5CD959 PUSH1 0x72 SHL PUSH1 0x44 DUP3 ADD MSTORE PUSH1 0x64 SWAP1 REVERT JUMPDEST PUSH1 0x40 MLOAD PUSH3 0x461BCD PUSH1 0xE5 SHL DUP2 MSTORE PUSH1 0x20 PUSH1 0x4 DUP3 ADD MSTORE PUSH1 0xF PUSH1 0x24 DUP3 ADD MSTORE PUSH15 0x14185E5B595B9D08195E1C1A5C9959 PUSH1 0x8A SHL PUSH1 0x44 DUP3 ADD MSTORE PUSH1 0x64 SWAP1 REVERT JUMPDEST CALLVALUE PUSH2 0x8D JUMPI PUSH0 CALLDATASIZE PUSH1 0x3 NOT ADD SLT PUSH2 0x8D JUMPI PUSH0 SLOAD PUSH1 0x40 MLOAD PUSH1 0x1 PUSH1 0x1 PUSH1 0xA0 SHL SUB SWAP1 SWAP2 AND DUP2 MSTORE PUSH1 0x20 SWAP1 RETURN JUMPDEST CALLVALUE PUSH2 0x8D JUMPI PUSH1 0x20 CALLDATASIZE PUSH1 0x3 NOT ADD SLT PUSH2 0x8D JUMPI PUSH1 0x20 SWAP1 PUSH1 0x1 PUSH1 0x1 PUSH1 0xA0 SHL SUB PUSH2 0x5DD PUSH2 0x5ED JUMP JUMPDEST AND PUSH0 MSTORE PUSH1 0x2 DUP3 MSTORE PUSH1 0x40 PUSH0 KECCAK256 SLOAD DUP2 MSTORE RETURN JUMPDEST PUSH1 0x4 CALLDATALOAD SWAP1 PUSH1 0x1 PUSH1 0x1 PUSH1 0xA0 SHL SUB DUP3 AND DUP3 SUB PUSH2 0x8D JUMPI JUMP JUMPDEST CALLDATALOAD PUSH1 0x1 PUSH1 0x1 PUSH1 0xA0 SHL SUB DUP2 AND DUP2 SUB PUSH2 0x8D JUMPI SWAP1 JUMP JUMPDEST SWAP1 PUSH1 0x1F DUP1 NOT SWAP2 ADD AND DUP2 ADD SWAP1 DUP2 LT PUSH8 0xFFFFFFFFFFFFFFFF DUP3 GT OR PUSH2 0x639 JUMPI PUSH1 0x40 MSTORE JUMP JUMPDEST PUSH4 0x4E487B71 PUSH1 0xE0 SHL PUSH0 MSTORE PUSH1 0x41 PUSH1 0x4 MSTORE PUSH1 0x24 PUSH0 REVERT JUMPDEST DUP2 MLOAD SWAP2 SWAP1 PUSH1 0x41 DUP4 SUB PUSH2 0x67D JUMPI PUSH2 0x676 SWAP3 POP PUSH1 0x20 DUP3 ADD MLOAD SWAP1 PUSH1 0x60 PUSH1 0x40 DUP5 ADD MLOAD SWAP4 ADD MLOAD PUSH0 BYTE SWAP1 PUSH2 0x6FB JUMP JUMPDEST SWAP2 SWAP3 SWAP1 SWAP2 SWAP1 JUMP JUMPDEST POP POP PUSH0 SWAP2 PUSH1 0x2 SWAP2 SWAP1 JUMP JUMPDEST PUSH1 0x4 DUP2 LT ISZERO PUSH2 0x6E7 JUMPI DUP1 PUSH2 0x699 JUMPI POP POP JUMP JUMPDEST PUSH1 0x1 DUP2 SUB PUSH2 0x6B0 JUMPI PUSH4 0xF645EEDF PUSH1 0xE0 SHL PUSH0 MSTORE PUSH1 0x4 PUSH0 REVERT JUMPDEST PUSH1 0x2 DUP2 SUB PUSH2 0x6CB JUMPI POP PUSH4 0xFCE698F7 PUSH1 0xE0 SHL PUSH0 MSTORE PUSH1 0x4 MSTORE PUSH1 0x24 PUSH0 REVERT JUMPDEST PUSH1 0x3 EQ PUSH2 0x6D5 JUMPI POP JUMP JUMPDEST PUSH4 0x35E2F383 PUSH1 0xE2 SHL PUSH0 MSTORE PUSH1 0x4 MSTORE PUSH1 0x24 PUSH0 REVERT JUMPDEST PUSH4 0x4E487B71 PUSH1 0xE0 SHL PUSH0 MSTORE PUSH1 0x21 PUSH1 0x4 MSTORE PUSH1 0x24 PUSH0 REVERT JUMPDEST SWAP2 SWAP1 PUSH32 0x7FFFFFFFFFFFFFFFFFFFFFFFFFFFFFFF5D576E7357A4501DDFE92F46681B20A0 DUP5 GT PUSH2 0x772 JUMPI SWAP2 PUSH1 0x20 SWAP4 PUSH1 0x80 SWAP3 PUSH1 0xFF PUSH0 SWAP6 PUSH1 0x40 MLOAD SWAP5 DUP6 MSTORE AND DUP7 DUP5 ADD MSTORE PUSH1 0x40 DUP4 ADD MSTORE PUSH1 0x60 DUP3 ADD MSTORE DUP3 DUP1 MSTORE PUSH1 0x1 GAS STATICCALL ISZERO PUSH2 0x4C9 JUMPI PUSH0 MLOAD PUSH1 0x1 PUSH1 0x1 PUSH1 0xA0 SHL SUB DUP2 AND ISZERO PUSH2 0x768 JUMPI SWAP1 PUSH0 SWAP1 PUSH0 SWAP1 JUMP JUMPDEST POP PUSH0 SWAP1 PUSH1 0x1 SWAP1 PUSH0 SWAP1 JUMP JUMPDEST POP POP POP PUSH0 SWAP2 PUSH1 0x3 SWAP2 SWAP1 JUMP INVALID LOG2 PUSH5 0x6970667358 0x22 SLT KECCAK256 0xDC 0xDA DIV BLOCKHASH 0xA9 BLOBHASH 0x1E CALLCODE RETURN 0x4D 0xD2 EXP 0xE3 0xB7 ADDMOD 0x2E PUSH19 0x88FFA8499A30A6508A3F0A8533913764736F6C PUSH4 0x4300081C STOP CALLER "},"methodIdentifiers":{"getNonce(address)":"2d0335ab","isNonceUsed(address,uint256)":"cab7e8eb","nonces(address)":"7ecebe00","settlePayment((address,address,uint256,uint256,uint256,bytes32,bytes))":"4bdb123c","usdc()":"3e413bee","usedNonces(bytes32)":"feb61724"}}}}}