{
  "_format": "hh-sol-artifact-1",
  "contractName": "ERC8004IdentityRegistry",
  "sourceName": "contracts/ERC8004IdentityRegistry.sol",
  "abi": [
    {
      "inputs": [],
      "stateMutability": "nonpayable",
      "type": "constructor"
    },
    {
      "inputs": [
        {
          "internalType": "address",
          "name": "sender",
          "type": "address"
        },
        {
          "internalType": "uint256",
          "name": "tokenId",
          "type": "uint256"
        },
        {
          "internalType": "address",
          "name": "owner",
          "type": "address"
        }
      ],
      "name": "ERC721IncorrectOwner",
      "type": "error"
    },
    {
      "inputs": [
        {
          "internalType": "address",
          "name": "operator",
          "type": "address"
        },
        {
          "internalType": "uint256",
          "name": "tokenId",
          "type": "uint256"
        }
      ],
      "name": "ERC721InsufficientApproval",
      "type": "error"
    },
    {
      "inputs": [
        {
          "internalType": "address",
          "name": "approver",
          "type": "address"
        }
      ],
      "name": "ERC721InvalidApprover",
      "type": "error"
    },
    {
      "inputs": [
        {
          "internalType": "address",
          "name": "operator",
          "type": "address"
        }
      ],
      "name": "ERC721InvalidOperator",
      "type": "error"
    },
    {
      "inputs": [
        {
          "internalType": "address",
          "name": "owner",
          "type": "address"
        }
      ],
      "name": "ERC721InvalidOwner",
      "type": "error"
    },
    {
      "inputs": [
        {
          "internalType": "address",
          "name": "receiver",
          "type": "address"
        }
      ],
      "name": "ERC721InvalidReceiver",
      "type": "error"
    },
    {
      "inputs": [
        {
          "internalType": "address",
          "name": "sender",
          "type": "address"
        }
      ],
      "name": "ERC721InvalidSender",
      "type": "error"
    },
    {
      "inputs": [
        {
          "internalType": "uint256",
          "name": "tokenId",
          "type": "uint256"
        }
      ],
      "name": "ERC721NonexistentToken",
      "type": "error"
    },
    {
      "inputs": [
        {
          "internalType": "address",
          "name": "owner",
          "type": "address"
        }
      ],
      "name": "OwnableInvalidOwner",
      "type": "error"
    },
    {
      "inputs": [
        {
          "internalType": "address",
          "name": "account",
          "type": "address"
        }
      ],
      "name": "OwnableUnauthorizedAccount",
      "type": "error"
    },
    {
      "anonymous": false,
      "inputs": [
        {
          "indexed": true,
          "internalType": "uint256",
          "name": "agentId",
          "type": "uint256"
        }
      ],
      "name": "AgentDeactivated",
      "type": "event"
    },
    {
      "anonymous": false,
      "inputs": [
        {
          "indexed": true,
          "internalType": "uint256",
          "name": "agentId",
          "type": "uint256"
        }
      ],
      "name": "AgentReactivated",
      "type": "event"
    },
    {
      "anonymous": false,
      "inputs": [
        {
          "indexed": true,
          "internalType": "uint256",
          "name": "agentId",
          "type": "uint256"
        },
        {
          "indexed": true,
          "internalType": "address",
          "name": "wallet",
          "type": "address"
        },
        {
          "indexed": false,
          "internalType": "string",
          "name": "uri",
          "type": "string"
        }
      ],
      "name": "AgentRegistered",
      "type": "event"
    },
    {
      "anonymous": false,
      "inputs": [
        {
          "indexed": true,
          "internalType": "uint256",
          "name": "agentId",
          "type": "uint256"
        },
        {
          "indexed": false,
          "internalType": "string",
          "name": "uri",
          "type": "string"
        }
      ],
      "name": "AgentUpdated",
      "type": "event"
    },
    {
      "anonymous": false,
      "inputs": [
        {
          "indexed": true,
          "internalType": "address",
          "name": "owner",
          "type": "address"
        },
        {
          "indexed": true,
          "internalType": "address",
          "name": "approved",
          "type": "address"
        },
        {
          "indexed": true,
          "internalType": "uint256",
          "name": "tokenId",
          "type": "uint256"
        }
      ],
      "name": "Approval",
      "type": "event"
    },
    {
      "anonymous": false,
      "inputs": [
        {
          "indexed": true,
          "internalType": "address",
          "name": "owner",
          "type": "address"
        },
        {
          "indexed": true,
          "internalType": "address",
          "name": "operator",
          "type": "address"
        },
        {
          "indexed": false,
          "internalType": "bool",
          "name": "approved",
          "type": "bool"
        }
      ],
      "name": "ApprovalForAll",
      "type": "event"
    },
    {
      "anonymous": false,
      "inputs": [
        {
          "indexed": false,
          "internalType": "uint256",
          "name": "_fromTokenId",
          "type": "uint256"
        },
        {
          "indexed": false,
          "internalType": "uint256",
          "name": "_toTokenId",
          "type": "uint256"
        }
      ],
      "name": "BatchMetadataUpdate",
      "type": "event"
    },
    {
      "anonymous": false,
      "inputs": [
        {
          "indexed": false,
          "internalType": "uint256",
          "name": "_tokenId",
          "type": "uint256"
        }
      ],
      "name": "MetadataUpdate",
      "type": "event"
    },
    {
      "anonymous": false,
      "inputs": [
        {
          "indexed": true,
          "internalType": "address",
          "name": "previousOwner",
          "type": "address"
        },
        {
          "indexed": true,
          "internalType": "address",
          "name": "newOwner",
          "type": "address"
        }
      ],
      "name": "OwnershipTransferred",
      "type": "event"
    },
    {
      "anonymous": false,
      "inputs": [
        {
          "indexed": true,
          "internalType": "address",
          "name": "from",
          "type": "address"
        },
        {
          "indexed": true,
          "internalType": "address",
          "name": "to",
          "type": "address"
        },
        {
          "indexed": true,
          "internalType": "uint256",
          "name": "tokenId",
          "type": "uint256"
        }
      ],
      "name": "Transfer",
      "type": "event"
    },
    {
      "inputs": [
        {
          "internalType": "uint256",
          "name": "",
          "type": "uint256"
        }
      ],
      "name": "agents",
      "outputs": [
        {
          "internalType": "address",
          "name": "wallet",
          "type": "address"
        },
        {
          "internalType": "bool",
          "name": "active",
          "type": "bool"
        },
        {
          "internalType": "uint256",
          "name": "registeredAt",
          "type": "uint256"
        },
        {
          "internalType": "string",
          "name": "agentURI",
          "type": "string"
        }
      ],
      "stateMutability": "view",
      "type": "function"
    },
    {
      "inputs": [
        {
          "internalType": "address",
          "name": "to",
          "type": "address"
        },
        {
          "internalType": "uint256",
          "name": "tokenId",
          "type": "uint256"
        }
      ],
      "name": "approve",
      "outputs": [],
      "stateMutability": "nonpayable",
      "type": "function"
    },
    {
      "inputs": [
        {
          "internalType": "address",
          "name": "owner",
          "type": "address"
        }
      ],
      "name": "balanceOf",
      "outputs": [
        {
          "internalType": "uint256",
          "name": "",
          "type": "uint256"
        }
      ],
      "stateMutability": "view",
      "type": "function"
    },
    {
      "inputs": [
        {
          "internalType": "uint256",
          "name": "_agentId",
          "type": "uint256"
        }
      ],
      "name": "deactivateAgent",
      "outputs": [],
      "stateMutability": "nonpayable",
      "type": "function"
    },
    {
      "inputs": [
        {
          "internalType": "address",
          "name": "_wallet",
          "type": "address"
        }
      ],
      "name": "getAgentIdByWallet",
      "outputs": [
        {
          "internalType": "uint256",
          "name": "",
          "type": "uint256"
        }
      ],
      "stateMutability": "view",
      "type": "function"
    },
    {
      "inputs": [
        {
          "internalType": "uint256",
          "name": "_agentId",
          "type": "uint256"
        }
      ],
      "name": "getAgentWallet",
      "outputs": [
        {
          "internalType": "address",
          "name": "",
          "type": "address"
        }
      ],
      "stateMutability": "view",
      "type": "function"
    },
    {
      "inputs": [
        {
          "internalType": "uint256",
          "name": "tokenId",
          "type": "uint256"
        }
      ],
      "name": "getApproved",
      "outputs": [
        {
          "internalType": "address",
          "name": "",
          "type": "address"
        }
      ],
      "stateMutability": "view",
      "type": "function"
    },
    {
      "inputs": [
        {
          "internalType": "uint256",
          "name": "_agentId",
          "type": "uint256"
        }
      ],
      "name": "isActive",
      "outputs": [
        {
          "internalType": "bool",
          "name": "",
          "type": "bool"
        }
      ],
      "stateMutability": "view",
      "type": "function"
    },
    {
      "inputs": [
        {
          "internalType": "address",
          "name": "owner",
          "type": "address"
        },
        {
          "internalType": "address",
          "name": "operator",
          "type": "address"
        }
      ],
      "name": "isApprovedForAll",
      "outputs": [
        {
          "internalType": "bool",
          "name": "",
          "type": "bool"
        }
      ],
      "stateMutability": "view",
      "type": "function"
    },
    {
      "inputs": [
        {
          "internalType": "uint256",
          "name": "_agentId",
          "type": "uint256"
        }
      ],
      "name": "isRegistered",
      "outputs": [
        {
          "internalType": "bool",
          "name": "",
          "type": "bool"
        }
      ],
      "stateMutability": "view",
      "type": "function"
    },
    {
      "inputs": [],
      "name": "name",
      "outputs": [
        {
          "internalType": "string",
          "name": "",
          "type": "string"
        }
      ],
      "stateMutability": "view",
      "type": "function"
    },
    {
      "inputs": [],
      "name": "owner",
      "outputs": [
        {
          "internalType": "address",
          "name": "",
          "type": "address"
        }
      ],
      "stateMutability": "view",
      "type": "function"
    },
    {
      "inputs": [
        {
          "internalType": "uint256",
          "name": "tokenId",
          "type": "uint256"
        }
      ],
      "name": "ownerOf",
      "outputs": [
        {
          "internalType": "address",
          "name": "",
          "type": "address"
        }
      ],
      "stateMutability": "view",
      "type": "function"
    },
    {
      "inputs": [
        {
          "internalType": "uint256",
          "name": "_agentId",
          "type": "uint256"
        }
      ],
      "name": "reactivateAgent",
      "outputs": [],
      "stateMutability": "nonpayable",
      "type": "function"
    },
    {
      "inputs": [
        {
          "internalType": "address",
          "name": "_wallet",
          "type": "address"
        },
        {
          "internalType": "string",
          "name": "_uri",
          "type": "string"
        }
      ],
      "name": "registerAgent",
      "outputs": [
        {
          "internalType": "uint256",
          "name": "",
          "type": "uint256"
        }
      ],
      "stateMutability": "nonpayable",
      "type": "function"
    },
    {
      "inputs": [],
      "name": "renounceOwnership",
      "outputs": [],
      "stateMutability": "nonpayable",
      "type": "function"
    },
    {
      "inputs": [
        {
          "internalType": "address",
          "name": "from",
          "type": "address"
        },
        {
          "internalType": "address",
          "name": "to",
          "type": "address"
        },
        {
          "internalType": "uint256",
          "name": "tokenId",
          "type": "uint256"
        }
      ],
      "name": "safeTransferFrom",
      "outputs": [],
      "stateMutability": "nonpayable",
      "type": "function"
    },
    {
      "inputs": [
        {
          "internalType": "address",
          "name": "from",
          "type": "address"
        },
        {
          "internalType": "address",
          "name": "to",
          "type": "address"
        },
        {
          "internalType": "uint256",
          "name": "tokenId",
          "type": "uint256"
        },
        {
          "internalType": "bytes",
          "name": "data",
          "type": "bytes"
        }
      ],
      "name": "safeTransferFrom",
      "outputs": [],
      "stateMutability": "nonpayable",
      "type": "function"
    },
    {
      "inputs": [
        {
          "internalType": "address",
          "name": "operator",
          "type": "address"
        },
        {
          "internalType": "bool",
          "name": "approved",
          "type": "bool"
        }
      ],
      "name": "setApprovalForAll",
      "outputs": [],
      "stateMutability": "nonpayable",
      "type": "function"
    },
    {
      "inputs": [
        {
          "internalType": "bytes4",
          "name": "interfaceId",
          "type": "bytes4"
        }
      ],
      "name": "supportsInterface",
      "outputs": [
        {
          "internalType": "bool",
          "name": "",
          "type": "bool"
        }
      ],
      "stateMutability": "view",
      "type": "function"
    },
    {
      "inputs": [],
      "name": "symbol",
      "outputs": [
        {
          "internalType": "string",
          "name": "",
          "type": "string"
        }
      ],
      "stateMutability": "view",
      "type": "function"
    },
    {
      "inputs": [
        {
          "internalType": "uint256",
          "name": "tokenId",
          "type": "uint256"
        }
      ],
      "name": "tokenURI",
      "outputs": [
        {
          "internalType": "string",
          "name": "",
          "type": "string"
        }
      ],
      "stateMutability": "view",
      "type": "function"
    },
    {
      "inputs": [],
      "name": "totalAgents",
      "outputs": [
        {
          "internalType": "uint256",
          "name": "",
          "type": "uint256"
        }
      ],
      "stateMutability": "view",
      "type": "function"
    },
    {
      "inputs": [
        {
          "internalType": "address",
          "name": "from",
          "type": "address"
        },
        {
          "internalType": "address",
          "name": "to",
          "type": "address"
        },
        {
          "internalType": "uint256",
          "name": "tokenId",
          "type": "uint256"
        }
      ],
      "name": "transferFrom",
      "outputs": [],
      "stateMutability": "nonpayable",
      "type": "function"
    },
    {
      "inputs": [
        {
          "internalType": "address",
          "name": "newOwner",
          "type": "address"
        }
      ],
      "name": "transferOwnership",
      "outputs": [],
      "stateMutability": "nonpayable",
      "type": "function"
    },
    {
      "inputs": [
        {
          "internalType": "uint256",
          "name": "_agentId",
          "type": "uint256"
        },
        {
          "internalType": "string",
          "name": "_uri",
          "type": "string"
        }
      ],
      "name": "updateAgentURI",
      "outputs": [],
      "stateMutability": "nonpayable",
      "type": "function"
    },
    {
      "inputs": [
        {
          "internalType": "address",
          "name": "",
          "type": "address"
        }
      ],
      "name": "walletToAgentId",
      "outputs": [
        {
          "internalType": "uint256",
          "name": "",
          "type": "uint256"
        }
      ],
      "stateMutability": "view",
      "type": "function"
    }
  ],
  "bytecode": "0x60806040523461037357604080519081016001600160401b0381118282101761028957604090815260118252705061794167656e74204964656e7469747960781b602083015280519081016001600160401b038111828210176102895760405260048152631410525160e21b602082015281516001600160401b038111610289575f54600181811c91168015610369575b602082101461026b57601f8111610307575b50602092601f82116001146102a857928192935f9261029d575b50508160011b915f199060031b1c1916175f555b80516001600160401b03811161028957600154600181811c9116801561027f575b602082101461026b57601f8111610208575b50602091601f82116001146101a8579181925f9261019d575b50508160011b915f199060031b1c1916176001555b331561018a5760078054336001600160a01b03198216811790925560405191906001600160a01b03167f8be0079c531659141344cd1fd0a4f28419497f9722a3daafe3b4186f6b6457e05f80a361188b90816103788239f35b631e4fbdf760e01b5f525f60045260245ffd5b015190505f8061011c565b601f1982169260015f52805f20915f5b8581106101f0575083600195106101d8575b505050811b01600155610131565b01515f1960f88460031b161c191690555f80806101ca565b919260206001819286850151815501940192016101b8565b60015f527fb10e2d527612073b26eecdfd717e6a320cf44b4afac2b0732d9fcbe2b7fa0cf6601f830160051c81019160208410610261575b601f0160051c01905b8181106102565750610103565b5f8155600101610249565b9091508190610240565b634e487b7160e01b5f52602260045260245ffd5b90607f16906100f1565b634e487b7160e01b5f52604160045260245ffd5b015190505f806100bc565b601f198216935f8052805f20915f5b8681106102ef57508360019596106102d7575b505050811b015f556100d0565b01515f1960f88460031b161c191690555f80806102ca565b919260206001819286850151815501940192016102b7565b5f80527f290decd9548b62a8d60345a988386fc84ba6bc95484008f6362f93160ef3e563601f830160051c8101916020841061035f575b601f0160051c01905b81811061035457506100a2565b5f8155600101610347565b909150819061033e565b90607f1690610090565b5f80fdfe6080806040526004361015610012575f80fd5b5f3560e01c908162339509146110705750806301ffc9a714610fe857806306fdde0314610f46578063081812fc14610f0a578063095ea7b314610e2057806311ba6b4a14610dc25780631e5082381461035b57806322b833d8146108bc57806323b872dd146108a557806342842e0e14610876578063513856c81461080b578063579a6988146107d75780636352211e146107a75780636b5958221461061757806370a08231146105c6578063715018a61461056b57806382afd23b146105395780638da5cb5b1461051157806395d89b4114610447578063a22cb46514610393578063b3fa7cb81461035b578063b88d4fde146102ed578063c5053712146102d0578063c87b56dd14610299578063e985e9c514610242578063f2fde38b146101bc5763fd61031714610144575f80fd5b346101b85760203660031901126101b857600435610174610164826114f0565b6001600160a01b031633146112a2565b5f818152600960205260408120805460ff60a01b1916600160a01b1790557f7cce21c1f4552995dccace889e9ad45febf59c654d3fd1d7ab0457fa1439aa2c9080a2005b5f80fd5b346101b85760203660031901126101b8576101d56110c2565b6101dd611645565b6001600160a01b0316801561022f57600780546001600160a01b0319811683179091556001600160a01b03167f8be0079c531659141344cd1fd0a4f28419497f9722a3daafe3b4186f6b6457e05f80a3005b631e4fbdf760e01b5f525f60045260245ffd5b346101b85760403660031901126101b85761025b6110c2565b6102636110d8565b9060018060a01b03165f52600560205260405f209060018060a01b03165f52602052602060ff60405f2054166040519015158152f35b346101b85760203660031901126101b8576102cc6102b86004356117a2565b60405191829160208352602083019061109e565b0390f35b346101b8575f3660031901126101b8576020600854604051908152f35b346101b85760803660031901126101b8576103066110c2565b61030e6110d8565b906044356064359267ffffffffffffffff84116101b857366023850112156101b85761034761035994369060248160040135910161126c565b92610353838383611350565b3361166c565b005b346101b85760203660031901126101b8576001600160a01b0361037c6110c2565b165f52600a602052602060405f2054604051908152f35b346101b85760403660031901126101b8576103ac6110c2565b602435908115158092036101b8573315610434576001600160a01b031690811561042157335f52600560205260405f20825f5260205260405f2060ff1981541660ff83161790556040519081527f17307eab39ab6107e8899845ad3d59bd9653f200f220920489ca2b5937696c3160203392a3005b50630b61174360e31b5f5260045260245ffd5b63a9fbf51f60e01b5f525f60045260245ffd5b346101b8575f3660031901126101b8576040515f60015461046781611156565b80845290600181169081156104ed575060011461048f575b6102cc836102b88185038261118e565b60015f9081527fb10e2d527612073b26eecdfd717e6a320cf44b4afac2b0732d9fcbe2b7fa0cf6939250905b8082106104d3575090915081016020016102b861047f565b9192600181602092548385880101520191019092916104bb565b60ff191660208086019190915291151560051b840190910191506102b8905061047f565b346101b8575f3660031901126101b8576007546040516001600160a01b039091168152602090f35b346101b85760203660031901126101b8576004355f526009602052602060ff60405f205460a01c166040519015158152f35b346101b8575f3660031901126101b857610583611645565b600780546001600160a01b031981169091555f906001600160a01b03167f8be0079c531659141344cd1fd0a4f28419497f9722a3daafe3b4186f6b6457e08280a3005b346101b85760203660031901126101b8576001600160a01b036105e76110c2565b168015610604575f526003602052602060405f2054604051908152f35b6322718ad960e21b5f525f60045260245ffd5b346101b85760403660031901126101b85760043560243567ffffffffffffffff81116101b85761064b9036906004016110ee565b6106596101648493946114f0565b815f526009602052600260405f20019267ffffffffffffffff82116107935761068c826106868654611156565b866112da565b5f93601f8311600114610711576106db83807ff0677ec077e6eec8e31d4e8be0cb20b797f3a9dc243e2ddc641532c0ff41203696975f91610706575b508160011b915f199060031b1c19161790565b90555b6106f26106ec36848461126c565b85611524565b61070160405192839283611329565b0390a2005b9050840135886106c8565b601f19831694815f5260205f20905f5b87811061077b5750847ff0677ec077e6eec8e31d4e8be0cb20b797f3a9dc243e2ddc641532c0ff412036969710610762575b5050600183811b0190556106de565b8301355f19600386901b60f8161c191690558580610753565b90916020600181928588013581550193019101610721565b634e487b7160e01b5f52604160045260245ffd5b346101b85760203660031901126101b85760206107c56004356114f0565b6040516001600160a01b039091168152f35b346101b85760203660031901126101b8576004355f526002602052602060018060a01b0360405f2054161515604051908152f35b346101b85760203660031901126101b8576004355f52600960205260ff60405f206102cc8154916108436002600183015492016111b0565b9060405194859460018060a01b038116865260a01c1615156020850152604084015260806060840152608083019061109e565b346101b8576103596108873661111c565b906040519261089760208561118e565b5f8452610353838383611350565b346101b8576103596108b63661111c565b91611350565b346101b85760403660031901126101b8576108d56110c2565b60243567ffffffffffffffff81116101b8576108f59036906004016110ee565b6001600160a01b038316908115610d8c57815f52600a60205260405f2054610d47578015610d13576008545f198114610cff57600101928360085560209460405190610941878361118e565b5f8083528681526002885260409020546001600160a01b03168015159081610cce575b86610cb7575b875f526002895260405f20876bffffffffffffffffffffffff60a01b8254161790558787827fddf252ad1be2c89b69c2b068fc378daa952ba7f163c4a11628f55a4df523b3ef5f80a450610ca4573b610b90575b506109cd6106ec36848461126c565b604051916080830183811067ffffffffffffffff821117610793576040528383526002868401936001855260408101428152610a0a36858761126c565b606083019081525f89815260098b52604090209251835497516001600160a81b03199098166001600160a01b03919091161796151560a01b60ff60a01b1696909617825551600182015593518051949093910167ffffffffffffffff8511610793578693610a8286610a7c8454611156565b846112da565b8890601f8711600114610b08579580610ad3927f0d063c6022bff16d09991a9f91882ffa112f5fb2529136f65eb4c77bbd047e4397985f92610afd575b50508160011b915f199060031b1c19161790565b90555b845f52600a87528360405f2055610af260405192839283611329565b0390a3604051908152f35b015190508b80610abf565b90601f19871691835f528a5f20925f5b8c828210610b775750509160019391897f0d063c6022bff16d09991a9f91882ffa112f5fb2529136f65eb4c77bbd047e43999a9410610b5f575b505050811b019055610ad6565b01515f1960f88460031b161c191690558a8080610b52565b8484015186558c99506001909501949384019301610b18565b85610bcd916040979695975180938192630a85bd0160e11b83523360048401525f602484015288604484015260806064840152608483019061109e565b03815f8a5af15f9181610c64575b50610c305785853d15610c28573d90610bf382611250565b91610c01604051938461118e565b82523d5f8284013e5b81519182610c255783633250574960e11b5f5260045260245ffd5b01fd5b606090610c0a565b939492936001600160e01b03191663757a42ff60e11b01610c5157856109be565b82633250574960e11b5f5260045260245ffd5b9091508581813d8311610c9d575b610c7c818361118e565b810103126101b857516001600160e01b0319811681036101b8579087610bdb565b503d610c72565b6339e3563760e11b5f525f60045260245ffd5b865f526003895260405f206001815401905561096a565b5f8881526004602052604080822080546001600160a01b031916905582825260038b52902080545f19019055610964565b634e487b7160e01b5f52601160045260245ffd5b60405162461bcd60e51b815260206004820152600c60248201526b155492481c995c5d5a5c995960a21b6044820152606490fd5b60405162461bcd60e51b815260206004820152601960248201527f57616c6c657420616c72656164792072656769737465726564000000000000006044820152606490fd5b60405162461bcd60e51b815260206004820152600e60248201526d125b9d985b1a59081dd85b1b195d60921b6044820152606490fd5b346101b85760203660031901126101b857600435610de2610164826114f0565b5f818152600960205260408120805460ff60a01b191690557fc2fb7f8575ac3990e70361684edfc4d283931ea9a03dfa28766bf376a3934aa29080a2005b346101b85760403660031901126101b857610e396110c2565b602435610e45816114f0565b33151580610ef7575b80610eca575b610eb75781906001600160a01b0384811691167f8c5be1e5ebec7d5bd14f71427d1e84f3dd0314c0f7b2291e5b200ac8c7c3b9255f80a45f90815260046020526040902080546001600160a01b0319166001600160a01b03909216919091179055005b63a9fbf51f60e01b5f523360045260245ffd5b506001600160a01b0381165f90815260056020908152604080832033845290915290205460ff1615610e54565b506001600160a01b038116331415610e4e565b346101b85760203660031901126101b857600435610f27816114f0565b505f526004602052602060018060a01b0360405f205416604051908152f35b346101b8575f3660031901126101b8576040515f5f54610f6581611156565b80845290600181169081156104ed5750600114610f8c576102cc836102b88185038261118e565b5f8080527f290decd9548b62a8d60345a988386fc84ba6bc95484008f6362f93160ef3e563939250905b808210610fce575090915081016020016102b861047f565b919260018160209254838588010152019101909291610fb6565b346101b85760203660031901126101b85760043563ffffffff60e01b81168091036101b857602090632483248360e11b811490811561102d575b506040519015158152f35b6380ac58cd60e01b81149150811561105f575b811561104e575b5082611022565b6301ffc9a760e01b14905082611047565b635b5e139f60e01b81149150611040565b346101b85760203660031901126101b8576020906004355f526009825260018060a01b0360405f2054168152f35b805180835260209291819084018484015e5f828201840152601f01601f1916010190565b600435906001600160a01b03821682036101b857565b602435906001600160a01b03821682036101b857565b9181601f840112156101b85782359167ffffffffffffffff83116101b857602083818601950101116101b857565b60609060031901126101b8576004356001600160a01b03811681036101b857906024356001600160a01b03811681036101b8579060443590565b90600182811c92168015611184575b602083101461117057565b634e487b7160e01b5f52602260045260245ffd5b91607f1691611165565b90601f8019910116810190811067ffffffffffffffff82111761079357604052565b9060405191825f8254926111c384611156565b808452936001811690811561122e57506001146111ea575b506111e89250038361118e565b565b90505f9291925260205f20905f915b8183106112125750509060206111e8928201015f6111db565b60209193508060019154838589010152019101909184926111f9565b9050602092506111e894915060ff191682840152151560051b8201015f6111db565b67ffffffffffffffff811161079357601f01601f191660200190565b92919261127882611250565b91611286604051938461118e565b8294818452818301116101b8578281602093845f960137010152565b156112a957565b60405162461bcd60e51b81526020600482015260096024820152682737ba1037bbb732b960b91b6044820152606490fd5b601f82116112e757505050565b5f5260205f20906020601f840160051c8301931061131f575b601f0160051c01905b818110611314575050565b5f8155600101611309565b9091508190611300565b90918060409360208452816020850152848401375f828201840152601f01601f1916010190565b6001600160a01b03909116919082156114dd575f828152600260205260409020546001600160a01b031692829033151580611448575b5084611415575b805f52600360205260405f2060018154019055815f52600260205260405f20816bffffffffffffffffffffffff60a01b825416179055847fddf252ad1be2c89b69c2b068fc378daa952ba7f163c4a11628f55a4df523b3ef5f80a46001600160a01b03168083036113fd57505050565b6364283d7b60e01b5f5260045260245260445260645ffd5b5f82815260046020526040902080546001600160a01b0319169055845f52600360205260405f205f19815401905561138d565b9091508061148c575b1561145e5782905f611386565b828461147657637e27328960e01b5f5260045260245ffd5b63177e802f60e01b5f523360045260245260445ffd5b5033841480156114bb575b8061145157505f838152600460205260409020546001600160a01b03163314611451565b505f84815260056020908152604080832033845290915290205460ff16611497565b633250574960e11b5f525f60045260245ffd5b5f818152600260205260409020546001600160a01b0316908115611512575090565b637e27328960e01b5f5260045260245ffd5b919091805f52600660205260405f20835167ffffffffffffffff81116107935761155281610a7c8454611156565b6020601f82116001146115bd578160209493926115a6927ff8e1a15aba9398e019f0b49df1a4fde98ee17ae345cb5f6b5e2c27f5033e8ce797985f926115b25750508160011b915f199060031b1c19161790565b90555b604051908152a1565b015190505f80610abf565b601f19821695835f52815f20965f5b81811061162d575096600192849260209796957ff8e1a15aba9398e019f0b49df1a4fde98ee17ae345cb5f6b5e2c27f5033e8ce7999a10611615575b505050811b0190556115a9565b01515f1960f88460031b161c191690555f8080611608565b838301518955600190980197602093840193016115cc565b6007546001600160a01b0316330361165957565b63118cdaa760e01b5f523360045260245ffd5b823b61167a575b5050505050565b604051630a85bd0160e11b81526001600160a01b0391821660048201529181166024830152604482019390935260806064820152911691602090829081906116c690608483019061109e565b03815f865af15f918161175d575b5061172957503d15611722573d6116ea81611250565b906116f8604051928361118e565b81523d5f602083013e5b8051908161171d5782633250574960e11b5f5260045260245ffd5b602001fd5b6060611702565b6001600160e01b03191663757a42ff60e11b0161174b57505f80808080611673565b633250574960e11b5f5260045260245ffd5b9091506020813d60201161179a575b816117796020938361118e565b810103126101b857516001600160e01b0319811681036101b857905f6116d4565b3d915061176c565b6117ab816114f0565b506020906040516117bc838261118e565b5f8152815f52600683526117d260405f206111b0565b81511561184e5780849151611810575050506117ed906114f0565b505f6040516117fc838261118e565b5261180a604051918261118e565b5f815290565b61184b935081906040519584879551918291018487015e8401908282015f8152815193849201905e01015f815203601f19810183528261118e565b90565b925050509056fea26469706673582212205ac34c6b5ce9a01c7d3851aaa3f47ad12d9c524d513b0cd7e90b3de1475f217b64736f6c634300081c0033",
  "linkReferences": {},
  "deployedLinkReferences": {}
}